{
  "_format": "hh-sol-artifact-1",
  "contractName": "CreatorNation",
  "sourceName": "contracts/NFT.sol",
  "abi": [
    {
      "inputs": [
        {
          "internalType": "string",
          "name": "collectionName",
          "type": "string"
        },
        {
          "internalType": "uint256",
          "name": "percent",
          "type": "uint256"
        }
      ],
      "stateMutability": "nonpayable",
      "type": "constructor"
    },
    {
      "anonymous": false,
      "inputs": [
        {
          "indexed": true,
          "internalType": "address",
          "name": "account",
          "type": "address"
        },
        {
          "indexed": true,
          "internalType": "address",
          "name": "operator",
          "type": "address"
        },
        {
          "indexed": false,
          "internalType": "bool",
          "name": "approved",
          "type": "bool"
        }
      ],
      "name": "ApprovalForAll",
      "type": "event"
    },
    {
      "anonymous": false,
      "inputs": [
        {
          "indexed": true,
          "internalType": "address",
          "name": "previousOwner",
          "type": "address"
        },
        {
          "indexed": true,
          "internalType": "address",
          "name": "newOwner",
          "type": "address"
        }
      ],
      "name": "OwnershipTransferred",
      "type": "event"
    },
    {
      "anonymous": false,
      "inputs": [
        {
          "indexed": true,
          "internalType": "address",
          "name": "operator",
          "type": "address"
        },
        {
          "indexed": true,
          "internalType": "address",
          "name": "from",
          "type": "address"
        },
        {
          "indexed": true,
          "internalType": "address",
          "name": "to",
          "type": "address"
        },
        {
          "indexed": false,
          "internalType": "uint256[]",
          "name": "ids",
          "type": "uint256[]"
        },
        {
          "indexed": false,
          "internalType": "uint256[]",
          "name": "values",
          "type": "uint256[]"
        }
      ],
      "name": "TransferBatch",
      "type": "event"
    },
    {
      "anonymous": false,
      "inputs": [
        {
          "indexed": true,
          "internalType": "address",
          "name": "operator",
          "type": "address"
        },
        {
          "indexed": true,
          "internalType": "address",
          "name": "from",
          "type": "address"
        },
        {
          "indexed": true,
          "internalType": "address",
          "name": "to",
          "type": "address"
        },
        {
          "indexed": false,
          "internalType": "uint256",
          "name": "id",
          "type": "uint256"
        },
        {
          "indexed": false,
          "internalType": "uint256",
          "name": "value",
          "type": "uint256"
        }
      ],
      "name": "TransferSingle",
      "type": "event"
    },
    {
      "anonymous": false,
      "inputs": [
        {
          "indexed": false,
          "internalType": "string",
          "name": "value",
          "type": "string"
        },
        {
          "indexed": true,
          "internalType": "uint256",
          "name": "id",
          "type": "uint256"
        }
      ],
      "name": "URI",
      "type": "event"
    },
    {
      "anonymous": false,
      "inputs": [
        {
          "indexed": false,
          "internalType": "address",
          "name": "minter",
          "type": "address"
        },
        {
          "indexed": false,
          "internalType": "string",
          "name": "tokenName",
          "type": "string"
        },
        {
          "indexed": false,
          "internalType": "uint256",
          "name": "tokenID",
          "type": "uint256"
        },
        {
          "indexed": false,
          "internalType": "uint256",
          "name": "cost",
          "type": "uint256"
        },
        {
          "indexed": false,
          "internalType": "uint256",
          "name": "totalSupply",
          "type": "uint256"
        }
      ],
      "name": "onMint",
      "type": "event"
    },
    {
      "inputs": [],
      "name": "_tokenIds",
      "outputs": [
        {
          "internalType": "uint256",
          "name": "_value",
          "type": "uint256"
        }
      ],
      "stateMutability": "view",
      "type": "function"
    },
    {
      "inputs": [
        {
          "internalType": "address",
          "name": "account",
          "type": "address"
        },
        {
          "internalType": "uint256",
          "name": "id",
          "type": "uint256"
        }
      ],
      "name": "balanceOf",
      "outputs": [
        {
          "internalType": "uint256",
          "name": "",
          "type": "uint256"
        }
      ],
      "stateMutability": "view",
      "type": "function"
    },
    {
      "inputs": [
        {
          "internalType": "address[]",
          "name": "accounts",
          "type": "address[]"
        },
        {
          "internalType": "uint256[]",
          "name": "ids",
          "type": "uint256[]"
        }
      ],
      "name": "balanceOfBatch",
      "outputs": [
        {
          "internalType": "uint256[]",
          "name": "",
          "type": "uint256[]"
        }
      ],
      "stateMutability": "view",
      "type": "function"
    },
    {
      "inputs": [
        {
          "internalType": "address",
          "name": "buyerAddress",
          "type": "address"
        },
        {
          "internalType": "uint256",
          "name": "_tokenId",
          "type": "uint256"
        },
        {
          "internalType": "uint256",
          "name": "_amount",
          "type": "uint256"
        }
      ],
      "name": "buyTokensFiat",
      "outputs": [
        {
          "internalType": "bool",
          "name": "",
          "type": "bool"
        }
      ],
      "stateMutability": "payable",
      "type": "function"
    },
    {
      "inputs": [
        {
          "internalType": "uint256",
          "name": "_tokenId",
          "type": "uint256"
        },
        {
          "internalType": "uint256",
          "name": "_amount",
          "type": "uint256"
        }
      ],
      "name": "buyTokensUsingCrypto",
      "outputs": [
        {
          "internalType": "bool",
          "name": "",
          "type": "bool"
        }
      ],
      "stateMutability": "payable",
      "type": "function"
    },
    {
      "inputs": [
        {
          "internalType": "address",
          "name": "",
          "type": "address"
        },
        {
          "internalType": "uint256",
          "name": "",
          "type": "uint256"
        }
      ],
      "name": "buyerToTokens",
      "outputs": [
        {
          "internalType": "uint256",
          "name": "id",
          "type": "uint256"
        },
        {
          "internalType": "address",
          "name": "creator",
          "type": "address"
        },
        {
          "internalType": "string",
          "name": "tokenName",
          "type": "string"
        },
        {
          "internalType": "string",
          "name": "mediaUrl",
          "type": "string"
        },
        {
          "internalType": "uint256",
          "name": "cost",
          "type": "uint256"
        },
        {
          "internalType": "uint256",
          "name": "amountAvailable",
          "type": "uint256"
        },
        {
          "internalType": "uint256",
          "name": "totalSupply",
          "type": "uint256"
        },
        {
          "internalType": "uint256",
          "name": "createdTime",
          "type": "uint256"
        }
      ],
      "stateMutability": "view",
      "type": "function"
    },
    {
      "inputs": [],
      "name": "contractURI",
      "outputs": [
        {
          "internalType": "string",
          "name": "",
          "type": "string"
        }
      ],
      "stateMutability": "pure",
      "type": "function"
    },
    {
      "inputs": [
        {
          "internalType": "address",
          "name": "",
          "type": "address"
        },
        {
          "internalType": "uint256",
          "name": "",
          "type": "uint256"
        }
      ],
      "name": "creatorTokens",
      "outputs": [
        {
          "internalType": "uint256",
          "name": "id",
          "type": "uint256"
        },
        {
          "internalType": "address",
          "name": "creator",
          "type": "address"
        },
        {
          "internalType": "string",
          "name": "tokenName",
          "type": "string"
        },
        {
          "internalType": "string",
          "name": "mediaUrl",
          "type": "string"
        },
        {
          "internalType": "uint256",
          "name": "cost",
          "type": "uint256"
        },
        {
          "internalType": "uint256",
          "name": "amountAvailable",
          "type": "uint256"
        },
        {
          "internalType": "uint256",
          "name": "totalSupply",
          "type": "uint256"
        },
        {
          "internalType": "uint256",
          "name": "createdTime",
          "type": "uint256"
        }
      ],
      "stateMutability": "view",
      "type": "function"
    },
    {
      "inputs": [],
      "name": "fetchAvailableNFTs",
      "outputs": [
        {
          "components": [
            {
              "internalType": "uint256",
              "name": "id",
              "type": "uint256"
            },
            {
              "internalType": "address",
              "name": "creator",
              "type": "address"
            },
            {
              "internalType": "string",
              "name": "tokenName",
              "type": "string"
            },
            {
              "internalType": "string",
              "name": "mediaUrl",
              "type": "string"
            },
            {
              "internalType": "uint256",
              "name": "cost",
              "type": "uint256"
            },
            {
              "internalType": "uint256",
              "name": "amountAvailable",
              "type": "uint256"
            },
            {
              "internalType": "uint256",
              "name": "totalSupply",
              "type": "uint256"
            },
            {
              "internalType": "uint256",
              "name": "createdTime",
              "type": "uint256"
            }
          ],
          "internalType": "struct CreatorNation.Token[]",
          "name": "itemList",
          "type": "tuple[]"
        }
      ],
      "stateMutability": "view",
      "type": "function"
    },
    {
      "inputs": [],
      "name": "fetchBoughtNFTs",
      "outputs": [
        {
          "components": [
            {
              "internalType": "uint256",
              "name": "id",
              "type": "uint256"
            },
            {
              "internalType": "address",
              "name": "creator",
              "type": "address"
            },
            {
              "internalType": "string",
              "name": "tokenName",
              "type": "string"
            },
            {
              "internalType": "string",
              "name": "mediaUrl",
              "type": "string"
            },
            {
              "internalType": "uint256",
              "name": "cost",
              "type": "uint256"
            },
            {
              "internalType": "uint256",
              "name": "amountAvailable",
              "type": "uint256"
            },
            {
              "internalType": "uint256",
              "name": "totalSupply",
              "type": "uint256"
            },
            {
              "internalType": "uint256",
              "name": "createdTime",
              "type": "uint256"
            }
          ],
          "internalType": "struct CreatorNation.Token[]",
          "name": "itemList",
          "type": "tuple[]"
        }
      ],
      "stateMutability": "view",
      "type": "function"
    },
    {
      "inputs": [],
      "name": "fetchCreatedNFTs",
      "outputs": [
        {
          "components": [
            {
              "internalType": "uint256",
              "name": "id",
              "type": "uint256"
            },
            {
              "internalType": "address",
              "name": "creator",
              "type": "address"
            },
            {
              "internalType": "string",
              "name": "tokenName",
              "type": "string"
            },
            {
              "internalType": "string",
              "name": "mediaUrl",
              "type": "string"
            },
            {
              "internalType": "uint256",
              "name": "cost",
              "type": "uint256"
            },
            {
              "internalType": "uint256",
              "name": "amountAvailable",
              "type": "uint256"
            },
            {
              "internalType": "uint256",
              "name": "totalSupply",
              "type": "uint256"
            },
            {
              "internalType": "uint256",
              "name": "createdTime",
              "type": "uint256"
            }
          ],
          "internalType": "struct CreatorNation.Token[]",
          "name": "itemList",
          "type": "tuple[]"
        }
      ],
      "stateMutability": "view",
      "type": "function"
    },
    {
      "inputs": [
        {
          "internalType": "uint256",
          "name": "",
          "type": "uint256"
        }
      ],
      "name": "idToToken",
      "outputs": [
        {
          "internalType": "uint256",
          "name": "id",
          "type": "uint256"
        },
        {
          "internalType": "address",
          "name": "creator",
          "type": "address"
        },
        {
          "internalType": "string",
          "name": "tokenName",
          "type": "string"
        },
        {
          "internalType": "string",
          "name": "mediaUrl",
          "type": "string"
        },
        {
          "internalType": "uint256",
          "name": "cost",
          "type": "uint256"
        },
        {
          "internalType": "uint256",
          "name": "amountAvailable",
          "type": "uint256"
        },
        {
          "internalType": "uint256",
          "name": "totalSupply",
          "type": "uint256"
        },
        {
          "internalType": "uint256",
          "name": "createdTime",
          "type": "uint256"
        }
      ],
      "stateMutability": "view",
      "type": "function"
    },
    {
      "inputs": [
        {
          "internalType": "address",
          "name": "account",
          "type": "address"
        },
        {
          "internalType": "address",
          "name": "operator",
          "type": "address"
        }
      ],
      "name": "isApprovedForAll",
      "outputs": [
        {
          "internalType": "bool",
          "name": "",
          "type": "bool"
        }
      ],
      "stateMutability": "view",
      "type": "function"
    },
    {
      "inputs": [
        {
          "internalType": "address",
          "name": "creatorAddress",
          "type": "address"
        },
        {
          "internalType": "string",
          "name": "tokenName",
          "type": "string"
        },
        {
          "internalType": "uint256",
          "name": "cost",
          "type": "uint256"
        },
        {
          "internalType": "uint256",
          "name": "total",
          "type": "uint256"
        },
        {
          "internalType": "string",
          "name": "uri",
          "type": "string"
        },
        {
          "internalType": "string",
          "name": "mediaUrl",
          "type": "string"
        }
      ],
      "name": "mint",
      "outputs": [],
      "stateMutability": "nonpayable",
      "type": "function"
    },
    {
      "inputs": [],
      "name": "name",
      "outputs": [
        {
          "internalType": "string",
          "name": "",
          "type": "string"
        }
      ],
      "stateMutability": "view",
      "type": "function"
    },
    {
      "inputs": [],
      "name": "owner",
      "outputs": [
        {
          "internalType": "address",
          "name": "",
          "type": "address"
        }
      ],
      "stateMutability": "view",
      "type": "function"
    },
    {
      "inputs": [],
      "name": "pool",
      "outputs": [
        {
          "internalType": "address",
          "name": "",
          "type": "address"
        }
      ],
      "stateMutability": "view",
      "type": "function"
    },
    {
      "inputs": [],
      "name": "renounceOwnership",
      "outputs": [],
      "stateMutability": "nonpayable",
      "type": "function"
    },
    {
      "inputs": [
        {
          "internalType": "address",
          "name": "from",
          "type": "address"
        },
        {
          "internalType": "address",
          "name": "to",
          "type": "address"
        },
        {
          "internalType": "uint256[]",
          "name": "ids",
          "type": "uint256[]"
        },
        {
          "internalType": "uint256[]",
          "name": "amounts",
          "type": "uint256[]"
        },
        {
          "internalType": "bytes",
          "name": "data",
          "type": "bytes"
        }
      ],
      "name": "safeBatchTransferFrom",
      "outputs": [],
      "stateMutability": "nonpayable",
      "type": "function"
    },
    {
      "inputs": [
        {
          "internalType": "address",
          "name": "from",
          "type": "address"
        },
        {
          "internalType": "address",
          "name": "to",
          "type": "address"
        },
        {
          "internalType": "uint256",
          "name": "id",
          "type": "uint256"
        },
        {
          "internalType": "uint256",
          "name": "amount",
          "type": "uint256"
        },
        {
          "internalType": "bytes",
          "name": "data",
          "type": "bytes"
        }
      ],
      "name": "safeTransferFrom",
      "outputs": [],
      "stateMutability": "nonpayable",
      "type": "function"
    },
    {
      "inputs": [
        {
          "internalType": "address",
          "name": "operator",
          "type": "address"
        },
        {
          "internalType": "bool",
          "name": "approved",
          "type": "bool"
        }
      ],
      "name": "setApprovalForAll",
      "outputs": [],
      "stateMutability": "nonpayable",
      "type": "function"
    },
    {
      "inputs": [
        {
          "internalType": "bytes4",
          "name": "interfaceId",
          "type": "bytes4"
        }
      ],
      "name": "supportsInterface",
      "outputs": [
        {
          "internalType": "bool",
          "name": "",
          "type": "bool"
        }
      ],
      "stateMutability": "view",
      "type": "function"
    },
    {
      "inputs": [
        {
          "internalType": "uint256",
          "name": "",
          "type": "uint256"
        }
      ],
      "name": "tokensAvailable",
      "outputs": [
        {
          "internalType": "uint256",
          "name": "",
          "type": "uint256"
        }
      ],
      "stateMutability": "view",
      "type": "function"
    },
    {
      "inputs": [
        {
          "internalType": "address",
          "name": "newOwner",
          "type": "address"
        }
      ],
      "name": "transferOwnership",
      "outputs": [],
      "stateMutability": "nonpayable",
      "type": "function"
    },
    {
      "inputs": [
        {
          "internalType": "uint256",
          "name": "",
          "type": "uint256"
        }
      ],
      "name": "uri",
      "outputs": [
        {
          "internalType": "string",
          "name": "",
          "type": "string"
        }
      ],
      "stateMutability": "view",
      "type": "function"
    }
  ],
  "bytecode": "0x60806040523480156200001157600080fd5b5060405162005f2438038062005f24833981810160405281019062000037919062000333565b6040518060400160405280600e81526020017f43726561746f72204e6174696f6e0000000000000000000000000000000000008152506200007e816200011060201b60201c565b506200009f620000936200012c60201b60201c565b6200013460201b60201c565b60016004819055508160079080519060200190620000bf929190620001fa565b5033600660006101000a81548173ffffffffffffffffffffffffffffffffffffffff021916908373ffffffffffffffffffffffffffffffffffffffff16021790555080600a81905550505062000521565b806002908051906020019062000128929190620001fa565b5050565b600033905090565b6000600360009054906101000a900473ffffffffffffffffffffffffffffffffffffffff16905081600360006101000a81548173ffffffffffffffffffffffffffffffffffffffff021916908373ffffffffffffffffffffffffffffffffffffffff1602179055508173ffffffffffffffffffffffffffffffffffffffff168173ffffffffffffffffffffffffffffffffffffffff167f8be0079c531659141344cd1fd0a4f28419497f9722a3daafe3b4186f6b6457e060405160405180910390a35050565b82805462000208906200042c565b90600052602060002090601f0160209004810192826200022c576000855562000278565b82601f106200024757805160ff191683800117855562000278565b8280016001018555821562000278579182015b82811115620002775782518255916020019190600101906200025a565b5b5090506200028791906200028b565b5090565b5b80821115620002a65760008160009055506001016200028c565b5090565b6000620002c1620002bb84620003b6565b6200038d565b905082815260208101848484011115620002da57600080fd5b620002e7848285620003f6565b509392505050565b600082601f8301126200030157600080fd5b815162000313848260208601620002aa565b91505092915050565b6000815190506200032d8162000507565b92915050565b600080604083850312156200034757600080fd5b600083015167ffffffffffffffff8111156200036257600080fd5b6200037085828601620002ef565b925050602062000383858286016200031c565b9150509250929050565b600062000399620003ac565b9050620003a7828262000462565b919050565b6000604051905090565b600067ffffffffffffffff821115620003d457620003d3620004c7565b5b620003df82620004f6565b9050602081019050919050565b6000819050919050565b60005b8381101562000416578082015181840152602081019050620003f9565b8381111562000426576000848401525b50505050565b600060028204905060018216806200044557607f821691505b602082108114156200045c576200045b62000498565b5b50919050565b6200046d82620004f6565b810181811067ffffffffffffffff821117156200048f576200048e620004c7565b5b80604052505050565b7f4e487b7100000000000000000000000000000000000000000000000000000000600052602260045260246000fd5b7f4e487b7100000000000000000000000000000000000000000000000000000000600052604160045260246000fd5b6000601f19601f8301169050919050565b6200051281620003ec565b81146200051e57600080fd5b50565b6159f380620005316000396000f3fe6080604052600436106101655760003560e01c80638da5cb5b116100d1578063be2a6ec01161008a578063e985e9c511610064578063e985e9c51461056d578063f242432a146105aa578063f2fde38b146105d3578063f5c6b96b146105fc57610165565b8063be2a6ec0146104d3578063db3fa4cc146104fe578063e8a3d4851461054257610165565b80638da5cb5b146103be5780639129b4ad146103e957806398ba621914610412578063a22cb4651461044f578063aa46a40014610478578063bd557ab9146104a357610165565b806327f03c3c1161012357806327f03c3c146102a25780632d89c435146102d25780632eb2c2d6146102fd5780634e1273f4146103265780637019c1f914610363578063715018a6146103a757610165565b8062fdd58e1461016a57806301ffc9a7146101a757806306fdde03146101e45780630e89341c1461020f57806316f0115b1461024c57806318474cea14610277575b600080fd5b34801561017657600080fd5b50610191600480360381019061018c919061441d565b610640565b60405161019e9190614e96565b60405180910390f35b3480156101b357600080fd5b506101ce60048036038101906101c99190614514565b610709565b6040516101db9190614c59565b60405180910390f35b3480156101f057600080fd5b506101f96107eb565b6040516102069190614c74565b60405180910390f35b34801561021b57600080fd5b5061023660048036038101906102319190614566565b610879565b6040516102439190614c74565b60405180910390f35b34801561025857600080fd5b5061026161090d565b60405161026e9190614aa7565b60405180910390f35b34801561028357600080fd5b5061028c610933565b6040516102999190614bde565b60405180910390f35b6102bc60048036038101906102b7919061458f565b610d15565b6040516102c99190614c59565b60405180910390f35b3480156102de57600080fd5b506102e7611151565b6040516102f49190614bde565b60405180910390f35b34801561030957600080fd5b50610324600480360381019061031f91906141c2565b611518565b005b34801561033257600080fd5b5061034d600480360381019061034891906144a8565b6115b9565b60405161035a9190614c00565b60405180910390f35b34801561036f57600080fd5b5061038a6004803603810190610385919061441d565b61176a565b60405161039e989796959493929190614eb1565b60405180910390f35b3480156103b357600080fd5b506103bc6118ff565b005b3480156103ca57600080fd5b506103d3611987565b6040516103e09190614aa7565b60405180910390f35b3480156103f557600080fd5b50610410600480360381019061040b919061434c565b6119b1565b005b34801561041e57600080fd5b5061043960048036038101906104349190614566565b611dc6565b6040516104469190614e96565b60405180910390f35b34801561045b57600080fd5b5061047660048036038101906104719190614310565b611dde565b005b34801561048457600080fd5b5061048d611f5f565b60405161049a9190614e96565b60405180910390f35b6104bd60048036038101906104b89190614459565b611f6b565b6040516104ca9190614c59565b60405180910390f35b3480156104df57600080fd5b506104e86122c6565b6040516104f59190614bde565b60405180910390f35b34801561050a57600080fd5b506105256004803603810190610520919061441d565b612645565b604051610539989796959493929190614eb1565b60405180910390f35b34801561054e57600080fd5b506105576127da565b6040516105649190614c74565b60405180910390f35b34801561057957600080fd5b50610594600480360381019061058f9190614186565b612817565b6040516105a19190614c59565b60405180910390f35b3480156105b657600080fd5b506105d160048036038101906105cc9190614281565b6128ab565b005b3480156105df57600080fd5b506105fa60048036038101906105f5919061415d565b61294c565b005b34801561060857600080fd5b50610623600480360381019061061e9190614566565b612a44565b604051610637989796959493929190614eb1565b60405180910390f35b60008073ffffffffffffffffffffffffffffffffffffffff168373ffffffffffffffffffffffffffffffffffffffff1614156106b1576040517f08c379a00000000000000000000000000000000000000000000000000000000081526004016106a890614cf6565b60405180910390fd5b60008083815260200190815260200160002060008473ffffffffffffffffffffffffffffffffffffffff1673ffffffffffffffffffffffffffffffffffffffff16815260200190815260200160002054905092915050565b60007fd9b67a26000000000000000000000000000000000000000000000000000000007bffffffffffffffffffffffffffffffffffffffffffffffffffffffff1916827bffffffffffffffffffffffffffffffffffffffffffffffffffffffff191614806107d457507f0e89341c000000000000000000000000000000000000000000000000000000007bffffffffffffffffffffffffffffffffffffffffffffffffffffffff1916827bffffffffffffffffffffffffffffffffffffffffffffffffffffffff1916145b806107e457506107e382612bbc565b5b9050919050565b600780546107f8906152cb565b80601f0160208091040260200160405190810160405280929190818152602001828054610824906152cb565b80156108715780601f1061084657610100808354040283529160200191610871565b820191906000526020600020905b81548152906001019060200180831161085457829003601f168201915b505050505081565b606060028054610888906152cb565b80601f01602080910402602001604051908101604052809291908181526020018280546108b4906152cb565b80156109015780601f106108d657610100808354040283529160200191610901565b820191906000526020600020905b8154815290600101906020018083116108e457829003601f168201915b50505050509050919050565b600660009054906101000a900473ffffffffffffffffffffffffffffffffffffffff1681565b606060003390506000600c60008373ffffffffffffffffffffffffffffffffffffffff1673ffffffffffffffffffffffffffffffffffffffff168152602001908152602001600020805490501115610d10576000600c60008373ffffffffffffffffffffffffffffffffffffffff1673ffffffffffffffffffffffffffffffffffffffff1681526020019081526020016000208054905090506000808267ffffffffffffffff811115610a0f577f4e487b7100000000000000000000000000000000000000000000000000000000600052604160045260246000fd5b604051908082528060200260200182016040528015610a4857816020015b610a35613dfa565b815260200190600190039081610a2d5790505b50905060005b83811015610d0357600c60008673ffffffffffffffffffffffffffffffffffffffff1673ffffffffffffffffffffffffffffffffffffffff1681526020019081526020016000208181548110610acd577f4e487b7100000000000000000000000000000000000000000000000000000000600052603260045260246000fd5b9060005260206000209060080201600001549250600b600084815260200190815260200160002060405180610100016040529081600082015481526020016001820160009054906101000a900473ffffffffffffffffffffffffffffffffffffffff1673ffffffffffffffffffffffffffffffffffffffff1673ffffffffffffffffffffffffffffffffffffffff168152602001600282018054610b70906152cb565b80601f0160208091040260200160405190810160405280929190818152602001828054610b9c906152cb565b8015610be95780601f10610bbe57610100808354040283529160200191610be9565b820191906000526020600020905b815481529060010190602001808311610bcc57829003601f168201915b50505050508152602001600382018054610c02906152cb565b80601f0160208091040260200160405190810160405280929190818152602001828054610c2e906152cb565b8015610c7b5780601f10610c5057610100808354040283529160200191610c7b565b820191906000526020600020905b815481529060010190602001808311610c5e57829003601f168201915b50505050508152602001600482015481526020016005820154815260200160068201548152602001600782015481525050828281518110610ce5577f4e487b7100000000000000000000000000000000000000000000000000000000600052603260045260246000fd5b60200260200101819052508080610cfb9061532e565b915050610a4e565b5080945050505050610d12565b505b90565b600081600b600085815260200190815260200160002060040154610d399190615187565b341015610d7b576040517f08c379a0000000000000000000000000000000000000000000000000000000008152600401610d7290614d36565b60405180910390fd5b6000600860008581526020019081526020016000205490506000600b600086815260200190815260200160002060010160009054906101000a900473ffffffffffffffffffffffffffffffffffffffff16905081841115610e11576040517f08c379a0000000000000000000000000000000000000000000000000000000008152600401610e0890614cd6565b60405180910390fd5b60006064600a546064610e2491906151e1565b34610e2f9190615187565b610e399190615156565b905060006064600a5434610e4d9190615187565b610e579190615156565b90508273ffffffffffffffffffffffffffffffffffffffff166108fc839081150290604051600060405180830381858888f19350505050158015610e9f573d6000803e3d6000fd5b50600660009054906101000a900473ffffffffffffffffffffffffffffffffffffffff1673ffffffffffffffffffffffffffffffffffffffff166108fc829081150290604051600060405180830381858888f19350505050158015610f08573d6000803e3d6000fd5b5085600860008981526020019081526020016000206000828254610f2c91906151e1565b9250508190555085600b60008981526020019081526020016000206005016000828254610f5991906151e1565b9250508190555060006040518061010001604052808981526020018573ffffffffffffffffffffffffffffffffffffffff168152602001600b60008b81526020019081526020016000206002018054610fb1906152cb565b80601f0160208091040260200160405190810160405280929190818152602001828054610fdd906152cb565b801561102a5780601f10610fff5761010080835404028352916020019161102a565b820191906000526020600020905b81548152906001019060200180831161100d57829003601f168201915b50505050508152602001600b60008b81526020019081526020016000206003018054611055906152cb565b80601f0160208091040260200160405190810160405280929190818152602001828054611081906152cb565b80156110ce5780601f106110a3576101008083540402835291602001916110ce565b820191906000526020600020905b8154815290600101906020018083116110b157829003601f168201915b50505050508152602001600b60008b8152602001908152602001600020600401548152602001888152602001600b60008b81526020019081526020016000206006015481526020014281525090506111268133612c26565b61114284338a8a604051806020016040528060008152506130c7565b60019550505050505092915050565b606060003390506000600960008373ffffffffffffffffffffffffffffffffffffffff1673ffffffffffffffffffffffffffffffffffffffff168152602001908152602001600020805490501115611513576000600960008373ffffffffffffffffffffffffffffffffffffffff1673ffffffffffffffffffffffffffffffffffffffff16815260200190815260200160002080549050905060008167ffffffffffffffff81111561122c577f4e487b7100000000000000000000000000000000000000000000000000000000600052604160045260246000fd5b60405190808252806020026020018201604052801561126557816020015b611252613dfa565b81526020019060019003908161124a5790505b50905060005b8281101561150757600960008573ffffffffffffffffffffffffffffffffffffffff1673ffffffffffffffffffffffffffffffffffffffff16815260200190815260200160002081815481106112ea577f4e487b7100000000000000000000000000000000000000000000000000000000600052603260045260246000fd5b906000526020600020906008020160405180610100016040529081600082015481526020016001820160009054906101000a900473ffffffffffffffffffffffffffffffffffffffff1673ffffffffffffffffffffffffffffffffffffffff1673ffffffffffffffffffffffffffffffffffffffff168152602001600282018054611374906152cb565b80601f01602080910402602001604051908101604052809291908181526020018280546113a0906152cb565b80156113ed5780601f106113c2576101008083540402835291602001916113ed565b820191906000526020600020905b8154815290600101906020018083116113d057829003601f168201915b50505050508152602001600382018054611406906152cb565b80601f0160208091040260200160405190810160405280929190818152602001828054611432906152cb565b801561147f5780601f106114545761010080835404028352916020019161147f565b820191906000526020600020905b81548152906001019060200180831161146257829003601f168201915b505050505081526020016004820154815260200160058201548152602001600682015481526020016007820154815250508282815181106114e9577f4e487b7100000000000000000000000000000000000000000000000000000000600052603260045260246000fd5b602002602001018190525080806114ff9061532e565b91505061126b565b50809350505050611515565b505b90565b611520613349565b73ffffffffffffffffffffffffffffffffffffffff168573ffffffffffffffffffffffffffffffffffffffff161480611566575061156585611560613349565b612817565b5b6115a5576040517f08c379a000000000000000000000000000000000000000000000000000000000815260040161159c90614d96565b60405180910390fd5b6115b28585858585613351565b5050505050565b606081518351146115ff576040517f08c379a00000000000000000000000000000000000000000000000000000000081526004016115f690614e36565b60405180910390fd5b6000835167ffffffffffffffff811115611642577f4e487b7100000000000000000000000000000000000000000000000000000000600052604160045260246000fd5b6040519080825280602002602001820160405280156116705781602001602082028036833780820191505090505b50905060005b845181101561175f576117098582815181106116bb577f4e487b7100000000000000000000000000000000000000000000000000000000600052603260045260246000fd5b60200260200101518583815181106116fc577f4e487b7100000000000000000000000000000000000000000000000000000000600052603260045260246000fd5b6020026020010151610640565b828281518110611742577f4e487b7100000000000000000000000000000000000000000000000000000000600052603260045260246000fd5b602002602001018181525050806117589061532e565b9050611676565b508091505092915050565b6009602052816000526040600020818154811061178657600080fd5b9060005260206000209060080201600091509150508060000154908060010160009054906101000a900473ffffffffffffffffffffffffffffffffffffffff16908060020180546117d6906152cb565b80601f0160208091040260200160405190810160405280929190818152602001828054611802906152cb565b801561184f5780601f106118245761010080835404028352916020019161184f565b820191906000526020600020905b81548152906001019060200180831161183257829003601f168201915b505050505090806003018054611864906152cb565b80601f0160208091040260200160405190810160405280929190818152602001828054611890906152cb565b80156118dd5780601f106118b2576101008083540402835291602001916118dd565b820191906000526020600020905b8154815290600101906020018083116118c057829003601f168201915b5050505050908060040154908060050154908060060154908060070154905088565b611907613349565b73ffffffffffffffffffffffffffffffffffffffff16611925611987565b73ffffffffffffffffffffffffffffffffffffffff161461197b576040517f08c379a000000000000000000000000000000000000000000000000000000000815260040161197290614dd6565b60405180910390fd5b61198560006136b1565b565b6000600360009054906101000a900473ffffffffffffffffffffffffffffffffffffffff16905090565b6119b9613349565b73ffffffffffffffffffffffffffffffffffffffff166119d7611987565b73ffffffffffffffffffffffffffffffffffffffff1614611a2d576040517f08c379a0000000000000000000000000000000000000000000000000000000008152600401611a2490614dd6565b60405180910390fd5b6006600c60008873ffffffffffffffffffffffffffffffffffffffff1673ffffffffffffffffffffffffffffffffffffffff1681526020019081526020016000208054905010611ab2576040517f08c379a0000000000000000000000000000000000000000000000000000000008152600401611aa990614df6565b60405180910390fd5b611aba613dfa565b6040518061010001604052806001611ad26005613777565b611adc9190615100565b81526020018873ffffffffffffffffffffffffffffffffffffffff16815260200187815260200183815260200186815260200185815260200185815260200142815250905080600b60006001611b326005613777565b611b3c9190615100565b81526020019081526020016000206000820151816000015560208201518160010160006101000a81548173ffffffffffffffffffffffffffffffffffffffff021916908373ffffffffffffffffffffffffffffffffffffffff1602179055506040820151816002019080519060200190611bb7929190613e55565b506060820151816003019080519060200190611bd4929190613e55565b506080820151816004015560a0820151816005015560c0820151816006015560e08201518160070155905050600c60008873ffffffffffffffffffffffffffffffffffffffff1673ffffffffffffffffffffffffffffffffffffffff1681526020019081526020016000208190806001815401808255809150506001900390600052602060002090600802016000909190919091506000820151816000015560208201518160010160006101000a81548173ffffffffffffffffffffffffffffffffffffffff021916908373ffffffffffffffffffffffffffffffffffffffff1602179055506040820151816002019080519060200190611cd6929190613e55565b506060820151816003019080519060200190611cf3929190613e55565b506080820151816004015560a0820151816005015560c0820151816006015560e082015181600701555050611d2783613785565b611d31600561379f565b6000611d3d6005613777565b9050611d5a888287604051806020016040528060008152506137b5565b611d65306001611dde565b8460086000838152602001908152602001600020819055507fd33a29693b0c1e4497bd99a5d678d78d400627b434590d51b4961816620b20a63388838989604051611db4959493929190614b84565b60405180910390a15050505050505050565b60086020528060005260406000206000915090505481565b8173ffffffffffffffffffffffffffffffffffffffff16611dfd613349565b73ffffffffffffffffffffffffffffffffffffffff161415611e54576040517f08c379a0000000000000000000000000000000000000000000000000000000008152600401611e4b90614e16565b60405180910390fd5b8060016000611e61613349565b73ffffffffffffffffffffffffffffffffffffffff1673ffffffffffffffffffffffffffffffffffffffff16815260200190815260200160002060008473ffffffffffffffffffffffffffffffffffffffff1673ffffffffffffffffffffffffffffffffffffffff16815260200190815260200160002060006101000a81548160ff0219169083151502179055508173ffffffffffffffffffffffffffffffffffffffff16611f0e613349565b73ffffffffffffffffffffffffffffffffffffffff167f17307eab39ab6107e8899845ad3d59bd9653f200f220920489ca2b5937696c3183604051611f539190614c59565b60405180910390a35050565b60058060000154905081565b6000611f75613349565b73ffffffffffffffffffffffffffffffffffffffff16611f93611987565b73ffffffffffffffffffffffffffffffffffffffff1614611fe9576040517f08c379a0000000000000000000000000000000000000000000000000000000008152600401611fe090614dd6565b60405180910390fd5b6000600860008581526020019081526020016000205490506000600b600086815260200190815260200160002060010160009054906101000a900473ffffffffffffffffffffffffffffffffffffffff1690508184111561207f576040517f08c379a000000000000000000000000000000000000000000000000000000000815260040161207690614cd6565b60405180910390fd5b836008600087815260200190815260200160002060008282546120a291906151e1565b9250508190555083600b600087815260200190815260200160002060050160008282546120cf91906151e1565b9250508190555060006040518061010001604052808781526020018373ffffffffffffffffffffffffffffffffffffffff168152602001600b60008981526020019081526020016000206002018054612127906152cb565b80601f0160208091040260200160405190810160405280929190818152602001828054612153906152cb565b80156121a05780601f10612175576101008083540402835291602001916121a0565b820191906000526020600020905b81548152906001019060200180831161218357829003601f168201915b50505050508152602001600b600089815260200190815260200160002060030180546121cb906152cb565b80601f01602080910402602001604051908101604052809291908181526020018280546121f7906152cb565b80156122445780601f1061221957610100808354040283529160200191612244565b820191906000526020600020905b81548152906001019060200180831161222757829003601f168201915b50505050508152602001600b6000898152602001908152602001600020600401548152602001868152602001600b600089815260200190815260200160002060060154815260200142815250905061229c8188612c26565b6122b882888888604051806020016040528060008152506130c7565b600193505050509392505050565b60608060006122d56005613777565b14156122e45780915050612642565b600080600190505b6122f66005613777565b811161233e576000600b600083815260200190815260200160002060050154111561232b576001826123289190615100565b91505b80806123369061532e565b9150506122ec565b506001811015612352578192505050612642565b6000808267ffffffffffffffff811115612395577f4e487b7100000000000000000000000000000000000000000000000000000000600052604160045260246000fd5b6040519080825280602002602001820160405280156123ce57816020015b6123bb613dfa565b8152602001906001900390816123b35790505b5090506000600190505b6123e26005613777565b8111612639576000600b600083815260200190815260200160002060050154111561262657600b600082815260200190815260200160002060405180610100016040529081600082015481526020016001820160009054906101000a900473ffffffffffffffffffffffffffffffffffffffff1673ffffffffffffffffffffffffffffffffffffffff1673ffffffffffffffffffffffffffffffffffffffff168152602001600282018054612496906152cb565b80601f01602080910402602001604051908101604052809291908181526020018280546124c2906152cb565b801561250f5780601f106124e45761010080835404028352916020019161250f565b820191906000526020600020905b8154815290600101906020018083116124f257829003601f168201915b50505050508152602001600382018054612528906152cb565b80601f0160208091040260200160405190810160405280929190818152602001828054612554906152cb565b80156125a15780601f10612576576101008083540402835291602001916125a1565b820191906000526020600020905b81548152906001019060200180831161258457829003601f168201915b5050505050815260200160048201548152602001600582015481526020016006820154815260200160078201548152505082848151811061260b577f4e487b7100000000000000000000000000000000000000000000000000000000600052603260045260246000fd5b60200260200101819052506001836126239190615100565b92505b80806126319061532e565b9150506123d8565b50809450505050505b90565b600c602052816000526040600020818154811061266157600080fd5b9060005260206000209060080201600091509150508060000154908060010160009054906101000a900473ffffffffffffffffffffffffffffffffffffffff16908060020180546126b1906152cb565b80601f01602080910402602001604051908101604052809291908181526020018280546126dd906152cb565b801561272a5780601f106126ff5761010080835404028352916020019161272a565b820191906000526020600020905b81548152906001019060200180831161270d57829003601f168201915b50505050509080600301805461273f906152cb565b80601f016020809104026020016040519081016040528092919081815260200182805461276b906152cb565b80156127b85780601f1061278d576101008083540402835291602001916127b8565b820191906000526020600020905b81548152906001019060200180831161279b57829003601f168201915b5050505050908060040154908060050154908060060154908060070154905088565b60606040518060400160405280601d81526020017f68747470733a2f2f6a736f6e6b65657065722e636f6d2f622f4f4a4f43000000815250905090565b6000600160008473ffffffffffffffffffffffffffffffffffffffff1673ffffffffffffffffffffffffffffffffffffffff16815260200190815260200160002060008373ffffffffffffffffffffffffffffffffffffffff1673ffffffffffffffffffffffffffffffffffffffff16815260200190815260200160002060009054906101000a900460ff16905092915050565b6128b3613349565b73ffffffffffffffffffffffffffffffffffffffff168573ffffffffffffffffffffffffffffffffffffffff1614806128f957506128f8856128f3613349565b612817565b5b612938576040517f08c379a000000000000000000000000000000000000000000000000000000000815260040161292f90614d56565b60405180910390fd5b61294585858585856130c7565b5050505050565b612954613349565b73ffffffffffffffffffffffffffffffffffffffff16612972611987565b73ffffffffffffffffffffffffffffffffffffffff16146129c8576040517f08c379a00000000000000000000000000000000000000000000000000000000081526004016129bf90614dd6565b60405180910390fd5b600073ffffffffffffffffffffffffffffffffffffffff168173ffffffffffffffffffffffffffffffffffffffff161415612a38576040517f08c379a0000000000000000000000000000000000000000000000000000000008152600401612a2f90614d16565b60405180910390fd5b612a41816136b1565b50565b600b6020528060005260406000206000915090508060000154908060010160009054906101000a900473ffffffffffffffffffffffffffffffffffffffff1690806002018054612a93906152cb565b80601f0160208091040260200160405190810160405280929190818152602001828054612abf906152cb565b8015612b0c5780601f10612ae157610100808354040283529160200191612b0c565b820191906000526020600020905b815481529060010190602001808311612aef57829003601f168201915b505050505090806003018054612b21906152cb565b80601f0160208091040260200160405190810160405280929190818152602001828054612b4d906152cb565b8015612b9a5780601f10612b6f57610100808354040283529160200191612b9a565b820191906000526020600020905b815481529060010190602001808311612b7d57829003601f168201915b5050505050908060040154908060050154908060060154908060070154905088565b60007f01ffc9a7000000000000000000000000000000000000000000000000000000007bffffffffffffffffffffffffffffffffffffffffffffffffffffffff1916827bffffffffffffffffffffffffffffffffffffffffffffffffffffffff1916149050919050565b6000600960008373ffffffffffffffffffffffffffffffffffffffff1673ffffffffffffffffffffffffffffffffffffffff168152602001908152602001600020805490501415612d9457600960008273ffffffffffffffffffffffffffffffffffffffff1673ffffffffffffffffffffffffffffffffffffffff1681526020019081526020016000208290806001815401808255809150506001900390600052602060002090600802016000909190919091506000820151816000015560208201518160010160006101000a81548173ffffffffffffffffffffffffffffffffffffffff021916908373ffffffffffffffffffffffffffffffffffffffff1602179055506040820151816002019080519060200190612d47929190613e55565b506060820151816003019080519060200190612d64929190613e55565b506080820151816004015560a0820151816005015560c0820151816006015560e0820151816007015550506130c3565b6000600960008373ffffffffffffffffffffffffffffffffffffffff1673ffffffffffffffffffffffffffffffffffffffff1681526020019081526020016000208054905011156130c25760008260000151905060008360a001519050600080600090505b600960008673ffffffffffffffffffffffffffffffffffffffff1673ffffffffffffffffffffffffffffffffffffffff16815260200190815260200160002080549050811015612f955783600960008773ffffffffffffffffffffffffffffffffffffffff1673ffffffffffffffffffffffffffffffffffffffff1681526020019081526020016000208281548110612ebb577f4e487b7100000000000000000000000000000000000000000000000000000000600052603260045260246000fd5b9060005260206000209060080201600001541415612f8257600182612ee09190615100565b915082600960008773ffffffffffffffffffffffffffffffffffffffff1673ffffffffffffffffffffffffffffffffffffffff1681526020019081526020016000208281548110612f5a577f4e487b7100000000000000000000000000000000000000000000000000000000600052603260045260246000fd5b90600052602060002090600802016005016000828254612f7a9190615100565b925050819055505b8080612f8d9061532e565b915050612df9565b5060008114156130be57600960008573ffffffffffffffffffffffffffffffffffffffff1673ffffffffffffffffffffffffffffffffffffffff1681526020019081526020016000208590806001815401808255809150506001900390600052602060002090600802016000909190919091506000820151816000015560208201518160010160006101000a81548173ffffffffffffffffffffffffffffffffffffffff021916908373ffffffffffffffffffffffffffffffffffffffff1602179055506040820151816002019080519060200190613075929190613e55565b506060820151816003019080519060200190613092929190613e55565b506080820151816004015560a0820151816005015560c0820151816006015560e0820151816007015550505b5050505b5b5050565b600073ffffffffffffffffffffffffffffffffffffffff168473ffffffffffffffffffffffffffffffffffffffff161415613137576040517f08c379a000000000000000000000000000000000000000000000000000000000815260040161312e90614d76565b60405180910390fd5b6000613141613349565b90506131618187876131528861394b565b61315b8861394b565b87613a11565b600080600086815260200190815260200160002060008873ffffffffffffffffffffffffffffffffffffffff1673ffffffffffffffffffffffffffffffffffffffff168152602001908152602001600020549050838110156131f8576040517f08c379a00000000000000000000000000000000000000000000000000000000081526004016131ef90614db6565b60405180910390fd5b83810360008087815260200190815260200160002060008973ffffffffffffffffffffffffffffffffffffffff1673ffffffffffffffffffffffffffffffffffffffff168152602001908152602001600020819055508360008087815260200190815260200160002060008873ffffffffffffffffffffffffffffffffffffffff1673ffffffffffffffffffffffffffffffffffffffff16815260200190815260200160002060008282546132ad9190615100565b925050819055508573ffffffffffffffffffffffffffffffffffffffff168773ffffffffffffffffffffffffffffffffffffffff168373ffffffffffffffffffffffffffffffffffffffff167fc3d58168c5ae7397731d063d5bbf3d657854427343f4c083240f7aacaa2d0f62888860405161332a929190614f3d565b60405180910390a4613340828888888888613a19565b50505050505050565b600033905090565b8151835114613395576040517f08c379a000000000000000000000000000000000000000000000000000000000815260040161338c90614e56565b60405180910390fd5b600073ffffffffffffffffffffffffffffffffffffffff168473ffffffffffffffffffffffffffffffffffffffff161415613405576040517f08c379a00000000000000000000000000000000000000000000000000000000081526004016133fc90614d76565b60405180910390fd5b600061340f613349565b905061341f818787878787613a11565b60005b845181101561361c576000858281518110613466577f4e487b7100000000000000000000000000000000000000000000000000000000600052603260045260246000fd5b6020026020010151905060008583815181106134ab577f4e487b7100000000000000000000000000000000000000000000000000000000600052603260045260246000fd5b60200260200101519050600080600084815260200190815260200160002060008b73ffffffffffffffffffffffffffffffffffffffff1673ffffffffffffffffffffffffffffffffffffffff1681526020019081526020016000205490508181101561354c576040517f08c379a000000000000000000000000000000000000000000000000000000000815260040161354390614db6565b60405180910390fd5b81810360008085815260200190815260200160002060008c73ffffffffffffffffffffffffffffffffffffffff1673ffffffffffffffffffffffffffffffffffffffff168152602001908152602001600020819055508160008085815260200190815260200160002060008b73ffffffffffffffffffffffffffffffffffffffff1673ffffffffffffffffffffffffffffffffffffffff16815260200190815260200160002060008282546136019190615100565b92505081905550505050806136159061532e565b9050613422565b508473ffffffffffffffffffffffffffffffffffffffff168673ffffffffffffffffffffffffffffffffffffffff168273ffffffffffffffffffffffffffffffffffffffff167f4a39dc06d4c0dbc64b70af90fd698a233a518aa5d07e595d983b8c0526c8f7fb8787604051613693929190614c22565b60405180910390a46136a9818787878787613c00565b505050505050565b6000600360009054906101000a900473ffffffffffffffffffffffffffffffffffffffff16905081600360006101000a81548173ffffffffffffffffffffffffffffffffffffffff021916908373ffffffffffffffffffffffffffffffffffffffff1602179055508173ffffffffffffffffffffffffffffffffffffffff168173ffffffffffffffffffffffffffffffffffffffff167f8be0079c531659141344cd1fd0a4f28419497f9722a3daafe3b4186f6b6457e060405160405180910390a35050565b600081600001549050919050565b806002908051906020019061379b929190613e55565b5050565b6001816000016000828254019250508190555050565b600073ffffffffffffffffffffffffffffffffffffffff168473ffffffffffffffffffffffffffffffffffffffff161415613825576040517f08c379a000000000000000000000000000000000000000000000000000000000815260040161381c90614e76565b60405180910390fd5b600061382f613349565b9050613850816000876138418861394b565b61384a8861394b565b87613a11565b8260008086815260200190815260200160002060008773ffffffffffffffffffffffffffffffffffffffff1673ffffffffffffffffffffffffffffffffffffffff16815260200190815260200160002060008282546138af9190615100565b925050819055508473ffffffffffffffffffffffffffffffffffffffff16600073ffffffffffffffffffffffffffffffffffffffff168273ffffffffffffffffffffffffffffffffffffffff167fc3d58168c5ae7397731d063d5bbf3d657854427343f4c083240f7aacaa2d0f62878760405161392d929190614f3d565b60405180910390a461394481600087878787613a19565b5050505050565b60606000600167ffffffffffffffff811115613990577f4e487b7100000000000000000000000000000000000000000000000000000000600052604160045260246000fd5b6040519080825280602002602001820160405280156139be5781602001602082028036833780820191505090505b50905082816000815181106139fc577f4e487b7100000000000000000000000000000000000000000000000000000000600052603260045260246000fd5b60200260200101818152505080915050919050565b505050505050565b613a388473ffffffffffffffffffffffffffffffffffffffff16613de7565b15613bf8578373ffffffffffffffffffffffffffffffffffffffff1663f23a6e6187878686866040518663ffffffff1660e01b8152600401613a7e959493929190614b2a565b602060405180830381600087803b158015613a9857600080fd5b505af1925050508015613ac957506040513d601f19601f82011682018060405250810190613ac6919061453d565b60015b613b6f57613ad5615433565b806308c379a01415613b325750613aea6158cb565b80613af55750613b34565b806040517f08c379a0000000000000000000000000000000000000000000000000000000008152600401613b299190614c74565b60405180910390fd5b505b6040517f08c379a0000000000000000000000000000000000000000000000000000000008152600401613b6690614c96565b60405180910390fd5b63f23a6e6160e01b7bffffffffffffffffffffffffffffffffffffffffffffffffffffffff1916817bffffffffffffffffffffffffffffffffffffffffffffffffffffffff191614613bf6576040517f08c379a0000000000000000000000000000000000000000000000000000000008152600401613bed90614cb6565b60405180910390fd5b505b505050505050565b613c1f8473ffffffffffffffffffffffffffffffffffffffff16613de7565b15613ddf578373ffffffffffffffffffffffffffffffffffffffff1663bc197c8187878686866040518663ffffffff1660e01b8152600401613c65959493929190614ac2565b602060405180830381600087803b158015613c7f57600080fd5b505af1925050508015613cb057506040513d601f19601f82011682018060405250810190613cad919061453d565b60015b613d5657613cbc615433565b806308c379a01415613d195750613cd16158cb565b80613cdc5750613d1b565b806040517f08c379a0000000000000000000000000000000000000000000000000000000008152600401613d109190614c74565b60405180910390fd5b505b6040517f08c379a0000000000000000000000000000000000000000000000000000000008152600401613d4d90614c96565b60405180910390fd5b63bc197c8160e01b7bffffffffffffffffffffffffffffffffffffffffffffffffffffffff1916817bffffffffffffffffffffffffffffffffffffffffffffffffffffffff191614613ddd576040517f08c379a0000000000000000000000000000000000000000000000000000000008152600401613dd490614cb6565b60405180910390fd5b505b505050505050565b600080823b905060008111915050919050565b60405180610100016040528060008152602001600073ffffffffffffffffffffffffffffffffffffffff1681526020016060815260200160608152602001600081526020016000815260200160008152602001600081525090565b828054613e61906152cb565b90600052602060002090601f016020900481019282613e835760008555613eca565b82601f10613e9c57805160ff1916838001178555613eca565b82800160010185558215613eca579182015b82811115613ec9578251825591602001919060010190613eae565b5b509050613ed79190613edb565b5090565b5b80821115613ef4576000816000905550600101613edc565b5090565b6000613f0b613f0684614f8b565b614f66565b90508083825260208201905082856020860282011115613f2a57600080fd5b60005b85811015613f5a5781613f40888261404c565b845260208401935060208301925050600181019050613f2d565b5050509392505050565b6000613f77613f7284614fb7565b614f66565b90508083825260208201905082856020860282011115613f9657600080fd5b60005b85811015613fc65781613fac8882614148565b845260208401935060208301925050600181019050613f99565b5050509392505050565b6000613fe3613fde84614fe3565b614f66565b905082815260208101848484011115613ffb57600080fd5b614006848285615289565b509392505050565b600061402161401c84615014565b614f66565b90508281526020810184848401111561403957600080fd5b614044848285615289565b509392505050565b60008135905061405b81615961565b92915050565b600082601f83011261407257600080fd5b8135614082848260208601613ef8565b91505092915050565b600082601f83011261409c57600080fd5b81356140ac848260208601613f64565b91505092915050565b6000813590506140c481615978565b92915050565b6000813590506140d98161598f565b92915050565b6000815190506140ee8161598f565b92915050565b600082601f83011261410557600080fd5b8135614115848260208601613fd0565b91505092915050565b600082601f83011261412f57600080fd5b813561413f84826020860161400e565b91505092915050565b600081359050614157816159a6565b92915050565b60006020828403121561416f57600080fd5b600061417d8482850161404c565b91505092915050565b6000806040838503121561419957600080fd5b60006141a78582860161404c565b92505060206141b88582860161404c565b9150509250929050565b600080600080600060a086880312156141da57600080fd5b60006141e88882890161404c565b95505060206141f98882890161404c565b945050604086013567ffffffffffffffff81111561421657600080fd5b6142228882890161408b565b935050606086013567ffffffffffffffff81111561423f57600080fd5b61424b8882890161408b565b925050608086013567ffffffffffffffff81111561426857600080fd5b614274888289016140f4565b9150509295509295909350565b600080600080600060a0868803121561429957600080fd5b60006142a78882890161404c565b95505060206142b88882890161404c565b94505060406142c988828901614148565b93505060606142da88828901614148565b925050608086013567ffffffffffffffff8111156142f757600080fd5b614303888289016140f4565b9150509295509295909350565b6000806040838503121561432357600080fd5b60006143318582860161404c565b9250506020614342858286016140b5565b9150509250929050565b60008060008060008060c0878903121561436557600080fd5b600061437389828a0161404c565b965050602087013567ffffffffffffffff81111561439057600080fd5b61439c89828a0161411e565b95505060406143ad89828a01614148565b94505060606143be89828a01614148565b935050608087013567ffffffffffffffff8111156143db57600080fd5b6143e789828a0161411e565b92505060a087013567ffffffffffffffff81111561440457600080fd5b61441089828a0161411e565b9150509295509295509295565b6000806040838503121561443057600080fd5b600061443e8582860161404c565b925050602061444f85828601614148565b9150509250929050565b60008060006060848603121561446e57600080fd5b600061447c8682870161404c565b935050602061448d86828701614148565b925050604061449e86828701614148565b9150509250925092565b600080604083850312156144bb57600080fd5b600083013567ffffffffffffffff8111156144d557600080fd5b6144e185828601614061565b925050602083013567ffffffffffffffff8111156144fe57600080fd5b61450a8582860161408b565b9150509250929050565b60006020828403121561452657600080fd5b6000614534848285016140ca565b91505092915050565b60006020828403121561454f57600080fd5b600061455d848285016140df565b91505092915050565b60006020828403121561457857600080fd5b600061458684828501614148565b91505092915050565b600080604083850312156145a257600080fd5b60006145b085828601614148565b92505060206145c185828601614148565b9150509250929050565b60006145d783836149d2565b905092915050565b60006145eb8383614a89565b60208301905092915050565b61460081615215565b82525050565b61460f81615215565b82525050565b600061462082615065565b61462a81856150ab565b93508360208202850161463c85615045565b8060005b85811015614678578484038952815161465985826145cb565b945061466483615091565b925060208a01995050600181019050614640565b50829750879550505050505092915050565b600061469582615070565b61469f81856150bc565b93506146aa83615055565b8060005b838110156146db5781516146c288826145df565b97506146cd8361509e565b9250506001810190506146ae565b5085935050505092915050565b6146f181615227565b82525050565b60006147028261507b565b61470c81856150cd565b935061471c818560208601615298565b61472581615455565b840191505092915050565b600061473b82615086565b61474581856150de565b9350614755818560208601615298565b61475e81615455565b840191505092915050565b600061477482615086565b61477e81856150ef565b935061478e818560208601615298565b61479781615455565b840191505092915050565b60006147af6034836150ef565b91506147ba82615473565b604082019050919050565b60006147d26028836150ef565b91506147dd826154c2565b604082019050919050565b60006147f56014836150ef565b915061480082615511565b602082019050919050565b6000614818602b836150ef565b91506148238261553a565b604082019050919050565b600061483b6026836150ef565b915061484682615589565b604082019050919050565b600061485e601a836150ef565b9150614869826155d8565b602082019050919050565b60006148816029836150ef565b915061488c82615601565b604082019050919050565b60006148a46025836150ef565b91506148af82615650565b604082019050919050565b60006148c76032836150ef565b91506148d28261569f565b604082019050919050565b60006148ea602a836150ef565b91506148f5826156ee565b604082019050919050565b600061490d6020836150ef565b91506149188261573d565b602082019050919050565b60006149306014836150ef565b915061493b82615766565b602082019050919050565b60006149536029836150ef565b915061495e8261578f565b604082019050919050565b60006149766029836150ef565b9150614981826157de565b604082019050919050565b60006149996028836150ef565b91506149a48261582d565b604082019050919050565b60006149bc6021836150ef565b91506149c78261587c565b604082019050919050565b6000610100830160008301516149eb6000860182614a89565b5060208301516149fe60208601826145f7565b5060408301518482036040860152614a168282614730565b91505060608301518482036060860152614a308282614730565b9150506080830151614a456080860182614a89565b5060a0830151614a5860a0860182614a89565b5060c0830151614a6b60c0860182614a89565b5060e0830151614a7e60e0860182614a89565b508091505092915050565b614a928161527f565b82525050565b614aa18161527f565b82525050565b6000602082019050614abc6000830184614606565b92915050565b600060a082019050614ad76000830188614606565b614ae46020830187614606565b8181036040830152614af6818661468a565b90508181036060830152614b0a818561468a565b90508181036080830152614b1e81846146f7565b90509695505050505050565b600060a082019050614b3f6000830188614606565b614b4c6020830187614606565b614b596040830186614a98565b614b666060830185614a98565b8181036080830152614b7881846146f7565b90509695505050505050565b600060a082019050614b996000830188614606565b8181036020830152614bab8187614769565b9050614bba6040830186614a98565b614bc76060830185614a98565b614bd46080830184614a98565b9695505050505050565b60006020820190508181036000830152614bf88184614615565b905092915050565b60006020820190508181036000830152614c1a818461468a565b905092915050565b60006040820190508181036000830152614c3c818561468a565b90508181036020830152614c50818461468a565b90509392505050565b6000602082019050614c6e60008301846146e8565b92915050565b60006020820190508181036000830152614c8e8184614769565b905092915050565b60006020820190508181036000830152614caf816147a2565b9050919050565b60006020820190508181036000830152614ccf816147c5565b9050919050565b60006020820190508181036000830152614cef816147e8565b9050919050565b60006020820190508181036000830152614d0f8161480b565b9050919050565b60006020820190508181036000830152614d2f8161482e565b9050919050565b60006020820190508181036000830152614d4f81614851565b9050919050565b60006020820190508181036000830152614d6f81614874565b9050919050565b60006020820190508181036000830152614d8f81614897565b9050919050565b60006020820190508181036000830152614daf816148ba565b9050919050565b60006020820190508181036000830152614dcf816148dd565b9050919050565b60006020820190508181036000830152614def81614900565b9050919050565b60006020820190508181036000830152614e0f81614923565b9050919050565b60006020820190508181036000830152614e2f81614946565b9050919050565b60006020820190508181036000830152614e4f81614969565b9050919050565b60006020820190508181036000830152614e6f8161498c565b9050919050565b60006020820190508181036000830152614e8f816149af565b9050919050565b6000602082019050614eab6000830184614a98565b92915050565b600061010082019050614ec7600083018b614a98565b614ed4602083018a614606565b8181036040830152614ee68189614769565b90508181036060830152614efa8188614769565b9050614f096080830187614a98565b614f1660a0830186614a98565b614f2360c0830185614a98565b614f3060e0830184614a98565b9998505050505050505050565b6000604082019050614f526000830185614a98565b614f5f6020830184614a98565b9392505050565b6000614f70614f81565b9050614f7c82826152fd565b919050565b6000604051905090565b600067ffffffffffffffff821115614fa657614fa5615404565b5b602082029050602081019050919050565b600067ffffffffffffffff821115614fd257614fd1615404565b5b602082029050602081019050919050565b600067ffffffffffffffff821115614ffe57614ffd615404565b5b61500782615455565b9050602081019050919050565b600067ffffffffffffffff82111561502f5761502e615404565b5b61503882615455565b9050602081019050919050565b6000819050602082019050919050565b6000819050602082019050919050565b600081519050919050565b600081519050919050565b600081519050919050565b600081519050919050565b6000602082019050919050565b6000602082019050919050565b600082825260208201905092915050565b600082825260208201905092915050565b600082825260208201905092915050565b600082825260208201905092915050565b600082825260208201905092915050565b600061510b8261527f565b91506151168361527f565b9250827fffffffffffffffffffffffffffffffffffffffffffffffffffffffffffffffff0382111561514b5761514a615377565b5b828201905092915050565b60006151618261527f565b915061516c8361527f565b92508261517c5761517b6153a6565b5b828204905092915050565b60006151928261527f565b915061519d8361527f565b9250817fffffffffffffffffffffffffffffffffffffffffffffffffffffffffffffffff04831182151516156151d6576151d5615377565b5b828202905092915050565b60006151ec8261527f565b91506151f78361527f565b92508282101561520a57615209615377565b5b828203905092915050565b60006152208261525f565b9050919050565b60008115159050919050565b60007fffffffff0000000000000000000000000000000000000000000000000000000082169050919050565b600073ffffffffffffffffffffffffffffffffffffffff82169050919050565b6000819050919050565b82818337600083830152505050565b60005b838110156152b657808201518184015260208101905061529b565b838111156152c5576000848401525b50505050565b600060028204905060018216806152e357607f821691505b602082108114156152f7576152f66153d5565b5b50919050565b61530682615455565b810181811067ffffffffffffffff8211171561532557615324615404565b5b80604052505050565b60006153398261527f565b91507fffffffffffffffffffffffffffffffffffffffffffffffffffffffffffffffff82141561536c5761536b615377565b5b600182019050919050565b7f4e487b7100000000000000000000000000000000000000000000000000000000600052601160045260246000fd5b7f4e487b7100000000000000000000000000000000000000000000000000000000600052601260045260246000fd5b7f4e487b7100000000000000000000000000000000000000000000000000000000600052602260045260246000fd5b7f4e487b7100000000000000000000000000000000000000000000000000000000600052604160045260246000fd5b600060033d11156154525760046000803e61544f600051615466565b90505b90565b6000601f19601f8301169050919050565b60008160e01c9050919050565b7f455243313135353a207472616e7366657220746f206e6f6e204552433131353560008201527f526563656976657220696d706c656d656e746572000000000000000000000000602082015250565b7f455243313135353a204552433131353552656365697665722072656a6563746560008201527f6420746f6b656e73000000000000000000000000000000000000000000000000602082015250565b7f546f6b656e73206e6f7420617661696c61626c65000000000000000000000000600082015250565b7f455243313135353a2062616c616e636520717565727920666f7220746865207a60008201527f65726f2061646472657373000000000000000000000000000000000000000000602082015250565b7f4f776e61626c653a206e6577206f776e657220697320746865207a65726f206160008201527f6464726573730000000000000000000000000000000000000000000000000000602082015250565b7f6e6f7420657175616c20746f20746f6b656e27732076616c7565000000000000600082015250565b7f455243313135353a2063616c6c6572206973206e6f74206f776e6572206e6f7260008201527f20617070726f7665640000000000000000000000000000000000000000000000602082015250565b7f455243313135353a207472616e7366657220746f20746865207a65726f20616460008201527f6472657373000000000000000000000000000000000000000000000000000000602082015250565b7f455243313135353a207472616e736665722063616c6c6572206973206e6f742060008201527f6f776e6572206e6f7220617070726f7665640000000000000000000000000000602082015250565b7f455243313135353a20696e73756666696369656e742062616c616e636520666f60008201527f72207472616e7366657200000000000000000000000000000000000000000000602082015250565b7f4f776e61626c653a2063616c6c6572206973206e6f7420746865206f776e6572600082015250565b7f6d6178206f66203620546f6b656e73206f6e6c79000000000000000000000000600082015250565b7f455243313135353a2073657474696e6720617070726f76616c2073746174757360008201527f20666f722073656c660000000000000000000000000000000000000000000000602082015250565b7f455243313135353a206163636f756e747320616e6420696473206c656e67746860008201527f206d69736d617463680000000000000000000000000000000000000000000000602082015250565b7f455243313135353a2069647320616e6420616d6f756e7473206c656e6774682060008201527f6d69736d61746368000000000000000000000000000000000000000000000000602082015250565b7f455243313135353a206d696e7420746f20746865207a65726f2061646472657360008201527f7300000000000000000000000000000000000000000000000000000000000000602082015250565b600060443d10156158db5761595e565b6158e3614f81565b60043d036004823e80513d602482011167ffffffffffffffff8211171561590b57505061595e565b808201805167ffffffffffffffff811115615929575050505061595e565b80602083010160043d03850181111561594657505050505061595e565b615955826020018501866152fd565b82955050505050505b90565b61596a81615215565b811461597557600080fd5b50565b61598181615227565b811461598c57600080fd5b50565b61599881615233565b81146159a357600080fd5b50565b6159af8161527f565b81146159ba57600080fd5b5056fea2646970667358221220d65501c33d918e298ad1b4a2608282e91ad58b44d2333f34c8c958879fe34a9e64736f6c63430008030033",
  "linkReferences": {},
  "deployedLinkReferences": {}
}