{
  "_format": "hh-sol-artifact-1",
  "contractName": "CreatorNation",
  "sourceName": "contracts/NFT.sol",
  "abi": [
    {
      "inputs": [
        {
          "internalType": "string",
          "name": "collectionName",
          "type": "string"
        },
        {
          "internalType": "uint256",
          "name": "percent",
          "type": "uint256"
        }
      ],
      "stateMutability": "nonpayable",
      "type": "constructor"
    },
    {
      "anonymous": false,
      "inputs": [
        {
          "indexed": true,
          "internalType": "address",
          "name": "account",
          "type": "address"
        },
        {
          "indexed": true,
          "internalType": "address",
          "name": "operator",
          "type": "address"
        },
        {
          "indexed": false,
          "internalType": "bool",
          "name": "approved",
          "type": "bool"
        }
      ],
      "name": "ApprovalForAll",
      "type": "event"
    },
    {
      "anonymous": false,
      "inputs": [
        {
          "indexed": true,
          "internalType": "address",
          "name": "previousOwner",
          "type": "address"
        },
        {
          "indexed": true,
          "internalType": "address",
          "name": "newOwner",
          "type": "address"
        }
      ],
      "name": "OwnershipTransferred",
      "type": "event"
    },
    {
      "anonymous": false,
      "inputs": [
        {
          "indexed": true,
          "internalType": "address",
          "name": "operator",
          "type": "address"
        },
        {
          "indexed": true,
          "internalType": "address",
          "name": "from",
          "type": "address"
        },
        {
          "indexed": true,
          "internalType": "address",
          "name": "to",
          "type": "address"
        },
        {
          "indexed": false,
          "internalType": "uint256[]",
          "name": "ids",
          "type": "uint256[]"
        },
        {
          "indexed": false,
          "internalType": "uint256[]",
          "name": "values",
          "type": "uint256[]"
        }
      ],
      "name": "TransferBatch",
      "type": "event"
    },
    {
      "anonymous": false,
      "inputs": [
        {
          "indexed": true,
          "internalType": "address",
          "name": "operator",
          "type": "address"
        },
        {
          "indexed": true,
          "internalType": "address",
          "name": "from",
          "type": "address"
        },
        {
          "indexed": true,
          "internalType": "address",
          "name": "to",
          "type": "address"
        },
        {
          "indexed": false,
          "internalType": "uint256",
          "name": "id",
          "type": "uint256"
        },
        {
          "indexed": false,
          "internalType": "uint256",
          "name": "value",
          "type": "uint256"
        }
      ],
      "name": "TransferSingle",
      "type": "event"
    },
    {
      "anonymous": false,
      "inputs": [
        {
          "indexed": false,
          "internalType": "string",
          "name": "value",
          "type": "string"
        },
        {
          "indexed": true,
          "internalType": "uint256",
          "name": "id",
          "type": "uint256"
        }
      ],
      "name": "URI",
      "type": "event"
    },
    {
      "anonymous": false,
      "inputs": [
        {
          "indexed": false,
          "internalType": "address",
          "name": "minter",
          "type": "address"
        },
        {
          "indexed": false,
          "internalType": "string",
          "name": "tokenName",
          "type": "string"
        },
        {
          "indexed": false,
          "internalType": "uint256",
          "name": "tokenID",
          "type": "uint256"
        },
        {
          "indexed": false,
          "internalType": "uint256",
          "name": "cost",
          "type": "uint256"
        },
        {
          "indexed": false,
          "internalType": "uint256",
          "name": "totalSupply",
          "type": "uint256"
        }
      ],
      "name": "onMint",
      "type": "event"
    },
    {
      "inputs": [],
      "name": "_tokenIds",
      "outputs": [
        {
          "internalType": "uint256",
          "name": "_value",
          "type": "uint256"
        }
      ],
      "stateMutability": "view",
      "type": "function"
    },
    {
      "inputs": [
        {
          "internalType": "address",
          "name": "account",
          "type": "address"
        },
        {
          "internalType": "uint256",
          "name": "id",
          "type": "uint256"
        }
      ],
      "name": "balanceOf",
      "outputs": [
        {
          "internalType": "uint256",
          "name": "",
          "type": "uint256"
        }
      ],
      "stateMutability": "view",
      "type": "function"
    },
    {
      "inputs": [
        {
          "internalType": "address[]",
          "name": "accounts",
          "type": "address[]"
        },
        {
          "internalType": "uint256[]",
          "name": "ids",
          "type": "uint256[]"
        }
      ],
      "name": "balanceOfBatch",
      "outputs": [
        {
          "internalType": "uint256[]",
          "name": "",
          "type": "uint256[]"
        }
      ],
      "stateMutability": "view",
      "type": "function"
    },
    {
      "inputs": [
        {
          "internalType": "address",
          "name": "buyerAddress",
          "type": "address"
        },
        {
          "internalType": "uint256",
          "name": "_tokenId",
          "type": "uint256"
        },
        {
          "internalType": "uint256",
          "name": "_amount",
          "type": "uint256"
        }
      ],
      "name": "buyTokensFiat",
      "outputs": [
        {
          "internalType": "bool",
          "name": "",
          "type": "bool"
        }
      ],
      "stateMutability": "payable",
      "type": "function"
    },
    {
      "inputs": [
        {
          "internalType": "uint256",
          "name": "_tokenId",
          "type": "uint256"
        },
        {
          "internalType": "uint256",
          "name": "_amount",
          "type": "uint256"
        }
      ],
      "name": "buyTokensUsingCrypto",
      "outputs": [
        {
          "internalType": "bool",
          "name": "",
          "type": "bool"
        }
      ],
      "stateMutability": "payable",
      "type": "function"
    },
    {
      "inputs": [
        {
          "internalType": "address",
          "name": "",
          "type": "address"
        },
        {
          "internalType": "uint256",
          "name": "",
          "type": "uint256"
        }
      ],
      "name": "buyerToTokens",
      "outputs": [
        {
          "internalType": "uint256",
          "name": "id",
          "type": "uint256"
        },
        {
          "internalType": "address",
          "name": "creator",
          "type": "address"
        },
        {
          "internalType": "string",
          "name": "tokenName",
          "type": "string"
        },
        {
          "internalType": "string",
          "name": "mediaUrl",
          "type": "string"
        },
        {
          "internalType": "uint256",
          "name": "cost",
          "type": "uint256"
        },
        {
          "internalType": "uint256",
          "name": "amountAvailable",
          "type": "uint256"
        },
        {
          "internalType": "uint256",
          "name": "totalSupply",
          "type": "uint256"
        },
        {
          "internalType": "uint256",
          "name": "createdTime",
          "type": "uint256"
        }
      ],
      "stateMutability": "view",
      "type": "function"
    },
    {
      "inputs": [],
      "name": "contractURI",
      "outputs": [
        {
          "internalType": "string",
          "name": "",
          "type": "string"
        }
      ],
      "stateMutability": "pure",
      "type": "function"
    },
    {
      "inputs": [
        {
          "internalType": "address",
          "name": "",
          "type": "address"
        },
        {
          "internalType": "uint256",
          "name": "",
          "type": "uint256"
        }
      ],
      "name": "creatorTokens",
      "outputs": [
        {
          "internalType": "uint256",
          "name": "id",
          "type": "uint256"
        },
        {
          "internalType": "address",
          "name": "creator",
          "type": "address"
        },
        {
          "internalType": "string",
          "name": "tokenName",
          "type": "string"
        },
        {
          "internalType": "string",
          "name": "mediaUrl",
          "type": "string"
        },
        {
          "internalType": "uint256",
          "name": "cost",
          "type": "uint256"
        },
        {
          "internalType": "uint256",
          "name": "amountAvailable",
          "type": "uint256"
        },
        {
          "internalType": "uint256",
          "name": "totalSupply",
          "type": "uint256"
        },
        {
          "internalType": "uint256",
          "name": "createdTime",
          "type": "uint256"
        }
      ],
      "stateMutability": "view",
      "type": "function"
    },
    {
      "inputs": [],
      "name": "fetchAvailableNFTs",
      "outputs": [
        {
          "components": [
            {
              "internalType": "uint256",
              "name": "id",
              "type": "uint256"
            },
            {
              "internalType": "address",
              "name": "creator",
              "type": "address"
            },
            {
              "internalType": "string",
              "name": "tokenName",
              "type": "string"
            },
            {
              "internalType": "string",
              "name": "mediaUrl",
              "type": "string"
            },
            {
              "internalType": "uint256",
              "name": "cost",
              "type": "uint256"
            },
            {
              "internalType": "uint256",
              "name": "amountAvailable",
              "type": "uint256"
            },
            {
              "internalType": "uint256",
              "name": "totalSupply",
              "type": "uint256"
            },
            {
              "internalType": "uint256",
              "name": "createdTime",
              "type": "uint256"
            }
          ],
          "internalType": "struct CreatorNation.Token[]",
          "name": "itemList",
          "type": "tuple[]"
        }
      ],
      "stateMutability": "view",
      "type": "function"
    },
    {
      "inputs": [],
      "name": "fetchBoughtNFTs",
      "outputs": [
        {
          "components": [
            {
              "internalType": "uint256",
              "name": "id",
              "type": "uint256"
            },
            {
              "internalType": "address",
              "name": "creator",
              "type": "address"
            },
            {
              "internalType": "string",
              "name": "tokenName",
              "type": "string"
            },
            {
              "internalType": "string",
              "name": "mediaUrl",
              "type": "string"
            },
            {
              "internalType": "uint256",
              "name": "cost",
              "type": "uint256"
            },
            {
              "internalType": "uint256",
              "name": "amountAvailable",
              "type": "uint256"
            },
            {
              "internalType": "uint256",
              "name": "totalSupply",
              "type": "uint256"
            },
            {
              "internalType": "uint256",
              "name": "createdTime",
              "type": "uint256"
            }
          ],
          "internalType": "struct CreatorNation.Token[]",
          "name": "itemList",
          "type": "tuple[]"
        }
      ],
      "stateMutability": "view",
      "type": "function"
    },
    {
      "inputs": [],
      "name": "fetchCreatedNFTs",
      "outputs": [
        {
          "components": [
            {
              "internalType": "uint256",
              "name": "id",
              "type": "uint256"
            },
            {
              "internalType": "address",
              "name": "creator",
              "type": "address"
            },
            {
              "internalType": "string",
              "name": "tokenName",
              "type": "string"
            },
            {
              "internalType": "string",
              "name": "mediaUrl",
              "type": "string"
            },
            {
              "internalType": "uint256",
              "name": "cost",
              "type": "uint256"
            },
            {
              "internalType": "uint256",
              "name": "amountAvailable",
              "type": "uint256"
            },
            {
              "internalType": "uint256",
              "name": "totalSupply",
              "type": "uint256"
            },
            {
              "internalType": "uint256",
              "name": "createdTime",
              "type": "uint256"
            }
          ],
          "internalType": "struct CreatorNation.Token[]",
          "name": "itemList",
          "type": "tuple[]"
        }
      ],
      "stateMutability": "view",
      "type": "function"
    },
    {
      "inputs": [
        {
          "internalType": "uint256",
          "name": "",
          "type": "uint256"
        }
      ],
      "name": "idToToken",
      "outputs": [
        {
          "internalType": "uint256",
          "name": "id",
          "type": "uint256"
        },
        {
          "internalType": "address",
          "name": "creator",
          "type": "address"
        },
        {
          "internalType": "string",
          "name": "tokenName",
          "type": "string"
        },
        {
          "internalType": "string",
          "name": "mediaUrl",
          "type": "string"
        },
        {
          "internalType": "uint256",
          "name": "cost",
          "type": "uint256"
        },
        {
          "internalType": "uint256",
          "name": "amountAvailable",
          "type": "uint256"
        },
        {
          "internalType": "uint256",
          "name": "totalSupply",
          "type": "uint256"
        },
        {
          "internalType": "uint256",
          "name": "createdTime",
          "type": "uint256"
        }
      ],
      "stateMutability": "view",
      "type": "function"
    },
    {
      "inputs": [
        {
          "internalType": "address",
          "name": "account",
          "type": "address"
        },
        {
          "internalType": "address",
          "name": "operator",
          "type": "address"
        }
      ],
      "name": "isApprovedForAll",
      "outputs": [
        {
          "internalType": "bool",
          "name": "",
          "type": "bool"
        }
      ],
      "stateMutability": "view",
      "type": "function"
    },
    {
      "inputs": [
        {
          "internalType": "address",
          "name": "creatorAddress",
          "type": "address"
        },
        {
          "internalType": "string",
          "name": "tokenName",
          "type": "string"
        },
        {
          "internalType": "uint256",
          "name": "cost",
          "type": "uint256"
        },
        {
          "internalType": "uint256",
          "name": "total",
          "type": "uint256"
        },
        {
          "internalType": "string",
          "name": "uri",
          "type": "string"
        },
        {
          "internalType": "string",
          "name": "mediaUrl",
          "type": "string"
        }
      ],
      "name": "mint",
      "outputs": [
        {
          "internalType": "uint256",
          "name": "",
          "type": "uint256"
        }
      ],
      "stateMutability": "nonpayable",
      "type": "function"
    },
    {
      "inputs": [],
      "name": "name",
      "outputs": [
        {
          "internalType": "string",
          "name": "",
          "type": "string"
        }
      ],
      "stateMutability": "view",
      "type": "function"
    },
    {
      "inputs": [],
      "name": "owner",
      "outputs": [
        {
          "internalType": "address",
          "name": "",
          "type": "address"
        }
      ],
      "stateMutability": "view",
      "type": "function"
    },
    {
      "inputs": [],
      "name": "pool",
      "outputs": [
        {
          "internalType": "address",
          "name": "",
          "type": "address"
        }
      ],
      "stateMutability": "view",
      "type": "function"
    },
    {
      "inputs": [],
      "name": "renounceOwnership",
      "outputs": [],
      "stateMutability": "nonpayable",
      "type": "function"
    },
    {
      "inputs": [
        {
          "internalType": "address",
          "name": "from",
          "type": "address"
        },
        {
          "internalType": "address",
          "name": "to",
          "type": "address"
        },
        {
          "internalType": "uint256[]",
          "name": "ids",
          "type": "uint256[]"
        },
        {
          "internalType": "uint256[]",
          "name": "amounts",
          "type": "uint256[]"
        },
        {
          "internalType": "bytes",
          "name": "data",
          "type": "bytes"
        }
      ],
      "name": "safeBatchTransferFrom",
      "outputs": [],
      "stateMutability": "nonpayable",
      "type": "function"
    },
    {
      "inputs": [
        {
          "internalType": "address",
          "name": "from",
          "type": "address"
        },
        {
          "internalType": "address",
          "name": "to",
          "type": "address"
        },
        {
          "internalType": "uint256",
          "name": "id",
          "type": "uint256"
        },
        {
          "internalType": "uint256",
          "name": "amount",
          "type": "uint256"
        },
        {
          "internalType": "bytes",
          "name": "data",
          "type": "bytes"
        }
      ],
      "name": "safeTransferFrom",
      "outputs": [],
      "stateMutability": "nonpayable",
      "type": "function"
    },
    {
      "inputs": [
        {
          "internalType": "address",
          "name": "operator",
          "type": "address"
        },
        {
          "internalType": "bool",
          "name": "approved",
          "type": "bool"
        }
      ],
      "name": "setApprovalForAll",
      "outputs": [],
      "stateMutability": "nonpayable",
      "type": "function"
    },
    {
      "inputs": [
        {
          "internalType": "bytes4",
          "name": "interfaceId",
          "type": "bytes4"
        }
      ],
      "name": "supportsInterface",
      "outputs": [
        {
          "internalType": "bool",
          "name": "",
          "type": "bool"
        }
      ],
      "stateMutability": "view",
      "type": "function"
    },
    {
      "inputs": [
        {
          "internalType": "uint256",
          "name": "",
          "type": "uint256"
        }
      ],
      "name": "tokensAvailable",
      "outputs": [
        {
          "internalType": "uint256",
          "name": "",
          "type": "uint256"
        }
      ],
      "stateMutability": "view",
      "type": "function"
    },
    {
      "inputs": [
        {
          "internalType": "address",
          "name": "newOwner",
          "type": "address"
        }
      ],
      "name": "transferOwnership",
      "outputs": [],
      "stateMutability": "nonpayable",
      "type": "function"
    },
    {
      "inputs": [
        {
          "internalType": "uint256",
          "name": "",
          "type": "uint256"
        }
      ],
      "name": "uri",
      "outputs": [
        {
          "internalType": "string",
          "name": "",
          "type": "string"
        }
      ],
      "stateMutability": "view",
      "type": "function"
    }
  ],
  "bytecode": "0x60806040523480156200001157600080fd5b5060405162005ec338038062005ec3833981810160405281019062000037919062000333565b6040518060400160405280600e81526020017f43726561746f72204e6174696f6e0000000000000000000000000000000000008152506200007e816200011060201b60201c565b506200009f620000936200012c60201b60201c565b6200013460201b60201c565b60016004819055508160079080519060200190620000bf929190620001fa565b5033600660006101000a81548173ffffffffffffffffffffffffffffffffffffffff021916908373ffffffffffffffffffffffffffffffffffffffff16021790555080600a81905550505062000521565b806002908051906020019062000128929190620001fa565b5050565b600033905090565b6000600360009054906101000a900473ffffffffffffffffffffffffffffffffffffffff16905081600360006101000a81548173ffffffffffffffffffffffffffffffffffffffff021916908373ffffffffffffffffffffffffffffffffffffffff1602179055508173ffffffffffffffffffffffffffffffffffffffff168173ffffffffffffffffffffffffffffffffffffffff167f8be0079c531659141344cd1fd0a4f28419497f9722a3daafe3b4186f6b6457e060405160405180910390a35050565b82805462000208906200042c565b90600052602060002090601f0160209004810192826200022c576000855562000278565b82601f106200024757805160ff191683800117855562000278565b8280016001018555821562000278579182015b82811115620002775782518255916020019190600101906200025a565b5b5090506200028791906200028b565b5090565b5b80821115620002a65760008160009055506001016200028c565b5090565b6000620002c1620002bb84620003b6565b6200038d565b905082815260208101848484011115620002da57600080fd5b620002e7848285620003f6565b509392505050565b600082601f8301126200030157600080fd5b815162000313848260208601620002aa565b91505092915050565b6000815190506200032d8162000507565b92915050565b600080604083850312156200034757600080fd5b600083015167ffffffffffffffff8111156200036257600080fd5b6200037085828601620002ef565b925050602062000383858286016200031c565b9150509250929050565b600062000399620003ac565b9050620003a7828262000462565b919050565b6000604051905090565b600067ffffffffffffffff821115620003d457620003d3620004c7565b5b620003df82620004f6565b9050602081019050919050565b6000819050919050565b60005b8381101562000416578082015181840152602081019050620003f9565b8381111562000426576000848401525b50505050565b600060028204905060018216806200044557607f821691505b602082108114156200045c576200045b62000498565b5b50919050565b6200046d82620004f6565b810181811067ffffffffffffffff821117156200048f576200048e620004c7565b5b80604052505050565b7f4e487b7100000000000000000000000000000000000000000000000000000000600052602260045260246000fd5b7f4e487b7100000000000000000000000000000000000000000000000000000000600052604160045260246000fd5b6000601f19601f8301169050919050565b6200051281620003ec565b81146200051e57600080fd5b50565b61599280620005316000396000f3fe6080604052600436106101655760003560e01c80638da5cb5b116100d1578063be2a6ec01161008a578063e985e9c511610064578063e985e9c514610581578063f242432a146105be578063f2fde38b146105e7578063f5c6b96b1461061057610165565b8063be2a6ec0146104e7578063db3fa4cc14610512578063e8a3d4851461055657610165565b80638da5cb5b146103be5780639129b4ad146103e957806398ba621914610426578063a22cb46514610463578063aa46a4001461048c578063bd557ab9146104b757610165565b806327f03c3c1161012357806327f03c3c146102a25780632d89c435146102d25780632eb2c2d6146102fd5780634e1273f4146103265780637019c1f914610363578063715018a6146103a757610165565b8062fdd58e1461016a57806301ffc9a7146101a757806306fdde03146101e45780630e89341c1461020f57806316f0115b1461024c57806318474cea14610277575b600080fd5b34801561017657600080fd5b50610191600480360381019061018c91906143bc565b610654565b60405161019e9190614e35565b60405180910390f35b3480156101b357600080fd5b506101ce60048036038101906101c991906144b3565b61071d565b6040516101db9190614bf8565b60405180910390f35b3480156101f057600080fd5b506101f96107ff565b6040516102069190614c13565b60405180910390f35b34801561021b57600080fd5b5061023660048036038101906102319190614505565b61088d565b6040516102439190614c13565b60405180910390f35b34801561025857600080fd5b50610261610921565b60405161026e9190614a46565b60405180910390f35b34801561028357600080fd5b5061028c610947565b6040516102999190614b7d565b60405180910390f35b6102bc60048036038101906102b7919061452e565b610d29565b6040516102c99190614bf8565b60405180910390f35b3480156102de57600080fd5b506102e7611165565b6040516102f49190614b7d565b60405180910390f35b34801561030957600080fd5b50610324600480360381019061031f9190614161565b61152c565b005b34801561033257600080fd5b5061034d60048036038101906103489190614447565b6115cd565b60405161035a9190614b9f565b60405180910390f35b34801561036f57600080fd5b5061038a600480360381019061038591906143bc565b61177e565b60405161039e989796959493929190614e50565b60405180910390f35b3480156103b357600080fd5b506103bc611913565b005b3480156103ca57600080fd5b506103d361199b565b6040516103e09190614a46565b60405180910390f35b3480156103f557600080fd5b50610410600480360381019061040b91906142eb565b6119c5565b60405161041d9190614e35565b60405180910390f35b34801561043257600080fd5b5061044d60048036038101906104489190614505565b611d65565b60405161045a9190614e35565b60405180910390f35b34801561046f57600080fd5b5061048a600480360381019061048591906142af565b611d7d565b005b34801561049857600080fd5b506104a1611efe565b6040516104ae9190614e35565b60405180910390f35b6104d160048036038101906104cc91906143f8565b611f0a565b6040516104de9190614bf8565b60405180910390f35b3480156104f357600080fd5b506104fc612265565b6040516105099190614b7d565b60405180910390f35b34801561051e57600080fd5b50610539600480360381019061053491906143bc565b6125e4565b60405161054d989796959493929190614e50565b60405180910390f35b34801561056257600080fd5b5061056b612779565b6040516105789190614c13565b60405180910390f35b34801561058d57600080fd5b506105a860048036038101906105a39190614125565b6127b6565b6040516105b59190614bf8565b60405180910390f35b3480156105ca57600080fd5b506105e560048036038101906105e09190614220565b61284a565b005b3480156105f357600080fd5b5061060e600480360381019061060991906140fc565b6128eb565b005b34801561061c57600080fd5b5061063760048036038101906106329190614505565b6129e3565b60405161064b989796959493929190614e50565b60405180910390f35b60008073ffffffffffffffffffffffffffffffffffffffff168373ffffffffffffffffffffffffffffffffffffffff1614156106c5576040517f08c379a00000000000000000000000000000000000000000000000000000000081526004016106bc90614c95565b60405180910390fd5b60008083815260200190815260200160002060008473ffffffffffffffffffffffffffffffffffffffff1673ffffffffffffffffffffffffffffffffffffffff16815260200190815260200160002054905092915050565b60007fd9b67a26000000000000000000000000000000000000000000000000000000007bffffffffffffffffffffffffffffffffffffffffffffffffffffffff1916827bffffffffffffffffffffffffffffffffffffffffffffffffffffffff191614806107e857507f0e89341c000000000000000000000000000000000000000000000000000000007bffffffffffffffffffffffffffffffffffffffffffffffffffffffff1916827bffffffffffffffffffffffffffffffffffffffffffffffffffffffff1916145b806107f857506107f782612b5b565b5b9050919050565b6007805461080c9061526a565b80601f01602080910402602001604051908101604052809291908181526020018280546108389061526a565b80156108855780601f1061085a57610100808354040283529160200191610885565b820191906000526020600020905b81548152906001019060200180831161086857829003601f168201915b505050505081565b60606002805461089c9061526a565b80601f01602080910402602001604051908101604052809291908181526020018280546108c89061526a565b80156109155780601f106108ea57610100808354040283529160200191610915565b820191906000526020600020905b8154815290600101906020018083116108f857829003601f168201915b50505050509050919050565b600660009054906101000a900473ffffffffffffffffffffffffffffffffffffffff1681565b606060003390506000600c60008373ffffffffffffffffffffffffffffffffffffffff1673ffffffffffffffffffffffffffffffffffffffff168152602001908152602001600020805490501115610d24576000600c60008373ffffffffffffffffffffffffffffffffffffffff1673ffffffffffffffffffffffffffffffffffffffff1681526020019081526020016000208054905090506000808267ffffffffffffffff811115610a23577f4e487b7100000000000000000000000000000000000000000000000000000000600052604160045260246000fd5b604051908082528060200260200182016040528015610a5c57816020015b610a49613d99565b815260200190600190039081610a415790505b50905060005b83811015610d1757600c60008673ffffffffffffffffffffffffffffffffffffffff1673ffffffffffffffffffffffffffffffffffffffff1681526020019081526020016000208181548110610ae1577f4e487b7100000000000000000000000000000000000000000000000000000000600052603260045260246000fd5b9060005260206000209060080201600001549250600b600084815260200190815260200160002060405180610100016040529081600082015481526020016001820160009054906101000a900473ffffffffffffffffffffffffffffffffffffffff1673ffffffffffffffffffffffffffffffffffffffff1673ffffffffffffffffffffffffffffffffffffffff168152602001600282018054610b849061526a565b80601f0160208091040260200160405190810160405280929190818152602001828054610bb09061526a565b8015610bfd5780601f10610bd257610100808354040283529160200191610bfd565b820191906000526020600020905b815481529060010190602001808311610be057829003601f168201915b50505050508152602001600382018054610c169061526a565b80601f0160208091040260200160405190810160405280929190818152602001828054610c429061526a565b8015610c8f5780601f10610c6457610100808354040283529160200191610c8f565b820191906000526020600020905b815481529060010190602001808311610c7257829003601f168201915b50505050508152602001600482015481526020016005820154815260200160068201548152602001600782015481525050828281518110610cf9577f4e487b7100000000000000000000000000000000000000000000000000000000600052603260045260246000fd5b60200260200101819052508080610d0f906152cd565b915050610a62565b5080945050505050610d26565b505b90565b600081600b600085815260200190815260200160002060040154610d4d9190615126565b341015610d8f576040517f08c379a0000000000000000000000000000000000000000000000000000000008152600401610d8690614cd5565b60405180910390fd5b6000600860008581526020019081526020016000205490506000600b600086815260200190815260200160002060010160009054906101000a900473ffffffffffffffffffffffffffffffffffffffff16905081841115610e25576040517f08c379a0000000000000000000000000000000000000000000000000000000008152600401610e1c90614c75565b60405180910390fd5b60006064600a546064610e389190615180565b34610e439190615126565b610e4d91906150f5565b905060006064600a5434610e619190615126565b610e6b91906150f5565b90508273ffffffffffffffffffffffffffffffffffffffff166108fc839081150290604051600060405180830381858888f19350505050158015610eb3573d6000803e3d6000fd5b50600660009054906101000a900473ffffffffffffffffffffffffffffffffffffffff1673ffffffffffffffffffffffffffffffffffffffff166108fc829081150290604051600060405180830381858888f19350505050158015610f1c573d6000803e3d6000fd5b5085600860008981526020019081526020016000206000828254610f409190615180565b9250508190555085600b60008981526020019081526020016000206005016000828254610f6d9190615180565b9250508190555060006040518061010001604052808981526020018573ffffffffffffffffffffffffffffffffffffffff168152602001600b60008b81526020019081526020016000206002018054610fc59061526a565b80601f0160208091040260200160405190810160405280929190818152602001828054610ff19061526a565b801561103e5780601f106110135761010080835404028352916020019161103e565b820191906000526020600020905b81548152906001019060200180831161102157829003601f168201915b50505050508152602001600b60008b815260200190815260200160002060030180546110699061526a565b80601f01602080910402602001604051908101604052809291908181526020018280546110959061526a565b80156110e25780601f106110b7576101008083540402835291602001916110e2565b820191906000526020600020905b8154815290600101906020018083116110c557829003601f168201915b50505050508152602001600b60008b8152602001908152602001600020600401548152602001888152602001600b60008b815260200190815260200160002060060154815260200142815250905061113a8133612bc5565b61115684338a8a60405180602001604052806000815250613066565b60019550505050505092915050565b606060003390506000600960008373ffffffffffffffffffffffffffffffffffffffff1673ffffffffffffffffffffffffffffffffffffffff168152602001908152602001600020805490501115611527576000600960008373ffffffffffffffffffffffffffffffffffffffff1673ffffffffffffffffffffffffffffffffffffffff16815260200190815260200160002080549050905060008167ffffffffffffffff811115611240577f4e487b7100000000000000000000000000000000000000000000000000000000600052604160045260246000fd5b60405190808252806020026020018201604052801561127957816020015b611266613d99565b81526020019060019003908161125e5790505b50905060005b8281101561151b57600960008573ffffffffffffffffffffffffffffffffffffffff1673ffffffffffffffffffffffffffffffffffffffff16815260200190815260200160002081815481106112fe577f4e487b7100000000000000000000000000000000000000000000000000000000600052603260045260246000fd5b906000526020600020906008020160405180610100016040529081600082015481526020016001820160009054906101000a900473ffffffffffffffffffffffffffffffffffffffff1673ffffffffffffffffffffffffffffffffffffffff1673ffffffffffffffffffffffffffffffffffffffff1681526020016002820180546113889061526a565b80601f01602080910402602001604051908101604052809291908181526020018280546113b49061526a565b80156114015780601f106113d657610100808354040283529160200191611401565b820191906000526020600020905b8154815290600101906020018083116113e457829003601f168201915b5050505050815260200160038201805461141a9061526a565b80601f01602080910402602001604051908101604052809291908181526020018280546114469061526a565b80156114935780601f1061146857610100808354040283529160200191611493565b820191906000526020600020905b81548152906001019060200180831161147657829003601f168201915b505050505081526020016004820154815260200160058201548152602001600682015481526020016007820154815250508282815181106114fd577f4e487b7100000000000000000000000000000000000000000000000000000000600052603260045260246000fd5b60200260200101819052508080611513906152cd565b91505061127f565b50809350505050611529565b505b90565b6115346132e8565b73ffffffffffffffffffffffffffffffffffffffff168573ffffffffffffffffffffffffffffffffffffffff16148061157a5750611579856115746132e8565b6127b6565b5b6115b9576040517f08c379a00000000000000000000000000000000000000000000000000000000081526004016115b090614d35565b60405180910390fd5b6115c685858585856132f0565b5050505050565b60608151835114611613576040517f08c379a000000000000000000000000000000000000000000000000000000000815260040161160a90614dd5565b60405180910390fd5b6000835167ffffffffffffffff811115611656577f4e487b7100000000000000000000000000000000000000000000000000000000600052604160045260246000fd5b6040519080825280602002602001820160405280156116845781602001602082028036833780820191505090505b50905060005b84518110156117735761171d8582815181106116cf577f4e487b7100000000000000000000000000000000000000000000000000000000600052603260045260246000fd5b6020026020010151858381518110611710577f4e487b7100000000000000000000000000000000000000000000000000000000600052603260045260246000fd5b6020026020010151610654565b828281518110611756577f4e487b7100000000000000000000000000000000000000000000000000000000600052603260045260246000fd5b6020026020010181815250508061176c906152cd565b905061168a565b508091505092915050565b6009602052816000526040600020818154811061179a57600080fd5b9060005260206000209060080201600091509150508060000154908060010160009054906101000a900473ffffffffffffffffffffffffffffffffffffffff16908060020180546117ea9061526a565b80601f01602080910402602001604051908101604052809291908181526020018280546118169061526a565b80156118635780601f1061183857610100808354040283529160200191611863565b820191906000526020600020905b81548152906001019060200180831161184657829003601f168201915b5050505050908060030180546118789061526a565b80601f01602080910402602001604051908101604052809291908181526020018280546118a49061526a565b80156118f15780601f106118c6576101008083540402835291602001916118f1565b820191906000526020600020905b8154815290600101906020018083116118d457829003601f168201915b5050505050908060040154908060050154908060060154908060070154905088565b61191b6132e8565b73ffffffffffffffffffffffffffffffffffffffff1661193961199b565b73ffffffffffffffffffffffffffffffffffffffff161461198f576040517f08c379a000000000000000000000000000000000000000000000000000000000815260040161198690614d75565b60405180910390fd5b6119996000613650565b565b6000600360009054906101000a900473ffffffffffffffffffffffffffffffffffffffff16905090565b60006006600c60008973ffffffffffffffffffffffffffffffffffffffff1673ffffffffffffffffffffffffffffffffffffffff1681526020019081526020016000208054905010611a4c576040517f08c379a0000000000000000000000000000000000000000000000000000000008152600401611a4390614d95565b60405180910390fd5b611a54613d99565b6040518061010001604052806001611a6c6005613716565b611a76919061509f565b81526020018973ffffffffffffffffffffffffffffffffffffffff16815260200188815260200184815260200187815260200186815260200186815260200142815250905080600b60006001611acc6005613716565b611ad6919061509f565b81526020019081526020016000206000820151816000015560208201518160010160006101000a81548173ffffffffffffffffffffffffffffffffffffffff021916908373ffffffffffffffffffffffffffffffffffffffff1602179055506040820151816002019080519060200190611b51929190613df4565b506060820151816003019080519060200190611b6e929190613df4565b506080820151816004015560a0820151816005015560c0820151816006015560e08201518160070155905050600c60008973ffffffffffffffffffffffffffffffffffffffff1673ffffffffffffffffffffffffffffffffffffffff1681526020019081526020016000208190806001815401808255809150506001900390600052602060002090600802016000909190919091506000820151816000015560208201518160010160006101000a81548173ffffffffffffffffffffffffffffffffffffffff021916908373ffffffffffffffffffffffffffffffffffffffff1602179055506040820151816002019080519060200190611c70929190613df4565b506060820151816003019080519060200190611c8d929190613df4565b506080820151816004015560a0820151816005015560c0820151816006015560e082015181600701555050611cc184613724565b611ccb600561373e565b6000611cd76005613716565b9050611cf489828860405180602001604052806000815250613754565b611cff306001611d7d565b8560086000838152602001908152602001600020819055507fd33a29693b0c1e4497bd99a5d678d78d400627b434590d51b4961816620b20a63389838a8a604051611d4e959493929190614b23565b60405180910390a180925050509695505050505050565b60086020528060005260406000206000915090505481565b8173ffffffffffffffffffffffffffffffffffffffff16611d9c6132e8565b73ffffffffffffffffffffffffffffffffffffffff161415611df3576040517f08c379a0000000000000000000000000000000000000000000000000000000008152600401611dea90614db5565b60405180910390fd5b8060016000611e006132e8565b73ffffffffffffffffffffffffffffffffffffffff1673ffffffffffffffffffffffffffffffffffffffff16815260200190815260200160002060008473ffffffffffffffffffffffffffffffffffffffff1673ffffffffffffffffffffffffffffffffffffffff16815260200190815260200160002060006101000a81548160ff0219169083151502179055508173ffffffffffffffffffffffffffffffffffffffff16611ead6132e8565b73ffffffffffffffffffffffffffffffffffffffff167f17307eab39ab6107e8899845ad3d59bd9653f200f220920489ca2b5937696c3183604051611ef29190614bf8565b60405180910390a35050565b60058060000154905081565b6000611f146132e8565b73ffffffffffffffffffffffffffffffffffffffff16611f3261199b565b73ffffffffffffffffffffffffffffffffffffffff1614611f88576040517f08c379a0000000000000000000000000000000000000000000000000000000008152600401611f7f90614d75565b60405180910390fd5b6000600860008581526020019081526020016000205490506000600b600086815260200190815260200160002060010160009054906101000a900473ffffffffffffffffffffffffffffffffffffffff1690508184111561201e576040517f08c379a000000000000000000000000000000000000000000000000000000000815260040161201590614c75565b60405180910390fd5b836008600087815260200190815260200160002060008282546120419190615180565b9250508190555083600b6000878152602001908152602001600020600501600082825461206e9190615180565b9250508190555060006040518061010001604052808781526020018373ffffffffffffffffffffffffffffffffffffffff168152602001600b600089815260200190815260200160002060020180546120c69061526a565b80601f01602080910402602001604051908101604052809291908181526020018280546120f29061526a565b801561213f5780601f106121145761010080835404028352916020019161213f565b820191906000526020600020905b81548152906001019060200180831161212257829003601f168201915b50505050508152602001600b6000898152602001908152602001600020600301805461216a9061526a565b80601f01602080910402602001604051908101604052809291908181526020018280546121969061526a565b80156121e35780601f106121b8576101008083540402835291602001916121e3565b820191906000526020600020905b8154815290600101906020018083116121c657829003601f168201915b50505050508152602001600b6000898152602001908152602001600020600401548152602001868152602001600b600089815260200190815260200160002060060154815260200142815250905061223b8188612bc5565b6122578288888860405180602001604052806000815250613066565b600193505050509392505050565b60608060006122746005613716565b141561228357809150506125e1565b600080600190505b6122956005613716565b81116122dd576000600b60008381526020019081526020016000206005015411156122ca576001826122c7919061509f565b91505b80806122d5906152cd565b91505061228b565b5060018110156122f15781925050506125e1565b6000808267ffffffffffffffff811115612334577f4e487b7100000000000000000000000000000000000000000000000000000000600052604160045260246000fd5b60405190808252806020026020018201604052801561236d57816020015b61235a613d99565b8152602001906001900390816123525790505b5090506000600190505b6123816005613716565b81116125d8576000600b60008381526020019081526020016000206005015411156125c557600b600082815260200190815260200160002060405180610100016040529081600082015481526020016001820160009054906101000a900473ffffffffffffffffffffffffffffffffffffffff1673ffffffffffffffffffffffffffffffffffffffff1673ffffffffffffffffffffffffffffffffffffffff1681526020016002820180546124359061526a565b80601f01602080910402602001604051908101604052809291908181526020018280546124619061526a565b80156124ae5780601f10612483576101008083540402835291602001916124ae565b820191906000526020600020905b81548152906001019060200180831161249157829003601f168201915b505050505081526020016003820180546124c79061526a565b80601f01602080910402602001604051908101604052809291908181526020018280546124f39061526a565b80156125405780601f1061251557610100808354040283529160200191612540565b820191906000526020600020905b81548152906001019060200180831161252357829003601f168201915b505050505081526020016004820154815260200160058201548152602001600682015481526020016007820154815250508284815181106125aa577f4e487b7100000000000000000000000000000000000000000000000000000000600052603260045260246000fd5b60200260200101819052506001836125c2919061509f565b92505b80806125d0906152cd565b915050612377565b50809450505050505b90565b600c602052816000526040600020818154811061260057600080fd5b9060005260206000209060080201600091509150508060000154908060010160009054906101000a900473ffffffffffffffffffffffffffffffffffffffff16908060020180546126509061526a565b80601f016020809104026020016040519081016040528092919081815260200182805461267c9061526a565b80156126c95780601f1061269e576101008083540402835291602001916126c9565b820191906000526020600020905b8154815290600101906020018083116126ac57829003601f168201915b5050505050908060030180546126de9061526a565b80601f016020809104026020016040519081016040528092919081815260200182805461270a9061526a565b80156127575780601f1061272c57610100808354040283529160200191612757565b820191906000526020600020905b81548152906001019060200180831161273a57829003601f168201915b5050505050908060040154908060050154908060060154908060070154905088565b60606040518060400160405280601d81526020017f68747470733a2f2f6a736f6e6b65657065722e636f6d2f622f4f4a4f43000000815250905090565b6000600160008473ffffffffffffffffffffffffffffffffffffffff1673ffffffffffffffffffffffffffffffffffffffff16815260200190815260200160002060008373ffffffffffffffffffffffffffffffffffffffff1673ffffffffffffffffffffffffffffffffffffffff16815260200190815260200160002060009054906101000a900460ff16905092915050565b6128526132e8565b73ffffffffffffffffffffffffffffffffffffffff168573ffffffffffffffffffffffffffffffffffffffff1614806128985750612897856128926132e8565b6127b6565b5b6128d7576040517f08c379a00000000000000000000000000000000000000000000000000000000081526004016128ce90614cf5565b60405180910390fd5b6128e48585858585613066565b5050505050565b6128f36132e8565b73ffffffffffffffffffffffffffffffffffffffff1661291161199b565b73ffffffffffffffffffffffffffffffffffffffff1614612967576040517f08c379a000000000000000000000000000000000000000000000000000000000815260040161295e90614d75565b60405180910390fd5b600073ffffffffffffffffffffffffffffffffffffffff168173ffffffffffffffffffffffffffffffffffffffff1614156129d7576040517f08c379a00000000000000000000000000000000000000000000000000000000081526004016129ce90614cb5565b60405180910390fd5b6129e081613650565b50565b600b6020528060005260406000206000915090508060000154908060010160009054906101000a900473ffffffffffffffffffffffffffffffffffffffff1690806002018054612a329061526a565b80601f0160208091040260200160405190810160405280929190818152602001828054612a5e9061526a565b8015612aab5780601f10612a8057610100808354040283529160200191612aab565b820191906000526020600020905b815481529060010190602001808311612a8e57829003601f168201915b505050505090806003018054612ac09061526a565b80601f0160208091040260200160405190810160405280929190818152602001828054612aec9061526a565b8015612b395780601f10612b0e57610100808354040283529160200191612b39565b820191906000526020600020905b815481529060010190602001808311612b1c57829003601f168201915b5050505050908060040154908060050154908060060154908060070154905088565b60007f01ffc9a7000000000000000000000000000000000000000000000000000000007bffffffffffffffffffffffffffffffffffffffffffffffffffffffff1916827bffffffffffffffffffffffffffffffffffffffffffffffffffffffff1916149050919050565b6000600960008373ffffffffffffffffffffffffffffffffffffffff1673ffffffffffffffffffffffffffffffffffffffff168152602001908152602001600020805490501415612d3357600960008273ffffffffffffffffffffffffffffffffffffffff1673ffffffffffffffffffffffffffffffffffffffff1681526020019081526020016000208290806001815401808255809150506001900390600052602060002090600802016000909190919091506000820151816000015560208201518160010160006101000a81548173ffffffffffffffffffffffffffffffffffffffff021916908373ffffffffffffffffffffffffffffffffffffffff1602179055506040820151816002019080519060200190612ce6929190613df4565b506060820151816003019080519060200190612d03929190613df4565b506080820151816004015560a0820151816005015560c0820151816006015560e082015181600701555050613062565b6000600960008373ffffffffffffffffffffffffffffffffffffffff1673ffffffffffffffffffffffffffffffffffffffff1681526020019081526020016000208054905011156130615760008260000151905060008360a001519050600080600090505b600960008673ffffffffffffffffffffffffffffffffffffffff1673ffffffffffffffffffffffffffffffffffffffff16815260200190815260200160002080549050811015612f345783600960008773ffffffffffffffffffffffffffffffffffffffff1673ffffffffffffffffffffffffffffffffffffffff1681526020019081526020016000208281548110612e5a577f4e487b7100000000000000000000000000000000000000000000000000000000600052603260045260246000fd5b9060005260206000209060080201600001541415612f2157600182612e7f919061509f565b915082600960008773ffffffffffffffffffffffffffffffffffffffff1673ffffffffffffffffffffffffffffffffffffffff1681526020019081526020016000208281548110612ef9577f4e487b7100000000000000000000000000000000000000000000000000000000600052603260045260246000fd5b90600052602060002090600802016005016000828254612f19919061509f565b925050819055505b8080612f2c906152cd565b915050612d98565b50600081141561305d57600960008573ffffffffffffffffffffffffffffffffffffffff1673ffffffffffffffffffffffffffffffffffffffff1681526020019081526020016000208590806001815401808255809150506001900390600052602060002090600802016000909190919091506000820151816000015560208201518160010160006101000a81548173ffffffffffffffffffffffffffffffffffffffff021916908373ffffffffffffffffffffffffffffffffffffffff1602179055506040820151816002019080519060200190613014929190613df4565b506060820151816003019080519060200190613031929190613df4565b506080820151816004015560a0820151816005015560c0820151816006015560e0820151816007015550505b5050505b5b5050565b600073ffffffffffffffffffffffffffffffffffffffff168473ffffffffffffffffffffffffffffffffffffffff1614156130d6576040517f08c379a00000000000000000000000000000000000000000000000000000000081526004016130cd90614d15565b60405180910390fd5b60006130e06132e8565b90506131008187876130f1886138ea565b6130fa886138ea565b876139b0565b600080600086815260200190815260200160002060008873ffffffffffffffffffffffffffffffffffffffff1673ffffffffffffffffffffffffffffffffffffffff16815260200190815260200160002054905083811015613197576040517f08c379a000000000000000000000000000000000000000000000000000000000815260040161318e90614d55565b60405180910390fd5b83810360008087815260200190815260200160002060008973ffffffffffffffffffffffffffffffffffffffff1673ffffffffffffffffffffffffffffffffffffffff168152602001908152602001600020819055508360008087815260200190815260200160002060008873ffffffffffffffffffffffffffffffffffffffff1673ffffffffffffffffffffffffffffffffffffffff168152602001908152602001600020600082825461324c919061509f565b925050819055508573ffffffffffffffffffffffffffffffffffffffff168773ffffffffffffffffffffffffffffffffffffffff168373ffffffffffffffffffffffffffffffffffffffff167fc3d58168c5ae7397731d063d5bbf3d657854427343f4c083240f7aacaa2d0f6288886040516132c9929190614edc565b60405180910390a46132df8288888888886139b8565b50505050505050565b600033905090565b8151835114613334576040517f08c379a000000000000000000000000000000000000000000000000000000000815260040161332b90614df5565b60405180910390fd5b600073ffffffffffffffffffffffffffffffffffffffff168473ffffffffffffffffffffffffffffffffffffffff1614156133a4576040517f08c379a000000000000000000000000000000000000000000000000000000000815260040161339b90614d15565b60405180910390fd5b60006133ae6132e8565b90506133be8187878787876139b0565b60005b84518110156135bb576000858281518110613405577f4e487b7100000000000000000000000000000000000000000000000000000000600052603260045260246000fd5b60200260200101519050600085838151811061344a577f4e487b7100000000000000000000000000000000000000000000000000000000600052603260045260246000fd5b60200260200101519050600080600084815260200190815260200160002060008b73ffffffffffffffffffffffffffffffffffffffff1673ffffffffffffffffffffffffffffffffffffffff168152602001908152602001600020549050818110156134eb576040517f08c379a00000000000000000000000000000000000000000000000000000000081526004016134e290614d55565b60405180910390fd5b81810360008085815260200190815260200160002060008c73ffffffffffffffffffffffffffffffffffffffff1673ffffffffffffffffffffffffffffffffffffffff168152602001908152602001600020819055508160008085815260200190815260200160002060008b73ffffffffffffffffffffffffffffffffffffffff1673ffffffffffffffffffffffffffffffffffffffff16815260200190815260200160002060008282546135a0919061509f565b92505081905550505050806135b4906152cd565b90506133c1565b508473ffffffffffffffffffffffffffffffffffffffff168673ffffffffffffffffffffffffffffffffffffffff168273ffffffffffffffffffffffffffffffffffffffff167f4a39dc06d4c0dbc64b70af90fd698a233a518aa5d07e595d983b8c0526c8f7fb8787604051613632929190614bc1565b60405180910390a4613648818787878787613b9f565b505050505050565b6000600360009054906101000a900473ffffffffffffffffffffffffffffffffffffffff16905081600360006101000a81548173ffffffffffffffffffffffffffffffffffffffff021916908373ffffffffffffffffffffffffffffffffffffffff1602179055508173ffffffffffffffffffffffffffffffffffffffff168173ffffffffffffffffffffffffffffffffffffffff167f8be0079c531659141344cd1fd0a4f28419497f9722a3daafe3b4186f6b6457e060405160405180910390a35050565b600081600001549050919050565b806002908051906020019061373a929190613df4565b5050565b6001816000016000828254019250508190555050565b600073ffffffffffffffffffffffffffffffffffffffff168473ffffffffffffffffffffffffffffffffffffffff1614156137c4576040517f08c379a00000000000000000000000000000000000000000000000000000000081526004016137bb90614e15565b60405180910390fd5b60006137ce6132e8565b90506137ef816000876137e0886138ea565b6137e9886138ea565b876139b0565b8260008086815260200190815260200160002060008773ffffffffffffffffffffffffffffffffffffffff1673ffffffffffffffffffffffffffffffffffffffff168152602001908152602001600020600082825461384e919061509f565b925050819055508473ffffffffffffffffffffffffffffffffffffffff16600073ffffffffffffffffffffffffffffffffffffffff168273ffffffffffffffffffffffffffffffffffffffff167fc3d58168c5ae7397731d063d5bbf3d657854427343f4c083240f7aacaa2d0f6287876040516138cc929190614edc565b60405180910390a46138e3816000878787876139b8565b5050505050565b60606000600167ffffffffffffffff81111561392f577f4e487b7100000000000000000000000000000000000000000000000000000000600052604160045260246000fd5b60405190808252806020026020018201604052801561395d5781602001602082028036833780820191505090505b509050828160008151811061399b577f4e487b7100000000000000000000000000000000000000000000000000000000600052603260045260246000fd5b60200260200101818152505080915050919050565b505050505050565b6139d78473ffffffffffffffffffffffffffffffffffffffff16613d86565b15613b97578373ffffffffffffffffffffffffffffffffffffffff1663f23a6e6187878686866040518663ffffffff1660e01b8152600401613a1d959493929190614ac9565b602060405180830381600087803b158015613a3757600080fd5b505af1925050508015613a6857506040513d601f19601f82011682018060405250810190613a6591906144dc565b60015b613b0e57613a746153d2565b806308c379a01415613ad15750613a8961586a565b80613a945750613ad3565b806040517f08c379a0000000000000000000000000000000000000000000000000000000008152600401613ac89190614c13565b60405180910390fd5b505b6040517f08c379a0000000000000000000000000000000000000000000000000000000008152600401613b0590614c35565b60405180910390fd5b63f23a6e6160e01b7bffffffffffffffffffffffffffffffffffffffffffffffffffffffff1916817bffffffffffffffffffffffffffffffffffffffffffffffffffffffff191614613b95576040517f08c379a0000000000000000000000000000000000000000000000000000000008152600401613b8c90614c55565b60405180910390fd5b505b505050505050565b613bbe8473ffffffffffffffffffffffffffffffffffffffff16613d86565b15613d7e578373ffffffffffffffffffffffffffffffffffffffff1663bc197c8187878686866040518663ffffffff1660e01b8152600401613c04959493929190614a61565b602060405180830381600087803b158015613c1e57600080fd5b505af1925050508015613c4f57506040513d601f19601f82011682018060405250810190613c4c91906144dc565b60015b613cf557613c5b6153d2565b806308c379a01415613cb85750613c7061586a565b80613c7b5750613cba565b806040517f08c379a0000000000000000000000000000000000000000000000000000000008152600401613caf9190614c13565b60405180910390fd5b505b6040517f08c379a0000000000000000000000000000000000000000000000000000000008152600401613cec90614c35565b60405180910390fd5b63bc197c8160e01b7bffffffffffffffffffffffffffffffffffffffffffffffffffffffff1916817bffffffffffffffffffffffffffffffffffffffffffffffffffffffff191614613d7c576040517f08c379a0000000000000000000000000000000000000000000000000000000008152600401613d7390614c55565b60405180910390fd5b505b505050505050565b600080823b905060008111915050919050565b60405180610100016040528060008152602001600073ffffffffffffffffffffffffffffffffffffffff1681526020016060815260200160608152602001600081526020016000815260200160008152602001600081525090565b828054613e009061526a565b90600052602060002090601f016020900481019282613e225760008555613e69565b82601f10613e3b57805160ff1916838001178555613e69565b82800160010185558215613e69579182015b82811115613e68578251825591602001919060010190613e4d565b5b509050613e769190613e7a565b5090565b5b80821115613e93576000816000905550600101613e7b565b5090565b6000613eaa613ea584614f2a565b614f05565b90508083825260208201905082856020860282011115613ec957600080fd5b60005b85811015613ef95781613edf8882613feb565b845260208401935060208301925050600181019050613ecc565b5050509392505050565b6000613f16613f1184614f56565b614f05565b90508083825260208201905082856020860282011115613f3557600080fd5b60005b85811015613f655781613f4b88826140e7565b845260208401935060208301925050600181019050613f38565b5050509392505050565b6000613f82613f7d84614f82565b614f05565b905082815260208101848484011115613f9a57600080fd5b613fa5848285615228565b509392505050565b6000613fc0613fbb84614fb3565b614f05565b905082815260208101848484011115613fd857600080fd5b613fe3848285615228565b509392505050565b600081359050613ffa81615900565b92915050565b600082601f83011261401157600080fd5b8135614021848260208601613e97565b91505092915050565b600082601f83011261403b57600080fd5b813561404b848260208601613f03565b91505092915050565b60008135905061406381615917565b92915050565b6000813590506140788161592e565b92915050565b60008151905061408d8161592e565b92915050565b600082601f8301126140a457600080fd5b81356140b4848260208601613f6f565b91505092915050565b600082601f8301126140ce57600080fd5b81356140de848260208601613fad565b91505092915050565b6000813590506140f681615945565b92915050565b60006020828403121561410e57600080fd5b600061411c84828501613feb565b91505092915050565b6000806040838503121561413857600080fd5b600061414685828601613feb565b925050602061415785828601613feb565b9150509250929050565b600080600080600060a0868803121561417957600080fd5b600061418788828901613feb565b955050602061419888828901613feb565b945050604086013567ffffffffffffffff8111156141b557600080fd5b6141c18882890161402a565b935050606086013567ffffffffffffffff8111156141de57600080fd5b6141ea8882890161402a565b925050608086013567ffffffffffffffff81111561420757600080fd5b61421388828901614093565b9150509295509295909350565b600080600080600060a0868803121561423857600080fd5b600061424688828901613feb565b955050602061425788828901613feb565b9450506040614268888289016140e7565b9350506060614279888289016140e7565b925050608086013567ffffffffffffffff81111561429657600080fd5b6142a288828901614093565b9150509295509295909350565b600080604083850312156142c257600080fd5b60006142d085828601613feb565b92505060206142e185828601614054565b9150509250929050565b60008060008060008060c0878903121561430457600080fd5b600061431289828a01613feb565b965050602087013567ffffffffffffffff81111561432f57600080fd5b61433b89828a016140bd565b955050604061434c89828a016140e7565b945050606061435d89828a016140e7565b935050608087013567ffffffffffffffff81111561437a57600080fd5b61438689828a016140bd565b92505060a087013567ffffffffffffffff8111156143a357600080fd5b6143af89828a016140bd565b9150509295509295509295565b600080604083850312156143cf57600080fd5b60006143dd85828601613feb565b92505060206143ee858286016140e7565b9150509250929050565b60008060006060848603121561440d57600080fd5b600061441b86828701613feb565b935050602061442c868287016140e7565b925050604061443d868287016140e7565b9150509250925092565b6000806040838503121561445a57600080fd5b600083013567ffffffffffffffff81111561447457600080fd5b61448085828601614000565b925050602083013567ffffffffffffffff81111561449d57600080fd5b6144a98582860161402a565b9150509250929050565b6000602082840312156144c557600080fd5b60006144d384828501614069565b91505092915050565b6000602082840312156144ee57600080fd5b60006144fc8482850161407e565b91505092915050565b60006020828403121561451757600080fd5b6000614525848285016140e7565b91505092915050565b6000806040838503121561454157600080fd5b600061454f858286016140e7565b9250506020614560858286016140e7565b9150509250929050565b60006145768383614971565b905092915050565b600061458a8383614a28565b60208301905092915050565b61459f816151b4565b82525050565b6145ae816151b4565b82525050565b60006145bf82615004565b6145c9818561504a565b9350836020820285016145db85614fe4565b8060005b8581101561461757848403895281516145f8858261456a565b945061460383615030565b925060208a019950506001810190506145df565b50829750879550505050505092915050565b60006146348261500f565b61463e818561505b565b935061464983614ff4565b8060005b8381101561467a578151614661888261457e565b975061466c8361503d565b92505060018101905061464d565b5085935050505092915050565b614690816151c6565b82525050565b60006146a18261501a565b6146ab818561506c565b93506146bb818560208601615237565b6146c4816153f4565b840191505092915050565b60006146da82615025565b6146e4818561507d565b93506146f4818560208601615237565b6146fd816153f4565b840191505092915050565b600061471382615025565b61471d818561508e565b935061472d818560208601615237565b614736816153f4565b840191505092915050565b600061474e60348361508e565b915061475982615412565b604082019050919050565b600061477160288361508e565b915061477c82615461565b604082019050919050565b600061479460148361508e565b915061479f826154b0565b602082019050919050565b60006147b7602b8361508e565b91506147c2826154d9565b604082019050919050565b60006147da60268361508e565b91506147e582615528565b604082019050919050565b60006147fd601a8361508e565b915061480882615577565b602082019050919050565b600061482060298361508e565b915061482b826155a0565b604082019050919050565b600061484360258361508e565b915061484e826155ef565b604082019050919050565b600061486660328361508e565b91506148718261563e565b604082019050919050565b6000614889602a8361508e565b91506148948261568d565b604082019050919050565b60006148ac60208361508e565b91506148b7826156dc565b602082019050919050565b60006148cf60148361508e565b91506148da82615705565b602082019050919050565b60006148f260298361508e565b91506148fd8261572e565b604082019050919050565b600061491560298361508e565b91506149208261577d565b604082019050919050565b600061493860288361508e565b9150614943826157cc565b604082019050919050565b600061495b60218361508e565b91506149668261581b565b604082019050919050565b60006101008301600083015161498a6000860182614a28565b50602083015161499d6020860182614596565b50604083015184820360408601526149b582826146cf565b915050606083015184820360608601526149cf82826146cf565b91505060808301516149e46080860182614a28565b5060a08301516149f760a0860182614a28565b5060c0830151614a0a60c0860182614a28565b5060e0830151614a1d60e0860182614a28565b508091505092915050565b614a318161521e565b82525050565b614a408161521e565b82525050565b6000602082019050614a5b60008301846145a5565b92915050565b600060a082019050614a7660008301886145a5565b614a8360208301876145a5565b8181036040830152614a958186614629565b90508181036060830152614aa98185614629565b90508181036080830152614abd8184614696565b90509695505050505050565b600060a082019050614ade60008301886145a5565b614aeb60208301876145a5565b614af86040830186614a37565b614b056060830185614a37565b8181036080830152614b178184614696565b90509695505050505050565b600060a082019050614b3860008301886145a5565b8181036020830152614b4a8187614708565b9050614b596040830186614a37565b614b666060830185614a37565b614b736080830184614a37565b9695505050505050565b60006020820190508181036000830152614b9781846145b4565b905092915050565b60006020820190508181036000830152614bb98184614629565b905092915050565b60006040820190508181036000830152614bdb8185614629565b90508181036020830152614bef8184614629565b90509392505050565b6000602082019050614c0d6000830184614687565b92915050565b60006020820190508181036000830152614c2d8184614708565b905092915050565b60006020820190508181036000830152614c4e81614741565b9050919050565b60006020820190508181036000830152614c6e81614764565b9050919050565b60006020820190508181036000830152614c8e81614787565b9050919050565b60006020820190508181036000830152614cae816147aa565b9050919050565b60006020820190508181036000830152614cce816147cd565b9050919050565b60006020820190508181036000830152614cee816147f0565b9050919050565b60006020820190508181036000830152614d0e81614813565b9050919050565b60006020820190508181036000830152614d2e81614836565b9050919050565b60006020820190508181036000830152614d4e81614859565b9050919050565b60006020820190508181036000830152614d6e8161487c565b9050919050565b60006020820190508181036000830152614d8e8161489f565b9050919050565b60006020820190508181036000830152614dae816148c2565b9050919050565b60006020820190508181036000830152614dce816148e5565b9050919050565b60006020820190508181036000830152614dee81614908565b9050919050565b60006020820190508181036000830152614e0e8161492b565b9050919050565b60006020820190508181036000830152614e2e8161494e565b9050919050565b6000602082019050614e4a6000830184614a37565b92915050565b600061010082019050614e66600083018b614a37565b614e73602083018a6145a5565b8181036040830152614e858189614708565b90508181036060830152614e998188614708565b9050614ea86080830187614a37565b614eb560a0830186614a37565b614ec260c0830185614a37565b614ecf60e0830184614a37565b9998505050505050505050565b6000604082019050614ef16000830185614a37565b614efe6020830184614a37565b9392505050565b6000614f0f614f20565b9050614f1b828261529c565b919050565b6000604051905090565b600067ffffffffffffffff821115614f4557614f446153a3565b5b602082029050602081019050919050565b600067ffffffffffffffff821115614f7157614f706153a3565b5b602082029050602081019050919050565b600067ffffffffffffffff821115614f9d57614f9c6153a3565b5b614fa6826153f4565b9050602081019050919050565b600067ffffffffffffffff821115614fce57614fcd6153a3565b5b614fd7826153f4565b9050602081019050919050565b6000819050602082019050919050565b6000819050602082019050919050565b600081519050919050565b600081519050919050565b600081519050919050565b600081519050919050565b6000602082019050919050565b6000602082019050919050565b600082825260208201905092915050565b600082825260208201905092915050565b600082825260208201905092915050565b600082825260208201905092915050565b600082825260208201905092915050565b60006150aa8261521e565b91506150b58361521e565b9250827fffffffffffffffffffffffffffffffffffffffffffffffffffffffffffffffff038211156150ea576150e9615316565b5b828201905092915050565b60006151008261521e565b915061510b8361521e565b92508261511b5761511a615345565b5b828204905092915050565b60006151318261521e565b915061513c8361521e565b9250817fffffffffffffffffffffffffffffffffffffffffffffffffffffffffffffffff048311821515161561517557615174615316565b5b828202905092915050565b600061518b8261521e565b91506151968361521e565b9250828210156151a9576151a8615316565b5b828203905092915050565b60006151bf826151fe565b9050919050565b60008115159050919050565b60007fffffffff0000000000000000000000000000000000000000000000000000000082169050919050565b600073ffffffffffffffffffffffffffffffffffffffff82169050919050565b6000819050919050565b82818337600083830152505050565b60005b8381101561525557808201518184015260208101905061523a565b83811115615264576000848401525b50505050565b6000600282049050600182168061528257607f821691505b6020821081141561529657615295615374565b5b50919050565b6152a5826153f4565b810181811067ffffffffffffffff821117156152c4576152c36153a3565b5b80604052505050565b60006152d88261521e565b91507fffffffffffffffffffffffffffffffffffffffffffffffffffffffffffffffff82141561530b5761530a615316565b5b600182019050919050565b7f4e487b7100000000000000000000000000000000000000000000000000000000600052601160045260246000fd5b7f4e487b7100000000000000000000000000000000000000000000000000000000600052601260045260246000fd5b7f4e487b7100000000000000000000000000000000000000000000000000000000600052602260045260246000fd5b7f4e487b7100000000000000000000000000000000000000000000000000000000600052604160045260246000fd5b600060033d11156153f15760046000803e6153ee600051615405565b90505b90565b6000601f19601f8301169050919050565b60008160e01c9050919050565b7f455243313135353a207472616e7366657220746f206e6f6e204552433131353560008201527f526563656976657220696d706c656d656e746572000000000000000000000000602082015250565b7f455243313135353a204552433131353552656365697665722072656a6563746560008201527f6420746f6b656e73000000000000000000000000000000000000000000000000602082015250565b7f546f6b656e73206e6f7420617661696c61626c65000000000000000000000000600082015250565b7f455243313135353a2062616c616e636520717565727920666f7220746865207a60008201527f65726f2061646472657373000000000000000000000000000000000000000000602082015250565b7f4f776e61626c653a206e6577206f776e657220697320746865207a65726f206160008201527f6464726573730000000000000000000000000000000000000000000000000000602082015250565b7f6e6f7420657175616c20746f20746f6b656e27732076616c7565000000000000600082015250565b7f455243313135353a2063616c6c6572206973206e6f74206f776e6572206e6f7260008201527f20617070726f7665640000000000000000000000000000000000000000000000602082015250565b7f455243313135353a207472616e7366657220746f20746865207a65726f20616460008201527f6472657373000000000000000000000000000000000000000000000000000000602082015250565b7f455243313135353a207472616e736665722063616c6c6572206973206e6f742060008201527f6f776e6572206e6f7220617070726f7665640000000000000000000000000000602082015250565b7f455243313135353a20696e73756666696369656e742062616c616e636520666f60008201527f72207472616e7366657200000000000000000000000000000000000000000000602082015250565b7f4f776e61626c653a2063616c6c6572206973206e6f7420746865206f776e6572600082015250565b7f6d6178206f66203620546f6b656e73206f6e6c79000000000000000000000000600082015250565b7f455243313135353a2073657474696e6720617070726f76616c2073746174757360008201527f20666f722073656c660000000000000000000000000000000000000000000000602082015250565b7f455243313135353a206163636f756e747320616e6420696473206c656e67746860008201527f206d69736d617463680000000000000000000000000000000000000000000000602082015250565b7f455243313135353a2069647320616e6420616d6f756e7473206c656e6774682060008201527f6d69736d61746368000000000000000000000000000000000000000000000000602082015250565b7f455243313135353a206d696e7420746f20746865207a65726f2061646472657360008201527f7300000000000000000000000000000000000000000000000000000000000000602082015250565b600060443d101561587a576158fd565b615882614f20565b60043d036004823e80513d602482011167ffffffffffffffff821117156158aa5750506158fd565b808201805167ffffffffffffffff8111156158c857505050506158fd565b80602083010160043d0385018111156158e55750505050506158fd565b6158f48260200185018661529c565b82955050505050505b90565b615909816151b4565b811461591457600080fd5b50565b615920816151c6565b811461592b57600080fd5b50565b615937816151d2565b811461594257600080fd5b50565b61594e8161521e565b811461595957600080fd5b5056fea26469706673582212207f2af6833af203ec783dec9a917d797b72642305b6f21ab87b51dfd590f4fcbd64736f6c63430008030033",
  "linkReferences": {},
  "deployedLinkReferences": {}
}