{
    "_format": "hh-sol-artifact-1",
    "contractName": "MyToken",
    "sourceName": "contracts/NFT.sol",
    "abi": [
        {
            "inputs": [
                {
                    "internalType": "string",
                    "name": "collectionName",
                    "type": "string"
                },
                {
                    "internalType": "uint256",
                    "name": "percent",
                    "type": "uint256"
                }
            ],
            "stateMutability": "nonpayable",
            "type": "constructor"
        },
        {
            "anonymous": false,
            "inputs": [
                {
                    "indexed": true,
                    "internalType": "address",
                    "name": "account",
                    "type": "address"
                },
                {
                    "indexed": true,
                    "internalType": "address",
                    "name": "operator",
                    "type": "address"
                },
                {
                    "indexed": false,
                    "internalType": "bool",
                    "name": "approved",
                    "type": "bool"
                }
            ],
            "name": "ApprovalForAll",
            "type": "event"
        },
        {
            "anonymous": false,
            "inputs": [
                {
                    "indexed": true,
                    "internalType": "address",
                    "name": "previousOwner",
                    "type": "address"
                },
                {
                    "indexed": true,
                    "internalType": "address",
                    "name": "newOwner",
                    "type": "address"
                }
            ],
            "name": "OwnershipTransferred",
            "type": "event"
        },
        {
            "anonymous": false,
            "inputs": [
                {
                    "indexed": true,
                    "internalType": "address",
                    "name": "operator",
                    "type": "address"
                },
                {
                    "indexed": true,
                    "internalType": "address",
                    "name": "from",
                    "type": "address"
                },
                {
                    "indexed": true,
                    "internalType": "address",
                    "name": "to",
                    "type": "address"
                },
                {
                    "indexed": false,
                    "internalType": "uint256[]",
                    "name": "ids",
                    "type": "uint256[]"
                },
                {
                    "indexed": false,
                    "internalType": "uint256[]",
                    "name": "values",
                    "type": "uint256[]"
                }
            ],
            "name": "TransferBatch",
            "type": "event"
        },
        {
            "anonymous": false,
            "inputs": [
                {
                    "indexed": true,
                    "internalType": "address",
                    "name": "operator",
                    "type": "address"
                },
                {
                    "indexed": true,
                    "internalType": "address",
                    "name": "from",
                    "type": "address"
                },
                {
                    "indexed": true,
                    "internalType": "address",
                    "name": "to",
                    "type": "address"
                },
                {
                    "indexed": false,
                    "internalType": "uint256",
                    "name": "id",
                    "type": "uint256"
                },
                {
                    "indexed": false,
                    "internalType": "uint256",
                    "name": "value",
                    "type": "uint256"
                }
            ],
            "name": "TransferSingle",
            "type": "event"
        },
        {
            "anonymous": false,
            "inputs": [
                {
                    "indexed": false,
                    "internalType": "string",
                    "name": "value",
                    "type": "string"
                },
                {
                    "indexed": true,
                    "internalType": "uint256",
                    "name": "id",
                    "type": "uint256"
                }
            ],
            "name": "URI",
            "type": "event"
        },
        {
            "anonymous": false,
            "inputs": [
                {
                    "indexed": false,
                    "internalType": "address",
                    "name": "minter",
                    "type": "address"
                },
                {
                    "indexed": false,
                    "internalType": "string",
                    "name": "tokenName",
                    "type": "string"
                },
                {
                    "indexed": false,
                    "internalType": "uint256",
                    "name": "tokenID",
                    "type": "uint256"
                },
                {
                    "indexed": false,
                    "internalType": "uint256",
                    "name": "cost",
                    "type": "uint256"
                },
                {
                    "indexed": false,
                    "internalType": "uint256",
                    "name": "totalSupply",
                    "type": "uint256"
                }
            ],
            "name": "onMint",
            "type": "event"
        },
        {
            "inputs": [],
            "name": "_tokenIds",
            "outputs": [
                {
                    "internalType": "uint256",
                    "name": "_value",
                    "type": "uint256"
                }
            ],
            "stateMutability": "view",
            "type": "function"
        },
        {
            "inputs": [
                {
                    "internalType": "address",
                    "name": "account",
                    "type": "address"
                },
                {
                    "internalType": "uint256",
                    "name": "id",
                    "type": "uint256"
                }
            ],
            "name": "balanceOf",
            "outputs": [
                {
                    "internalType": "uint256",
                    "name": "",
                    "type": "uint256"
                }
            ],
            "stateMutability": "view",
            "type": "function"
        },
        {
            "inputs": [
                {
                    "internalType": "address[]",
                    "name": "accounts",
                    "type": "address[]"
                },
                {
                    "internalType": "uint256[]",
                    "name": "ids",
                    "type": "uint256[]"
                }
            ],
            "name": "balanceOfBatch",
            "outputs": [
                {
                    "internalType": "uint256[]",
                    "name": "",
                    "type": "uint256[]"
                }
            ],
            "stateMutability": "view",
            "type": "function"
        },
        {
            "inputs": [
                {
                    "internalType": "uint256",
                    "name": "_tokenId",
                    "type": "uint256"
                },
                {
                    "internalType": "uint256",
                    "name": "_amount",
                    "type": "uint256"
                }
            ],
            "name": "buyTokens",
            "outputs": [
                {
                    "internalType": "bool",
                    "name": "",
                    "type": "bool"
                }
            ],
            "stateMutability": "payable",
            "type": "function"
        },
        {
            "inputs": [
                {
                    "internalType": "address",
                    "name": "",
                    "type": "address"
                },
                {
                    "internalType": "uint256",
                    "name": "",
                    "type": "uint256"
                }
            ],
            "name": "buyerToTokens",
            "outputs": [
                {
                    "internalType": "uint256",
                    "name": "id",
                    "type": "uint256"
                },
                {
                    "components": [
                        {
                            "internalType": "address",
                            "name": "creatorAddress",
                            "type": "address"
                        },
                        {
                            "internalType": "string",
                            "name": "name",
                            "type": "string"
                        },
                        {
                            "internalType": "uint256",
                            "name": "registeredDate",
                            "type": "uint256"
                        },
                        {
                            "internalType": "bool",
                            "name": "registrationStatus",
                            "type": "bool"
                        }
                    ],
                    "internalType": "struct MyToken.Creator",
                    "name": "creator",
                    "type": "tuple"
                },
                {
                    "internalType": "string",
                    "name": "tokenName",
                    "type": "string"
                },
                {
                    "internalType": "string",
                    "name": "mediaUrl",
                    "type": "string"
                },
                {
                    "internalType": "uint256",
                    "name": "cost",
                    "type": "uint256"
                },
                {
                    "internalType": "uint256",
                    "name": "amountAvailable",
                    "type": "uint256"
                },
                {
                    "internalType": "uint256",
                    "name": "totalSupply",
                    "type": "uint256"
                },
                {
                    "internalType": "uint256",
                    "name": "createdTime",
                    "type": "uint256"
                }
            ],
            "stateMutability": "view",
            "type": "function"
        },
        {
            "inputs": [],
            "name": "contractURI",
            "outputs": [
                {
                    "internalType": "string",
                    "name": "",
                    "type": "string"
                }
            ],
            "stateMutability": "view",
            "type": "function"
        },
        {
            "inputs": [
                {
                    "internalType": "address",
                    "name": "",
                    "type": "address"
                },
                {
                    "internalType": "uint256",
                    "name": "",
                    "type": "uint256"
                }
            ],
            "name": "creatorTokens",
            "outputs": [
                {
                    "internalType": "uint256",
                    "name": "id",
                    "type": "uint256"
                },
                {
                    "components": [
                        {
                            "internalType": "address",
                            "name": "creatorAddress",
                            "type": "address"
                        },
                        {
                            "internalType": "string",
                            "name": "name",
                            "type": "string"
                        },
                        {
                            "internalType": "uint256",
                            "name": "registeredDate",
                            "type": "uint256"
                        },
                        {
                            "internalType": "bool",
                            "name": "registrationStatus",
                            "type": "bool"
                        }
                    ],
                    "internalType": "struct MyToken.Creator",
                    "name": "creator",
                    "type": "tuple"
                },
                {
                    "internalType": "string",
                    "name": "tokenName",
                    "type": "string"
                },
                {
                    "internalType": "string",
                    "name": "mediaUrl",
                    "type": "string"
                },
                {
                    "internalType": "uint256",
                    "name": "cost",
                    "type": "uint256"
                },
                {
                    "internalType": "uint256",
                    "name": "amountAvailable",
                    "type": "uint256"
                },
                {
                    "internalType": "uint256",
                    "name": "totalSupply",
                    "type": "uint256"
                },
                {
                    "internalType": "uint256",
                    "name": "createdTime",
                    "type": "uint256"
                }
            ],
            "stateMutability": "view",
            "type": "function"
        },
        {
            "inputs": [],
            "name": "fetchAvailableNFTs",
            "outputs": [
                {
                    "components": [
                        {
                            "internalType": "uint256",
                            "name": "id",
                            "type": "uint256"
                        },
                        {
                            "components": [
                                {
                                    "internalType": "address",
                                    "name": "creatorAddress",
                                    "type": "address"
                                },
                                {
                                    "internalType": "string",
                                    "name": "name",
                                    "type": "string"
                                },
                                {
                                    "internalType": "uint256",
                                    "name": "registeredDate",
                                    "type": "uint256"
                                },
                                {
                                    "internalType": "bool",
                                    "name": "registrationStatus",
                                    "type": "bool"
                                }
                            ],
                            "internalType": "struct MyToken.Creator",
                            "name": "creator",
                            "type": "tuple"
                        },
                        {
                            "internalType": "string",
                            "name": "tokenName",
                            "type": "string"
                        },
                        {
                            "internalType": "string",
                            "name": "mediaUrl",
                            "type": "string"
                        },
                        {
                            "internalType": "uint256",
                            "name": "cost",
                            "type": "uint256"
                        },
                        {
                            "internalType": "uint256",
                            "name": "amountAvailable",
                            "type": "uint256"
                        },
                        {
                            "internalType": "uint256",
                            "name": "totalSupply",
                            "type": "uint256"
                        },
                        {
                            "internalType": "uint256",
                            "name": "createdTime",
                            "type": "uint256"
                        }
                    ],
                    "internalType": "struct MyToken.Token[]",
                    "name": "itemList",
                    "type": "tuple[]"
                }
            ],
            "stateMutability": "view",
            "type": "function"
        },
        {
            "inputs": [],
            "name": "fetchBoughtNFTs",
            "outputs": [
                {
                    "components": [
                        {
                            "internalType": "uint256",
                            "name": "id",
                            "type": "uint256"
                        },
                        {
                            "components": [
                                {
                                    "internalType": "address",
                                    "name": "creatorAddress",
                                    "type": "address"
                                },
                                {
                                    "internalType": "string",
                                    "name": "name",
                                    "type": "string"
                                },
                                {
                                    "internalType": "uint256",
                                    "name": "registeredDate",
                                    "type": "uint256"
                                },
                                {
                                    "internalType": "bool",
                                    "name": "registrationStatus",
                                    "type": "bool"
                                }
                            ],
                            "internalType": "struct MyToken.Creator",
                            "name": "creator",
                            "type": "tuple"
                        },
                        {
                            "internalType": "string",
                            "name": "tokenName",
                            "type": "string"
                        },
                        {
                            "internalType": "string",
                            "name": "mediaUrl",
                            "type": "string"
                        },
                        {
                            "internalType": "uint256",
                            "name": "cost",
                            "type": "uint256"
                        },
                        {
                            "internalType": "uint256",
                            "name": "amountAvailable",
                            "type": "uint256"
                        },
                        {
                            "internalType": "uint256",
                            "name": "totalSupply",
                            "type": "uint256"
                        },
                        {
                            "internalType": "uint256",
                            "name": "createdTime",
                            "type": "uint256"
                        }
                    ],
                    "internalType": "struct MyToken.Token[]",
                    "name": "itemList",
                    "type": "tuple[]"
                }
            ],
            "stateMutability": "view",
            "type": "function"
        },
        {
            "inputs": [],
            "name": "fetchCreatedNFTs",
            "outputs": [
                {
                    "components": [
                        {
                            "internalType": "uint256",
                            "name": "id",
                            "type": "uint256"
                        },
                        {
                            "components": [
                                {
                                    "internalType": "address",
                                    "name": "creatorAddress",
                                    "type": "address"
                                },
                                {
                                    "internalType": "string",
                                    "name": "name",
                                    "type": "string"
                                },
                                {
                                    "internalType": "uint256",
                                    "name": "registeredDate",
                                    "type": "uint256"
                                },
                                {
                                    "internalType": "bool",
                                    "name": "registrationStatus",
                                    "type": "bool"
                                }
                            ],
                            "internalType": "struct MyToken.Creator",
                            "name": "creator",
                            "type": "tuple"
                        },
                        {
                            "internalType": "string",
                            "name": "tokenName",
                            "type": "string"
                        },
                        {
                            "internalType": "string",
                            "name": "mediaUrl",
                            "type": "string"
                        },
                        {
                            "internalType": "uint256",
                            "name": "cost",
                            "type": "uint256"
                        },
                        {
                            "internalType": "uint256",
                            "name": "amountAvailable",
                            "type": "uint256"
                        },
                        {
                            "internalType": "uint256",
                            "name": "totalSupply",
                            "type": "uint256"
                        },
                        {
                            "internalType": "uint256",
                            "name": "createdTime",
                            "type": "uint256"
                        }
                    ],
                    "internalType": "struct MyToken.Token[]",
                    "name": "itemList",
                    "type": "tuple[]"
                }
            ],
            "stateMutability": "view",
            "type": "function"
        },
        {
            "inputs": [
                {
                    "internalType": "uint256",
                    "name": "",
                    "type": "uint256"
                }
            ],
            "name": "idToToken",
            "outputs": [
                {
                    "internalType": "uint256",
                    "name": "id",
                    "type": "uint256"
                },
                {
                    "components": [
                        {
                            "internalType": "address",
                            "name": "creatorAddress",
                            "type": "address"
                        },
                        {
                            "internalType": "string",
                            "name": "name",
                            "type": "string"
                        },
                        {
                            "internalType": "uint256",
                            "name": "registeredDate",
                            "type": "uint256"
                        },
                        {
                            "internalType": "bool",
                            "name": "registrationStatus",
                            "type": "bool"
                        }
                    ],
                    "internalType": "struct MyToken.Creator",
                    "name": "creator",
                    "type": "tuple"
                },
                {
                    "internalType": "string",
                    "name": "tokenName",
                    "type": "string"
                },
                {
                    "internalType": "string",
                    "name": "mediaUrl",
                    "type": "string"
                },
                {
                    "internalType": "uint256",
                    "name": "cost",
                    "type": "uint256"
                },
                {
                    "internalType": "uint256",
                    "name": "amountAvailable",
                    "type": "uint256"
                },
                {
                    "internalType": "uint256",
                    "name": "totalSupply",
                    "type": "uint256"
                },
                {
                    "internalType": "uint256",
                    "name": "createdTime",
                    "type": "uint256"
                }
            ],
            "stateMutability": "view",
            "type": "function"
        },
        {
            "inputs": [
                {
                    "internalType": "address",
                    "name": "account",
                    "type": "address"
                },
                {
                    "internalType": "address",
                    "name": "operator",
                    "type": "address"
                }
            ],
            "name": "isApprovedForAll",
            "outputs": [
                {
                    "internalType": "bool",
                    "name": "",
                    "type": "bool"
                }
            ],
            "stateMutability": "view",
            "type": "function"
        },
        {
            "inputs": [
                {
                    "internalType": "string",
                    "name": "tokenName",
                    "type": "string"
                },
                {
                    "internalType": "uint256",
                    "name": "cost",
                    "type": "uint256"
                },
                {
                    "internalType": "uint256",
                    "name": "total",
                    "type": "uint256"
                },
                {
                    "internalType": "string",
                    "name": "uri",
                    "type": "string"
                },
                {
                    "internalType": "string",
                    "name": "mediaUrl",
                    "type": "string"
                }
            ],
            "name": "mint",
            "outputs": [],
            "stateMutability": "nonpayable",
            "type": "function"
        },
        {
            "inputs": [],
            "name": "name",
            "outputs": [
                {
                    "internalType": "string",
                    "name": "",
                    "type": "string"
                }
            ],
            "stateMutability": "view",
            "type": "function"
        },
        {
            "inputs": [],
            "name": "owner",
            "outputs": [
                {
                    "internalType": "address",
                    "name": "",
                    "type": "address"
                }
            ],
            "stateMutability": "view",
            "type": "function"
        },
        {
            "inputs": [],
            "name": "pool",
            "outputs": [
                {
                    "internalType": "address",
                    "name": "",
                    "type": "address"
                }
            ],
            "stateMutability": "view",
            "type": "function"
        },
        {
            "inputs": [
                {
                    "internalType": "address",
                    "name": "creatorAddress",
                    "type": "address"
                },
                {
                    "internalType": "string",
                    "name": "name",
                    "type": "string"
                }
            ],
            "name": "registerCreator",
            "outputs": [
                {
                    "internalType": "bool",
                    "name": "",
                    "type": "bool"
                }
            ],
            "stateMutability": "nonpayable",
            "type": "function"
        },
        {
            "inputs": [
                {
                    "internalType": "address",
                    "name": "",
                    "type": "address"
                }
            ],
            "name": "registeredCreator",
            "outputs": [
                {
                    "internalType": "address",
                    "name": "creatorAddress",
                    "type": "address"
                },
                {
                    "internalType": "string",
                    "name": "name",
                    "type": "string"
                },
                {
                    "internalType": "uint256",
                    "name": "registeredDate",
                    "type": "uint256"
                },
                {
                    "internalType": "bool",
                    "name": "registrationStatus",
                    "type": "bool"
                }
            ],
            "stateMutability": "view",
            "type": "function"
        },
        {
            "inputs": [
                {
                    "internalType": "uint256",
                    "name": "",
                    "type": "uint256"
                }
            ],
            "name": "registeredCreators",
            "outputs": [
                {
                    "internalType": "address",
                    "name": "",
                    "type": "address"
                }
            ],
            "stateMutability": "view",
            "type": "function"
        },
        {
            "inputs": [
                {
                    "internalType": "uint256",
                    "name": "",
                    "type": "uint256"
                }
            ],
            "name": "registeredUsers",
            "outputs": [
                {
                    "internalType": "address",
                    "name": "",
                    "type": "address"
                }
            ],
            "stateMutability": "view",
            "type": "function"
        },
        {
            "inputs": [],
            "name": "renounceOwnership",
            "outputs": [],
            "stateMutability": "nonpayable",
            "type": "function"
        },
        {
            "inputs": [
                {
                    "internalType": "address",
                    "name": "from",
                    "type": "address"
                },
                {
                    "internalType": "address",
                    "name": "to",
                    "type": "address"
                },
                {
                    "internalType": "uint256[]",
                    "name": "ids",
                    "type": "uint256[]"
                },
                {
                    "internalType": "uint256[]",
                    "name": "amounts",
                    "type": "uint256[]"
                },
                {
                    "internalType": "bytes",
                    "name": "data",
                    "type": "bytes"
                }
            ],
            "name": "safeBatchTransferFrom",
            "outputs": [],
            "stateMutability": "nonpayable",
            "type": "function"
        },
        {
            "inputs": [
                {
                    "internalType": "address",
                    "name": "from",
                    "type": "address"
                },
                {
                    "internalType": "address",
                    "name": "to",
                    "type": "address"
                },
                {
                    "internalType": "uint256",
                    "name": "id",
                    "type": "uint256"
                },
                {
                    "internalType": "uint256",
                    "name": "amount",
                    "type": "uint256"
                },
                {
                    "internalType": "bytes",
                    "name": "data",
                    "type": "bytes"
                }
            ],
            "name": "safeTransferFrom",
            "outputs": [],
            "stateMutability": "nonpayable",
            "type": "function"
        },
        {
            "inputs": [
                {
                    "internalType": "address",
                    "name": "operator",
                    "type": "address"
                },
                {
                    "internalType": "bool",
                    "name": "approved",
                    "type": "bool"
                }
            ],
            "name": "setApprovalForAll",
            "outputs": [],
            "stateMutability": "nonpayable",
            "type": "function"
        },
        {
            "inputs": [
                {
                    "internalType": "bytes4",
                    "name": "interfaceId",
                    "type": "bytes4"
                }
            ],
            "name": "supportsInterface",
            "outputs": [
                {
                    "internalType": "bool",
                    "name": "",
                    "type": "bool"
                }
            ],
            "stateMutability": "view",
            "type": "function"
        },
        {
            "inputs": [
                {
                    "internalType": "uint256",
                    "name": "",
                    "type": "uint256"
                }
            ],
            "name": "tokensAvailable",
            "outputs": [
                {
                    "internalType": "uint256",
                    "name": "",
                    "type": "uint256"
                }
            ],
            "stateMutability": "view",
            "type": "function"
        },
        {
            "inputs": [
                {
                    "internalType": "address",
                    "name": "newOwner",
                    "type": "address"
                }
            ],
            "name": "transferOwnership",
            "outputs": [],
            "stateMutability": "nonpayable",
            "type": "function"
        },
        {
            "inputs": [
                {
                    "internalType": "uint256",
                    "name": "",
                    "type": "uint256"
                }
            ],
            "name": "uri",
            "outputs": [
                {
                    "internalType": "string",
                    "name": "",
                    "type": "string"
                }
            ],
            "stateMutability": "view",
            "type": "function"
        }
    ],
    "bytecode": "0x60806040523480156200001157600080fd5b506040516200650a3803806200650a833981810160405281019062000037919062000333565b6040518060400160405280600e81526020017f43726561746f72204e6174696f6e0000000000000000000000000000000000008152506200007e816200011060201b60201c565b506200009f620000936200012c60201b60201c565b6200013460201b60201c565b60016004819055508160079080519060200190620000bf929190620001fa565b5033600660006101000a81548173ffffffffffffffffffffffffffffffffffffffff021916908373ffffffffffffffffffffffffffffffffffffffff16021790555080600b81905550505062000521565b806002908051906020019062000128929190620001fa565b5050565b600033905090565b6000600360009054906101000a900473ffffffffffffffffffffffffffffffffffffffff16905081600360006101000a81548173ffffffffffffffffffffffffffffffffffffffff021916908373ffffffffffffffffffffffffffffffffffffffff1602179055508173ffffffffffffffffffffffffffffffffffffffff168173ffffffffffffffffffffffffffffffffffffffff167f8be0079c531659141344cd1fd0a4f28419497f9722a3daafe3b4186f6b6457e060405160405180910390a35050565b82805462000208906200042c565b90600052602060002090601f0160209004810192826200022c576000855562000278565b82601f106200024757805160ff191683800117855562000278565b8280016001018555821562000278579182015b82811115620002775782518255916020019190600101906200025a565b5b5090506200028791906200028b565b5090565b5b80821115620002a65760008160009055506001016200028c565b5090565b6000620002c1620002bb84620003b6565b6200038d565b905082815260208101848484011115620002da57600080fd5b620002e7848285620003f6565b509392505050565b600082601f8301126200030157600080fd5b815162000313848260208601620002aa565b91505092915050565b6000815190506200032d8162000507565b92915050565b600080604083850312156200034757600080fd5b600083015167ffffffffffffffff8111156200036257600080fd5b6200037085828601620002ef565b925050602062000383858286016200031c565b9150509250929050565b600062000399620003ac565b9050620003a7828262000462565b919050565b6000604051905090565b600067ffffffffffffffff821115620003d457620003d3620004c7565b5b620003df82620004f6565b9050602081019050919050565b6000819050919050565b60005b8381101562000416578082015181840152602081019050620003f9565b8381111562000426576000848401525b50505050565b600060028204905060018216806200044557607f821691505b602082108114156200045c576200045b62000498565b5b50919050565b6200046d82620004f6565b810181811067ffffffffffffffff821117156200048f576200048e620004c7565b5b80604052505050565b7f4e487b7100000000000000000000000000000000000000000000000000000000600052602260045260246000fd5b7f4e487b7100000000000000000000000000000000000000000000000000000000600052604160045260246000fd5b6000601f19601f8301169050919050565b6200051281620003ec565b81146200051e57600080fd5b50565b615fd980620005316000396000f3fe6080604052600436106101b65760003560e01c80638da5cb5b116100ec578063be2a6ec01161008a578063e985e9c511610064578063e985e9c514610685578063f242432a146106c2578063f2fde38b146106eb578063f5c6b96b14610714576101b6565b8063be2a6ec0146105eb578063db3fa4cc14610616578063e8a3d4851461065a576101b6565b8063a51e81ed116100c6578063a51e81ed1461051d578063a7d5ad751461055a578063aa46a40014610583578063ba180040146105ae576101b6565b80638da5cb5b1461048c57806398ba6219146104b7578063a22cb465146104f4576101b6565b80632eb2c2d611610159578063715018a611610133578063715018a6146103c85780637259e0f8146103df57806376957c131461041c5780637975ce281461045c576101b6565b80632eb2c2d61461031e5780634e1273f4146103475780637019c1f914610384576101b6565b80630e89341c116101955780630e89341c1461026057806316f0115b1461029d57806318474cea146102c85780632d89c435146102f3576101b6565b8062fdd58e146101bb57806301ffc9a7146101f857806306fdde0314610235575b600080fd5b3480156101c757600080fd5b506101e260048036038101906101dd91906147f8565b610758565b6040516101ef919061544c565b60405180910390f35b34801561020457600080fd5b5061021f600480360381019061021a91906148a0565b610821565b60405161022c91906151ef565b60405180910390f35b34801561024157600080fd5b5061024a610903565b604051610257919061520a565b60405180910390f35b34801561026c57600080fd5b50610287600480360381019061028291906149b1565b610991565b604051610294919061520a565b60405180910390f35b3480156102a957600080fd5b506102b2610a25565b6040516102bf9190614ff1565b60405180910390f35b3480156102d457600080fd5b506102dd610a4b565b6040516102ea9190615174565b60405180910390f35b3480156102ff57600080fd5b50610308610edd565b6040516103159190615174565b60405180910390f35b34801561032a57600080fd5b506103456004803603810190610340919061461a565b61136f565b005b34801561035357600080fd5b5061036e60048036038101906103699190614834565b611410565b60405161037b9190615196565b60405180910390f35b34801561039057600080fd5b506103ab60048036038101906103a691906147f8565b6115c1565b6040516103bf989796959493929190615467565b60405180910390f35b3480156103d457600080fd5b506103dd61184d565b005b3480156103eb57600080fd5b50610406600480360381019061040191906149b1565b6118d5565b6040516104139190614ff1565b60405180910390f35b34801561042857600080fd5b50610443600480360381019061043e91906145b5565b611914565b60405161045394939291906150ce565b60405180910390f35b610476600480360381019061047191906149da565b6119f9565b60405161048391906151ef565b60405180910390f35b34801561049857600080fd5b506104a1611e28565b6040516104ae9190614ff1565b60405180910390f35b3480156104c357600080fd5b506104de60048036038101906104d991906149b1565b611e52565b6040516104eb919061544c565b60405180910390f35b34801561050057600080fd5b5061051b60048036038101906105169190614768565b611e6a565b005b34801561052957600080fd5b50610544600480360381019061053f91906147a4565b611feb565b60405161055191906151ef565b60405180910390f35b34801561056657600080fd5b50610581600480360381019061057c91906148f2565b6121ec565b005b34801561058f57600080fd5b506105986127fe565b6040516105a5919061544c565b60405180910390f35b3480156105ba57600080fd5b506105d560048036038101906105d091906149b1565b61280a565b6040516105e29190614ff1565b60405180910390f35b3480156105f757600080fd5b50610600612849565b60405161060d9190615174565b60405180910390f35b34801561062257600080fd5b5061063d600480360381019061063891906147f8565b612c93565b604051610651989796959493929190615467565b60405180910390f35b34801561066657600080fd5b5061066f612f1f565b60405161067c919061520a565b60405180910390f35b34801561069157600080fd5b506106ac60048036038101906106a791906145de565b612f5c565b6040516106b991906151ef565b60405180910390f35b3480156106ce57600080fd5b506106e960048036038101906106e491906146d9565b612ff0565b005b3480156106f757600080fd5b50610712600480360381019061070d91906145b5565b613091565b005b34801561072057600080fd5b5061073b600480360381019061073691906149b1565b613189565b60405161074f989796959493929190615467565b60405180910390f35b60008073ffffffffffffffffffffffffffffffffffffffff168373ffffffffffffffffffffffffffffffffffffffff1614156107c9576040517f08c379a00000000000000000000000000000000000000000000000000000000081526004016107c09061528c565b60405180910390fd5b60008083815260200190815260200160002060008473ffffffffffffffffffffffffffffffffffffffff1673ffffffffffffffffffffffffffffffffffffffff16815260200190815260200160002054905092915050565b60007fd9b67a26000000000000000000000000000000000000000000000000000000007bffffffffffffffffffffffffffffffffffffffffffffffffffffffff1916827bffffffffffffffffffffffffffffffffffffffffffffffffffffffff191614806108ec57507f0e89341c000000000000000000000000000000000000000000000000000000007bffffffffffffffffffffffffffffffffffffffffffffffffffffffff1916827bffffffffffffffffffffffffffffffffffffffffffffffffffffffff1916145b806108fc57506108fb826133f8565b5b9050919050565b6007805461091090615888565b80601f016020809104026020016040519081016040528092919081815260200182805461093c90615888565b80156109895780601f1061095e57610100808354040283529160200191610989565b820191906000526020600020905b81548152906001019060200180831161096c57829003601f168201915b505050505081565b6060600280546109a090615888565b80601f01602080910402602001604051908101604052809291908181526020018280546109cc90615888565b8015610a195780601f106109ee57610100808354040283529160200191610a19565b820191906000526020600020905b8154815290600101906020018083116109fc57829003601f168201915b50505050509050919050565b600660009054906101000a900473ffffffffffffffffffffffffffffffffffffffff1681565b606060003390506000600f60008373ffffffffffffffffffffffffffffffffffffffff1673ffffffffffffffffffffffffffffffffffffffff168152602001908152602001600020805490501115610ed8576000600f60008373ffffffffffffffffffffffffffffffffffffffff1673ffffffffffffffffffffffffffffffffffffffff16815260200190815260200160002080549050905060008167ffffffffffffffff811115610b26577f4e487b7100000000000000000000000000000000000000000000000000000000600052604160045260246000fd5b604051908082528060200260200182016040528015610b5f57816020015b610b4c614195565b815260200190600190039081610b445790505b50905060005b82811015610ecc57600f60008573ffffffffffffffffffffffffffffffffffffffff1673ffffffffffffffffffffffffffffffffffffffff1681526020019081526020016000208181548110610be4577f4e487b7100000000000000000000000000000000000000000000000000000000600052603260045260246000fd5b90600052602060002090600b02016040518061010001604052908160008201548152602001600182016040518060800160405290816000820160009054906101000a900473ffffffffffffffffffffffffffffffffffffffff1673ffffffffffffffffffffffffffffffffffffffff1673ffffffffffffffffffffffffffffffffffffffff168152602001600182018054610c7e90615888565b80601f0160208091040260200160405190810160405280929190818152602001828054610caa90615888565b8015610cf75780601f10610ccc57610100808354040283529160200191610cf7565b820191906000526020600020905b815481529060010190602001808311610cda57829003601f168201915b50505050508152602001600282015481526020016003820160009054906101000a900460ff1615151515815250508152602001600582018054610d3990615888565b80601f0160208091040260200160405190810160405280929190818152602001828054610d6590615888565b8015610db25780601f10610d8757610100808354040283529160200191610db2565b820191906000526020600020905b815481529060010190602001808311610d9557829003601f168201915b50505050508152602001600682018054610dcb90615888565b80601f0160208091040260200160405190810160405280929190818152602001828054610df790615888565b8015610e445780601f10610e1957610100808354040283529160200191610e44565b820191906000526020600020905b815481529060010190602001808311610e2757829003601f168201915b50505050508152602001600782015481526020016008820154815260200160098201548152602001600a82015481525050828281518110610eae577f4e487b7100000000000000000000000000000000000000000000000000000000600052603260045260246000fd5b60200260200101819052508080610ec4906158eb565b915050610b65565b50809350505050610eda565b505b90565b606060003390506000600960008373ffffffffffffffffffffffffffffffffffffffff1673ffffffffffffffffffffffffffffffffffffffff16815260200190815260200160002080549050111561136a576000600960008373ffffffffffffffffffffffffffffffffffffffff1673ffffffffffffffffffffffffffffffffffffffff16815260200190815260200160002080549050905060008167ffffffffffffffff811115610fb8577f4e487b7100000000000000000000000000000000000000000000000000000000600052604160045260246000fd5b604051908082528060200260200182016040528015610ff157816020015b610fde614195565b815260200190600190039081610fd65790505b50905060005b8281101561135e57600960008573ffffffffffffffffffffffffffffffffffffffff1673ffffffffffffffffffffffffffffffffffffffff1681526020019081526020016000208181548110611076577f4e487b7100000000000000000000000000000000000000000000000000000000600052603260045260246000fd5b90600052602060002090600b02016040518061010001604052908160008201548152602001600182016040518060800160405290816000820160009054906101000a900473ffffffffffffffffffffffffffffffffffffffff1673ffffffffffffffffffffffffffffffffffffffff1673ffffffffffffffffffffffffffffffffffffffff16815260200160018201805461111090615888565b80601f016020809104026020016040519081016040528092919081815260200182805461113c90615888565b80156111895780601f1061115e57610100808354040283529160200191611189565b820191906000526020600020905b81548152906001019060200180831161116c57829003601f168201915b50505050508152602001600282015481526020016003820160009054906101000a900460ff16151515158152505081526020016005820180546111cb90615888565b80601f01602080910402602001604051908101604052809291908181526020018280546111f790615888565b80156112445780601f1061121957610100808354040283529160200191611244565b820191906000526020600020905b81548152906001019060200180831161122757829003601f168201915b5050505050815260200160068201805461125d90615888565b80601f016020809104026020016040519081016040528092919081815260200182805461128990615888565b80156112d65780601f106112ab576101008083540402835291602001916112d6565b820191906000526020600020905b8154815290600101906020018083116112b957829003601f168201915b50505050508152602001600782015481526020016008820154815260200160098201548152602001600a82015481525050828281518110611340577f4e487b7100000000000000000000000000000000000000000000000000000000600052603260045260246000fd5b60200260200101819052508080611356906158eb565b915050610ff7565b5080935050505061136c565b505b90565b611377613462565b73ffffffffffffffffffffffffffffffffffffffff168573ffffffffffffffffffffffffffffffffffffffff1614806113bd57506113bc856113b7613462565b612f5c565b5b6113fc576040517f08c379a00000000000000000000000000000000000000000000000000000000081526004016113f39061532c565b60405180910390fd5b611409858585858561346a565b5050505050565b60608151835114611456576040517f08c379a000000000000000000000000000000000000000000000000000000000815260040161144d906153ec565b60405180910390fd5b6000835167ffffffffffffffff811115611499577f4e487b7100000000000000000000000000000000000000000000000000000000600052604160045260246000fd5b6040519080825280602002602001820160405280156114c75781602001602082028036833780820191505090505b50905060005b84518110156115b657611560858281518110611512577f4e487b7100000000000000000000000000000000000000000000000000000000600052603260045260246000fd5b6020026020010151858381518110611553577f4e487b7100000000000000000000000000000000000000000000000000000000600052603260045260246000fd5b6020026020010151610758565b828281518110611599577f4e487b7100000000000000000000000000000000000000000000000000000000600052603260045260246000fd5b602002602001018181525050806115af906158eb565b90506114cd565b508091505092915050565b600960205281600052604060002081815481106115dd57600080fd5b90600052602060002090600b020160009150915050806000015490806001016040518060800160405290816000820160009054906101000a900473ffffffffffffffffffffffffffffffffffffffff1673ffffffffffffffffffffffffffffffffffffffff1673ffffffffffffffffffffffffffffffffffffffff16815260200160018201805461166d90615888565b80601f016020809104026020016040519081016040528092919081815260200182805461169990615888565b80156116e65780601f106116bb576101008083540402835291602001916116e6565b820191906000526020600020905b8154815290600101906020018083116116c957829003601f168201915b50505050508152602001600282015481526020016003820160009054906101000a900460ff1615151515815250509080600501805461172490615888565b80601f016020809104026020016040519081016040528092919081815260200182805461175090615888565b801561179d5780601f106117725761010080835404028352916020019161179d565b820191906000526020600020905b81548152906001019060200180831161178057829003601f168201915b5050505050908060060180546117b290615888565b80601f01602080910402602001604051908101604052809291908181526020018280546117de90615888565b801561182b5780601f106118005761010080835404028352916020019161182b565b820191906000526020600020905b81548152906001019060200180831161180e57829003601f168201915b50505050509080600701549080600801549080600901549080600a0154905088565b611855613462565b73ffffffffffffffffffffffffffffffffffffffff16611873611e28565b73ffffffffffffffffffffffffffffffffffffffff16146118c9576040517f08c379a00000000000000000000000000000000000000000000000000000000081526004016118c09061538c565b60405180910390fd5b6118d360006137ca565b565b600e81815481106118e557600080fd5b906000526020600020016000915054906101000a900473ffffffffffffffffffffffffffffffffffffffff1681565b600a6020528060005260406000206000915090508060000160009054906101000a900473ffffffffffffffffffffffffffffffffffffffff169080600101805461195d90615888565b80601f016020809104026020016040519081016040528092919081815260200182805461198990615888565b80156119d65780601f106119ab576101008083540402835291602001916119d6565b820191906000526020600020905b8154815290600101906020018083116119b957829003601f168201915b5050505050908060020154908060030160009054906101000a900460ff16905084565b600081600c600085815260200190815260200160002060070154611a1d9190615744565b341015611a5f576040517f08c379a0000000000000000000000000000000000000000000000000000000008152600401611a56906152cc565b60405180910390fd5b6000600860008581526020019081526020016000205490506000600c600086815260200190815260200160002060010160000160009054906101000a900473ffffffffffffffffffffffffffffffffffffffff16905081841115611af8576040517f08c379a0000000000000000000000000000000000000000000000000000000008152600401611aef9061526c565b60405180910390fd5b60006064600b546064611b0b919061579e565b34611b169190615744565b611b209190615713565b905060006064600b5434611b349190615744565b611b3e9190615713565b90508273ffffffffffffffffffffffffffffffffffffffff166108fc839081150290604051600060405180830381858888f19350505050158015611b86573d6000803e3d6000fd5b50600660009054906101000a900473ffffffffffffffffffffffffffffffffffffffff1673ffffffffffffffffffffffffffffffffffffffff166108fc829081150290604051600060405180830381858888f19350505050158015611bef573d6000803e3d6000fd5b5085600860008981526020019081526020016000206000828254611c13919061579e565b9250508190555085600c60008981526020019081526020016000206008016000828254611c40919061579e565b92505081905550600960003373ffffffffffffffffffffffffffffffffffffffff1673ffffffffffffffffffffffffffffffffffffffff168152602001908152602001600020600c600089815260200190815260200160002090806001815401808255809150506001900390600052602060002090600b02016000909190919091506000820154816000015560018201816001016000820160009054906101000a900473ffffffffffffffffffffffffffffffffffffffff168160000160006101000a81548173ffffffffffffffffffffffffffffffffffffffff021916908373ffffffffffffffffffffffffffffffffffffffff1602179055506001820181600101908054611d4f90615888565b611d5a9291906141e0565b50600282015481600201556003820160009054906101000a900460ff168160030160006101000a81548160ff02191690831515021790555050506005820181600501908054611da890615888565b611db39291906141e0565b506006820181600601908054611dc890615888565b611dd39291906141e0565b50600782015481600701556008820154816008015560098201548160090155600a82015481600a01555050611e1a8333898960405180602001604052806000815250613890565b600194505050505092915050565b6000600360009054906101000a900473ffffffffffffffffffffffffffffffffffffffff16905090565b60086020528060005260406000206000915090505481565b8173ffffffffffffffffffffffffffffffffffffffff16611e89613462565b73ffffffffffffffffffffffffffffffffffffffff161415611ee0576040517f08c379a0000000000000000000000000000000000000000000000000000000008152600401611ed7906153cc565b60405180910390fd5b8060016000611eed613462565b73ffffffffffffffffffffffffffffffffffffffff1673ffffffffffffffffffffffffffffffffffffffff16815260200190815260200160002060008473ffffffffffffffffffffffffffffffffffffffff1673ffffffffffffffffffffffffffffffffffffffff16815260200190815260200160002060006101000a81548160ff0219169083151502179055508173ffffffffffffffffffffffffffffffffffffffff16611f9a613462565b73ffffffffffffffffffffffffffffffffffffffff167f17307eab39ab6107e8899845ad3d59bd9653f200f220920489ca2b5937696c3183604051611fdf91906151ef565b60405180910390a35050565b6000611ff5613462565b73ffffffffffffffffffffffffffffffffffffffff16612013611e28565b73ffffffffffffffffffffffffffffffffffffffff1614612069576040517f08c379a00000000000000000000000000000000000000000000000000000000081526004016120609061538c565b60405180910390fd5b61207161426d565b60405180608001604052808573ffffffffffffffffffffffffffffffffffffffff16815260200184815260200142815260200160011515815250905080600a60008673ffffffffffffffffffffffffffffffffffffffff1673ffffffffffffffffffffffffffffffffffffffff16815260200190815260200160002060008201518160000160006101000a81548173ffffffffffffffffffffffffffffffffffffffff021916908373ffffffffffffffffffffffffffffffffffffffff16021790555060208201518160010190805190602001906121509291906142ad565b506040820151816002015560608201518160030160006101000a81548160ff021916908315150217905550905050600d849080600181540180825580915050600190039060005260206000200160009091909190916101000a81548173ffffffffffffffffffffffffffffffffffffffff021916908373ffffffffffffffffffffffffffffffffffffffff160217905550600191505092915050565b60011515600a60003373ffffffffffffffffffffffffffffffffffffffff1673ffffffffffffffffffffffffffffffffffffffff16815260200190815260200160002060030160009054906101000a900460ff16151514612282576040517f08c379a00000000000000000000000000000000000000000000000000000000081526004016122799061534c565b60405180910390fd5b6006600f60003373ffffffffffffffffffffffffffffffffffffffff1673ffffffffffffffffffffffffffffffffffffffff1681526020019081526020016000208054905010612307576040517f08c379a00000000000000000000000000000000000000000000000000000000081526004016122fe906153ac565b60405180910390fd5b61230f614195565b60405180610100016040528060016123276005613b12565b61233191906156bd565b8152602001600a60003373ffffffffffffffffffffffffffffffffffffffff1673ffffffffffffffffffffffffffffffffffffffff1681526020019081526020016000206040518060800160405290816000820160009054906101000a900473ffffffffffffffffffffffffffffffffffffffff1673ffffffffffffffffffffffffffffffffffffffff1673ffffffffffffffffffffffffffffffffffffffff1681526020016001820180546123e690615888565b80601f016020809104026020016040519081016040528092919081815260200182805461241290615888565b801561245f5780601f106124345761010080835404028352916020019161245f565b820191906000526020600020905b81548152906001019060200180831161244257829003601f168201915b50505050508152602001600282015481526020016003820160009054906101000a900460ff161515151581525050815260200187815260200183815260200186815260200185815260200185815260200142815250905080600c600060016124c76005613b12565b6124d191906156bd565b81526020019081526020016000206000820151816000015560208201518160010160008201518160000160006101000a81548173ffffffffffffffffffffffffffffffffffffffff021916908373ffffffffffffffffffffffffffffffffffffffff16021790555060208201518160010190805190602001906125559291906142ad565b506040820151816002015560608201518160030160006101000a81548160ff0219169083151502179055505050604082015181600501908051906020019061259e9291906142ad565b5060608201518160060190805190602001906125bb9291906142ad565b506080820151816007015560a0820151816008015560c0820151816009015560e082015181600a0155905050600f60003373ffffffffffffffffffffffffffffffffffffffff1673ffffffffffffffffffffffffffffffffffffffff1681526020019081526020016000208190806001815401808255809150506001900390600052602060002090600b02016000909190919091506000820151816000015560208201518160010160008201518160000160006101000a81548173ffffffffffffffffffffffffffffffffffffffff021916908373ffffffffffffffffffffffffffffffffffffffff16021790555060208201518160010190805190602001906126c69291906142ad565b506040820151816002015560608201518160030160006101000a81548160ff0219169083151502179055505050604082015181600501908051906020019061270f9291906142ad565b50606082015181600601908051906020019061272c9291906142ad565b506080820151816007015560a0820151816008015560c0820151816009015560e082015181600a0155505061276083613b20565b61276a6005613b3a565b60006127766005613b12565b905061279333828760405180602001604052806000815250613b50565b61279e306001611e6a565b8460086000838152602001908152602001600020819055507fd33a29693b0c1e4497bd99a5d678d78d400627b434590d51b4961816620b20a633888389896040516127ed95949392919061511a565b60405180910390a150505050505050565b60058060000154905081565b600d818154811061281a57600080fd5b906000526020600020016000915054906101000a900473ffffffffffffffffffffffffffffffffffffffff1681565b60608060006128586005613b12565b14156128675780915050612c90565b600080600190505b6128796005613b12565b81116128c1576000600c60008381526020019081526020016000206008015411156128ae576001826128ab91906156bd565b91505b80806128b9906158eb565b91505061286f565b5060018110156128d5578192505050612c90565b6000808267ffffffffffffffff811115612918577f4e487b7100000000000000000000000000000000000000000000000000000000600052604160045260246000fd5b60405190808252806020026020018201604052801561295157816020015b61293e614195565b8152602001906001900390816129365790505b5090506000600190505b6129656005613b12565b8111612c87576000600c6000838152602001908152602001600020600801541115612c7457600c60008281526020019081526020016000206040518061010001604052908160008201548152602001600182016040518060800160405290816000820160009054906101000a900473ffffffffffffffffffffffffffffffffffffffff1673ffffffffffffffffffffffffffffffffffffffff1673ffffffffffffffffffffffffffffffffffffffff168152602001600182018054612a2990615888565b80601f0160208091040260200160405190810160405280929190818152602001828054612a5590615888565b8015612aa25780601f10612a7757610100808354040283529160200191612aa2565b820191906000526020600020905b815481529060010190602001808311612a8557829003601f168201915b50505050508152602001600282015481526020016003820160009054906101000a900460ff1615151515815250508152602001600582018054612ae490615888565b80601f0160208091040260200160405190810160405280929190818152602001828054612b1090615888565b8015612b5d5780601f10612b3257610100808354040283529160200191612b5d565b820191906000526020600020905b815481529060010190602001808311612b4057829003601f168201915b50505050508152602001600682018054612b7690615888565b80601f0160208091040260200160405190810160405280929190818152602001828054612ba290615888565b8015612bef5780601f10612bc457610100808354040283529160200191612bef565b820191906000526020600020905b815481529060010190602001808311612bd257829003601f168201915b50505050508152602001600782015481526020016008820154815260200160098201548152602001600a82015481525050828481518110612c59577f4e487b7100000000000000000000000000000000000000000000000000000000600052603260045260246000fd5b6020026020010181905250600183612c7191906156bd565b92505b8080612c7f906158eb565b91505061295b565b50809450505050505b90565b600f6020528160005260406000208181548110612caf57600080fd5b90600052602060002090600b020160009150915050806000015490806001016040518060800160405290816000820160009054906101000a900473ffffffffffffffffffffffffffffffffffffffff1673ffffffffffffffffffffffffffffffffffffffff1673ffffffffffffffffffffffffffffffffffffffff168152602001600182018054612d3f90615888565b80601f0160208091040260200160405190810160405280929190818152602001828054612d6b90615888565b8015612db85780601f10612d8d57610100808354040283529160200191612db8565b820191906000526020600020905b815481529060010190602001808311612d9b57829003601f168201915b50505050508152602001600282015481526020016003820160009054906101000a900460ff16151515158152505090806005018054612df690615888565b80601f0160208091040260200160405190810160405280929190818152602001828054612e2290615888565b8015612e6f5780601f10612e4457610100808354040283529160200191612e6f565b820191906000526020600020905b815481529060010190602001808311612e5257829003601f168201915b505050505090806006018054612e8490615888565b80601f0160208091040260200160405190810160405280929190818152602001828054612eb090615888565b8015612efd5780601f10612ed257610100808354040283529160200191612efd565b820191906000526020600020905b815481529060010190602001808311612ee057829003601f168201915b50505050509080600701549080600801549080600901549080600a0154905088565b60606040518060400160405280601d81526020017f68747470733a2f2f6a736f6e6b65657065722e636f6d2f622f4f4a4f43000000815250905090565b6000600160008473ffffffffffffffffffffffffffffffffffffffff1673ffffffffffffffffffffffffffffffffffffffff16815260200190815260200160002060008373ffffffffffffffffffffffffffffffffffffffff1673ffffffffffffffffffffffffffffffffffffffff16815260200190815260200160002060009054906101000a900460ff16905092915050565b612ff8613462565b73ffffffffffffffffffffffffffffffffffffffff168573ffffffffffffffffffffffffffffffffffffffff16148061303e575061303d85613038613462565b612f5c565b5b61307d576040517f08c379a0000000000000000000000000000000000000000000000000000000008152600401613074906152ec565b60405180910390fd5b61308a8585858585613890565b5050505050565b613099613462565b73ffffffffffffffffffffffffffffffffffffffff166130b7611e28565b73ffffffffffffffffffffffffffffffffffffffff161461310d576040517f08c379a00000000000000000000000000000000000000000000000000000000081526004016131049061538c565b60405180910390fd5b600073ffffffffffffffffffffffffffffffffffffffff168173ffffffffffffffffffffffffffffffffffffffff16141561317d576040517f08c379a0000000000000000000000000000000000000000000000000000000008152600401613174906152ac565b60405180910390fd5b613186816137ca565b50565b600c602052806000526040600020600091509050806000015490806001016040518060800160405290816000820160009054906101000a900473ffffffffffffffffffffffffffffffffffffffff1673ffffffffffffffffffffffffffffffffffffffff1673ffffffffffffffffffffffffffffffffffffffff16815260200160018201805461321890615888565b80601f016020809104026020016040519081016040528092919081815260200182805461324490615888565b80156132915780601f1061326657610100808354040283529160200191613291565b820191906000526020600020905b81548152906001019060200180831161327457829003601f168201915b50505050508152602001600282015481526020016003820160009054906101000a900460ff161515151581525050908060050180546132cf90615888565b80601f01602080910402602001604051908101604052809291908181526020018280546132fb90615888565b80156133485780601f1061331d57610100808354040283529160200191613348565b820191906000526020600020905b81548152906001019060200180831161332b57829003601f168201915b50505050509080600601805461335d90615888565b80601f016020809104026020016040519081016040528092919081815260200182805461338990615888565b80156133d65780601f106133ab576101008083540402835291602001916133d6565b820191906000526020600020905b8154815290600101906020018083116133b957829003601f168201915b50505050509080600701549080600801549080600901549080600a0154905088565b60007f01ffc9a7000000000000000000000000000000000000000000000000000000007bffffffffffffffffffffffffffffffffffffffffffffffffffffffff1916827bffffffffffffffffffffffffffffffffffffffffffffffffffffffff1916149050919050565b600033905090565b81518351146134ae576040517f08c379a00000000000000000000000000000000000000000000000000000000081526004016134a59061540c565b60405180910390fd5b600073ffffffffffffffffffffffffffffffffffffffff168473ffffffffffffffffffffffffffffffffffffffff16141561351e576040517f08c379a00000000000000000000000000000000000000000000000000000000081526004016135159061530c565b60405180910390fd5b6000613528613462565b9050613538818787878787613ce6565b60005b845181101561373557600085828151811061357f577f4e487b7100000000000000000000000000000000000000000000000000000000600052603260045260246000fd5b6020026020010151905060008583815181106135c4577f4e487b7100000000000000000000000000000000000000000000000000000000600052603260045260246000fd5b60200260200101519050600080600084815260200190815260200160002060008b73ffffffffffffffffffffffffffffffffffffffff1673ffffffffffffffffffffffffffffffffffffffff16815260200190815260200160002054905081811015613665576040517f08c379a000000000000000000000000000000000000000000000000000000000815260040161365c9061536c565b60405180910390fd5b81810360008085815260200190815260200160002060008c73ffffffffffffffffffffffffffffffffffffffff1673ffffffffffffffffffffffffffffffffffffffff168152602001908152602001600020819055508160008085815260200190815260200160002060008b73ffffffffffffffffffffffffffffffffffffffff1673ffffffffffffffffffffffffffffffffffffffff168152602001908152602001600020600082825461371a91906156bd565b925050819055505050508061372e906158eb565b905061353b565b508473ffffffffffffffffffffffffffffffffffffffff168673ffffffffffffffffffffffffffffffffffffffff168273ffffffffffffffffffffffffffffffffffffffff167f4a39dc06d4c0dbc64b70af90fd698a233a518aa5d07e595d983b8c0526c8f7fb87876040516137ac9291906151b8565b60405180910390a46137c2818787878787613cee565b505050505050565b6000600360009054906101000a900473ffffffffffffffffffffffffffffffffffffffff16905081600360006101000a81548173ffffffffffffffffffffffffffffffffffffffff021916908373ffffffffffffffffffffffffffffffffffffffff1602179055508173ffffffffffffffffffffffffffffffffffffffff168173ffffffffffffffffffffffffffffffffffffffff167f8be0079c531659141344cd1fd0a4f28419497f9722a3daafe3b4186f6b6457e060405160405180910390a35050565b600073ffffffffffffffffffffffffffffffffffffffff168473ffffffffffffffffffffffffffffffffffffffff161415613900576040517f08c379a00000000000000000000000000000000000000000000000000000000081526004016138f79061530c565b60405180910390fd5b600061390a613462565b905061392a81878761391b88613ed5565b61392488613ed5565b87613ce6565b600080600086815260200190815260200160002060008873ffffffffffffffffffffffffffffffffffffffff1673ffffffffffffffffffffffffffffffffffffffff168152602001908152602001600020549050838110156139c1576040517f08c379a00000000000000000000000000000000000000000000000000000000081526004016139b89061536c565b60405180910390fd5b83810360008087815260200190815260200160002060008973ffffffffffffffffffffffffffffffffffffffff1673ffffffffffffffffffffffffffffffffffffffff168152602001908152602001600020819055508360008087815260200190815260200160002060008873ffffffffffffffffffffffffffffffffffffffff1673ffffffffffffffffffffffffffffffffffffffff1681526020019081526020016000206000828254613a7691906156bd565b925050819055508573ffffffffffffffffffffffffffffffffffffffff168773ffffffffffffffffffffffffffffffffffffffff168373ffffffffffffffffffffffffffffffffffffffff167fc3d58168c5ae7397731d063d5bbf3d657854427343f4c083240f7aacaa2d0f628888604051613af39291906154fa565b60405180910390a4613b09828888888888613f9b565b50505050505050565b600081600001549050919050565b8060029080519060200190613b369291906142ad565b5050565b6001816000016000828254019250508190555050565b600073ffffffffffffffffffffffffffffffffffffffff168473ffffffffffffffffffffffffffffffffffffffff161415613bc0576040517f08c379a0000000000000000000000000000000000000000000000000000000008152600401613bb79061542c565b60405180910390fd5b6000613bca613462565b9050613beb81600087613bdc88613ed5565b613be588613ed5565b87613ce6565b8260008086815260200190815260200160002060008773ffffffffffffffffffffffffffffffffffffffff1673ffffffffffffffffffffffffffffffffffffffff1681526020019081526020016000206000828254613c4a91906156bd565b925050819055508473ffffffffffffffffffffffffffffffffffffffff16600073ffffffffffffffffffffffffffffffffffffffff168273ffffffffffffffffffffffffffffffffffffffff167fc3d58168c5ae7397731d063d5bbf3d657854427343f4c083240f7aacaa2d0f628787604051613cc89291906154fa565b60405180910390a4613cdf81600087878787613f9b565b5050505050565b505050505050565b613d0d8473ffffffffffffffffffffffffffffffffffffffff16614182565b15613ecd578373ffffffffffffffffffffffffffffffffffffffff1663bc197c8187878686866040518663ffffffff1660e01b8152600401613d5395949392919061500c565b602060405180830381600087803b158015613d6d57600080fd5b505af1925050508015613d9e57506040513d601f19601f82011682018060405250810190613d9b91906148c9565b60015b613e4457613daa6159f0565b806308c379a01415613e075750613dbf615eb1565b80613dca5750613e09565b806040517f08c379a0000000000000000000000000000000000000000000000000000000008152600401613dfe919061520a565b60405180910390fd5b505b6040517f08c379a0000000000000000000000000000000000000000000000000000000008152600401613e3b9061522c565b60405180910390fd5b63bc197c8160e01b7bffffffffffffffffffffffffffffffffffffffffffffffffffffffff1916817bffffffffffffffffffffffffffffffffffffffffffffffffffffffff191614613ecb576040517f08c379a0000000000000000000000000000000000000000000000000000000008152600401613ec29061524c565b60405180910390fd5b505b505050505050565b60606000600167ffffffffffffffff811115613f1a577f4e487b7100000000000000000000000000000000000000000000000000000000600052604160045260246000fd5b604051908082528060200260200182016040528015613f485781602001602082028036833780820191505090505b5090508281600081518110613f86577f4e487b7100000000000000000000000000000000000000000000000000000000600052603260045260246000fd5b60200260200101818152505080915050919050565b613fba8473ffffffffffffffffffffffffffffffffffffffff16614182565b1561417a578373ffffffffffffffffffffffffffffffffffffffff1663f23a6e6187878686866040518663ffffffff1660e01b8152600401614000959493929190615074565b602060405180830381600087803b15801561401a57600080fd5b505af192505050801561404b57506040513d601f19601f8201168201806040525081019061404891906148c9565b60015b6140f1576140576159f0565b806308c379a014156140b4575061406c615eb1565b8061407757506140b6565b806040517f08c379a00000000000000000000000000000000000000000000000000000000081526004016140ab919061520a565b60405180910390fd5b505b6040517f08c379a00000000000000000000000000000000000000000000000000000000081526004016140e89061522c565b60405180910390fd5b63f23a6e6160e01b7bffffffffffffffffffffffffffffffffffffffffffffffffffffffff1916817bffffffffffffffffffffffffffffffffffffffffffffffffffffffff191614614178576040517f08c379a000000000000000000000000000000000000000000000000000000000815260040161416f9061524c565b60405180910390fd5b505b505050505050565b600080823b905060008111915050919050565b604051806101000160405280600081526020016141b061426d565b81526020016060815260200160608152602001600081526020016000815260200160008152602001600081525090565b8280546141ec90615888565b90600052602060002090601f01602090048101928261420e576000855561425c565b82601f1061421f578054855561425c565b8280016001018555821561425c57600052602060002091601f016020900482015b8281111561425b578254825591600101919060010190614240565b5b5090506142699190614333565b5090565b6040518060800160405280600073ffffffffffffffffffffffffffffffffffffffff16815260200160608152602001600081526020016000151581525090565b8280546142b990615888565b90600052602060002090601f0160209004810192826142db5760008555614322565b82601f106142f457805160ff1916838001178555614322565b82800160010185558215614322579182015b82811115614321578251825591602001919060010190614306565b5b50905061432f9190614333565b5090565b5b8082111561434c576000816000905550600101614334565b5090565b600061436361435e84615548565b615523565b9050808382526020820190508285602086028201111561438257600080fd5b60005b858110156143b2578161439888826144a4565b845260208401935060208301925050600181019050614385565b5050509392505050565b60006143cf6143ca84615574565b615523565b905080838252602082019050828560208602820111156143ee57600080fd5b60005b8581101561441e578161440488826145a0565b8452602084019350602083019250506001810190506143f1565b5050509392505050565b600061443b614436846155a0565b615523565b90508281526020810184848401111561445357600080fd5b61445e848285615846565b509392505050565b6000614479614474846155d1565b615523565b90508281526020810184848401111561449157600080fd5b61449c848285615846565b509392505050565b6000813590506144b381615f47565b92915050565b600082601f8301126144ca57600080fd5b81356144da848260208601614350565b91505092915050565b600082601f8301126144f457600080fd5b81356145048482602086016143bc565b91505092915050565b60008135905061451c81615f5e565b92915050565b60008135905061453181615f75565b92915050565b60008151905061454681615f75565b92915050565b600082601f83011261455d57600080fd5b813561456d848260208601614428565b91505092915050565b600082601f83011261458757600080fd5b8135614597848260208601614466565b91505092915050565b6000813590506145af81615f8c565b92915050565b6000602082840312156145c757600080fd5b60006145d5848285016144a4565b91505092915050565b600080604083850312156145f157600080fd5b60006145ff858286016144a4565b9250506020614610858286016144a4565b9150509250929050565b600080600080600060a0868803121561463257600080fd5b6000614640888289016144a4565b9550506020614651888289016144a4565b945050604086013567ffffffffffffffff81111561466e57600080fd5b61467a888289016144e3565b935050606086013567ffffffffffffffff81111561469757600080fd5b6146a3888289016144e3565b925050608086013567ffffffffffffffff8111156146c057600080fd5b6146cc8882890161454c565b9150509295509295909350565b600080600080600060a086880312156146f157600080fd5b60006146ff888289016144a4565b9550506020614710888289016144a4565b9450506040614721888289016145a0565b9350506060614732888289016145a0565b925050608086013567ffffffffffffffff81111561474f57600080fd5b61475b8882890161454c565b9150509295509295909350565b6000806040838503121561477b57600080fd5b6000614789858286016144a4565b925050602061479a8582860161450d565b9150509250929050565b600080604083850312156147b757600080fd5b60006147c5858286016144a4565b925050602083013567ffffffffffffffff8111156147e257600080fd5b6147ee85828601614576565b9150509250929050565b6000806040838503121561480b57600080fd5b6000614819858286016144a4565b925050602061482a858286016145a0565b9150509250929050565b6000806040838503121561484757600080fd5b600083013567ffffffffffffffff81111561486157600080fd5b61486d858286016144b9565b925050602083013567ffffffffffffffff81111561488a57600080fd5b614896858286016144e3565b9150509250929050565b6000602082840312156148b257600080fd5b60006148c084828501614522565b91505092915050565b6000602082840312156148db57600080fd5b60006148e984828501614537565b91505092915050565b600080600080600060a0868803121561490a57600080fd5b600086013567ffffffffffffffff81111561492457600080fd5b61493088828901614576565b9550506020614941888289016145a0565b9450506040614952888289016145a0565b935050606086013567ffffffffffffffff81111561496f57600080fd5b61497b88828901614576565b925050608086013567ffffffffffffffff81111561499857600080fd5b6149a488828901614576565b9150509295509295909350565b6000602082840312156149c357600080fd5b60006149d1848285016145a0565b91505092915050565b600080604083850312156149ed57600080fd5b60006149fb858286016145a0565b9250506020614a0c858286016145a0565b9150509250929050565b6000614a228383614f15565b905092915050565b6000614a368383614fd3565b60208301905092915050565b614a4b816157d2565b82525050565b614a5a816157d2565b82525050565b6000614a6b82615622565b614a758185615668565b935083602082028501614a8785615602565b8060005b85811015614ac35784840389528151614aa48582614a16565b9450614aaf8361564e565b925060208a01995050600181019050614a8b565b50829750879550505050505092915050565b6000614ae08261562d565b614aea8185615679565b9350614af583615612565b8060005b83811015614b26578151614b0d8882614a2a565b9750614b188361565b565b925050600181019050614af9565b5085935050505092915050565b614b3c816157e4565b82525050565b614b4b816157e4565b82525050565b6000614b5c82615638565b614b66818561568a565b9350614b76818560208601615855565b614b7f81615a12565b840191505092915050565b6000614b9582615643565b614b9f818561569b565b9350614baf818560208601615855565b614bb881615a12565b840191505092915050565b6000614bce82615643565b614bd881856156ac565b9350614be8818560208601615855565b614bf181615a12565b840191505092915050565b6000614c096034836156ac565b9150614c1482615a30565b604082019050919050565b6000614c2c6028836156ac565b9150614c3782615a7f565b604082019050919050565b6000614c4f6014836156ac565b9150614c5a82615ace565b602082019050919050565b6000614c72602b836156ac565b9150614c7d82615af7565b604082019050919050565b6000614c956026836156ac565b9150614ca082615b46565b604082019050919050565b6000614cb8601a836156ac565b9150614cc382615b95565b602082019050919050565b6000614cdb6029836156ac565b9150614ce682615bbe565b604082019050919050565b6000614cfe6025836156ac565b9150614d0982615c0d565b604082019050919050565b6000614d216032836156ac565b9150614d2c82615c5c565b604082019050919050565b6000614d44600d836156ac565b9150614d4f82615cab565b602082019050919050565b6000614d67602a836156ac565b9150614d7282615cd4565b604082019050919050565b6000614d8a6020836156ac565b9150614d9582615d23565b602082019050919050565b6000614dad6014836156ac565b9150614db882615d4c565b602082019050919050565b6000614dd06029836156ac565b9150614ddb82615d75565b604082019050919050565b6000614df36029836156ac565b9150614dfe82615dc4565b604082019050919050565b6000614e166028836156ac565b9150614e2182615e13565b604082019050919050565b6000614e396021836156ac565b9150614e4482615e62565b604082019050919050565b6000608083016000830151614e676000860182614a42565b5060208301518482036020860152614e7f8282614b8a565b9150506040830151614e946040860182614fd3565b506060830151614ea76060860182614b33565b508091505092915050565b6000608083016000830151614eca6000860182614a42565b5060208301518482036020860152614ee28282614b8a565b9150506040830151614ef76040860182614fd3565b506060830151614f0a6060860182614b33565b508091505092915050565b600061010083016000830151614f2e6000860182614fd3565b5060208301518482036020860152614f468282614e4f565b91505060408301518482036040860152614f608282614b8a565b91505060608301518482036060860152614f7a8282614b8a565b9150506080830151614f8f6080860182614fd3565b5060a0830151614fa260a0860182614fd3565b5060c0830151614fb560c0860182614fd3565b5060e0830151614fc860e0860182614fd3565b508091505092915050565b614fdc8161583c565b82525050565b614feb8161583c565b82525050565b60006020820190506150066000830184614a51565b92915050565b600060a0820190506150216000830188614a51565b61502e6020830187614a51565b81810360408301526150408186614ad5565b905081810360608301526150548185614ad5565b905081810360808301526150688184614b51565b90509695505050505050565b600060a0820190506150896000830188614a51565b6150966020830187614a51565b6150a36040830186614fe2565b6150b06060830185614fe2565b81810360808301526150c28184614b51565b90509695505050505050565b60006080820190506150e36000830187614a51565b81810360208301526150f58186614bc3565b90506151046040830185614fe2565b6151116060830184614b42565b95945050505050565b600060a08201905061512f6000830188614a51565b81810360208301526151418187614bc3565b90506151506040830186614fe2565b61515d6060830185614fe2565b61516a6080830184614fe2565b9695505050505050565b6000602082019050818103600083015261518e8184614a60565b905092915050565b600060208201905081810360008301526151b08184614ad5565b905092915050565b600060408201905081810360008301526151d28185614ad5565b905081810360208301526151e68184614ad5565b90509392505050565b60006020820190506152046000830184614b42565b92915050565b600060208201905081810360008301526152248184614bc3565b905092915050565b6000602082019050818103600083015261524581614bfc565b9050919050565b6000602082019050818103600083015261526581614c1f565b9050919050565b6000602082019050818103600083015261528581614c42565b9050919050565b600060208201905081810360008301526152a581614c65565b9050919050565b600060208201905081810360008301526152c581614c88565b9050919050565b600060208201905081810360008301526152e581614cab565b9050919050565b6000602082019050818103600083015261530581614cce565b9050919050565b6000602082019050818103600083015261532581614cf1565b9050919050565b6000602082019050818103600083015261534581614d14565b9050919050565b6000602082019050818103600083015261536581614d37565b9050919050565b6000602082019050818103600083015261538581614d5a565b9050919050565b600060208201905081810360008301526153a581614d7d565b9050919050565b600060208201905081810360008301526153c581614da0565b9050919050565b600060208201905081810360008301526153e581614dc3565b9050919050565b6000602082019050818103600083015261540581614de6565b9050919050565b6000602082019050818103600083015261542581614e09565b9050919050565b6000602082019050818103600083015261544581614e2c565b9050919050565b60006020820190506154616000830184614fe2565b92915050565b60006101008201905061547d600083018b614fe2565b818103602083015261548f818a614eb2565b905081810360408301526154a38189614bc3565b905081810360608301526154b78188614bc3565b90506154c66080830187614fe2565b6154d360a0830186614fe2565b6154e060c0830185614fe2565b6154ed60e0830184614fe2565b9998505050505050505050565b600060408201905061550f6000830185614fe2565b61551c6020830184614fe2565b9392505050565b600061552d61553e565b905061553982826158ba565b919050565b6000604051905090565b600067ffffffffffffffff821115615563576155626159c1565b5b602082029050602081019050919050565b600067ffffffffffffffff82111561558f5761558e6159c1565b5b602082029050602081019050919050565b600067ffffffffffffffff8211156155bb576155ba6159c1565b5b6155c482615a12565b9050602081019050919050565b600067ffffffffffffffff8211156155ec576155eb6159c1565b5b6155f582615a12565b9050602081019050919050565b6000819050602082019050919050565b6000819050602082019050919050565b600081519050919050565b600081519050919050565b600081519050919050565b600081519050919050565b6000602082019050919050565b6000602082019050919050565b600082825260208201905092915050565b600082825260208201905092915050565b600082825260208201905092915050565b600082825260208201905092915050565b600082825260208201905092915050565b60006156c88261583c565b91506156d38361583c565b9250827fffffffffffffffffffffffffffffffffffffffffffffffffffffffffffffffff0382111561570857615707615934565b5b828201905092915050565b600061571e8261583c565b91506157298361583c565b92508261573957615738615963565b5b828204905092915050565b600061574f8261583c565b915061575a8361583c565b9250817fffffffffffffffffffffffffffffffffffffffffffffffffffffffffffffffff048311821515161561579357615792615934565b5b828202905092915050565b60006157a98261583c565b91506157b48361583c565b9250828210156157c7576157c6615934565b5b828203905092915050565b60006157dd8261581c565b9050919050565b60008115159050919050565b60007fffffffff0000000000000000000000000000000000000000000000000000000082169050919050565b600073ffffffffffffffffffffffffffffffffffffffff82169050919050565b6000819050919050565b82818337600083830152505050565b60005b83811015615873578082015181840152602081019050615858565b83811115615882576000848401525b50505050565b600060028204905060018216806158a057607f821691505b602082108114156158b4576158b3615992565b5b50919050565b6158c382615a12565b810181811067ffffffffffffffff821117156158e2576158e16159c1565b5b80604052505050565b60006158f68261583c565b91507fffffffffffffffffffffffffffffffffffffffffffffffffffffffffffffffff82141561592957615928615934565b5b600182019050919050565b7f4e487b7100000000000000000000000000000000000000000000000000000000600052601160045260246000fd5b7f4e487b7100000000000000000000000000000000000000000000000000000000600052601260045260246000fd5b7f4e487b7100000000000000000000000000000000000000000000000000000000600052602260045260246000fd5b7f4e487b7100000000000000000000000000000000000000000000000000000000600052604160045260246000fd5b600060033d1115615a0f5760046000803e615a0c600051615a23565b90505b90565b6000601f19601f8301169050919050565b60008160e01c9050919050565b7f455243313135353a207472616e7366657220746f206e6f6e204552433131353560008201527f526563656976657220696d706c656d656e746572000000000000000000000000602082015250565b7f455243313135353a204552433131353552656365697665722072656a6563746560008201527f6420746f6b656e73000000000000000000000000000000000000000000000000602082015250565b7f546f6b656e73206e6f7420617661696c61626c65000000000000000000000000600082015250565b7f455243313135353a2062616c616e636520717565727920666f7220746865207a60008201527f65726f2061646472657373000000000000000000000000000000000000000000602082015250565b7f4f776e61626c653a206e6577206f776e657220697320746865207a65726f206160008201527f6464726573730000000000000000000000000000000000000000000000000000602082015250565b7f6e6f7420657175616c20746f20746f6b656e27732076616c7565000000000000600082015250565b7f455243313135353a2063616c6c6572206973206e6f74206f776e6572206e6f7260008201527f20617070726f7665640000000000000000000000000000000000000000000000602082015250565b7f455243313135353a207472616e7366657220746f20746865207a65726f20616460008201527f6472657373000000000000000000000000000000000000000000000000000000602082015250565b7f455243313135353a207472616e736665722063616c6c6572206973206e6f742060008201527f6f776e6572206e6f7220617070726f7665640000000000000000000000000000602082015250565b7f626520612063726561746f722100000000000000000000000000000000000000600082015250565b7f455243313135353a20696e73756666696369656e742062616c616e636520666f60008201527f72207472616e7366657200000000000000000000000000000000000000000000602082015250565b7f4f776e61626c653a2063616c6c6572206973206e6f7420746865206f776e6572600082015250565b7f6d6178206f66203620546f6b656e73206f6e6c79000000000000000000000000600082015250565b7f455243313135353a2073657474696e6720617070726f76616c2073746174757360008201527f20666f722073656c660000000000000000000000000000000000000000000000602082015250565b7f455243313135353a206163636f756e747320616e6420696473206c656e67746860008201527f206d69736d617463680000000000000000000000000000000000000000000000602082015250565b7f455243313135353a2069647320616e6420616d6f756e7473206c656e6774682060008201527f6d69736d61746368000000000000000000000000000000000000000000000000602082015250565b7f455243313135353a206d696e7420746f20746865207a65726f2061646472657360008201527f7300000000000000000000000000000000000000000000000000000000000000602082015250565b600060443d1015615ec157615f44565b615ec961553e565b60043d036004823e80513d602482011167ffffffffffffffff82111715615ef1575050615f44565b808201805167ffffffffffffffff811115615f0f5750505050615f44565b80602083010160043d038501811115615f2c575050505050615f44565b615f3b826020018501866158ba565b82955050505050505b90565b615f50816157d2565b8114615f5b57600080fd5b50565b615f67816157e4565b8114615f7257600080fd5b50565b615f7e816157f0565b8114615f8957600080fd5b50565b615f958161583c565b8114615fa057600080fd5b5056fea2646970667358221220af92fd13bc32a5d8c847f5ada8f2a827bddc943f45e46a4f56e34522c8e141c864736f6c63430008030033",
    "linkReferences": {},
    "deployedLinkReferences": {}
}